:100000000C942A000C94331C0C94421F0C94601C1A
:100010000C94DD150C94AA150C94A9160C94431697
:100020000C9476160C9410160C9477150C94C31F30
:100030000C9447000C94C8070C9447000C94FB07E1
:100040000C94730F0C9447000C9447000C944700D9
:100050000C94470011241FBECFE5D8E0DEBFCDBF12
:1000600012E0A0E6B0E0E2E2FAE402C005900D92F0
:10007000AC35B107D9F712E0ACE5B2E001C01D9292
:10008000AA3EB107E1F70E9475220C940F250C944B
:100090000000EF92FF920F931F937B018C0120E0F1
:1000A00030E040E05FE40E94F50388238CF0C80153
:1000B000B70120E030E040E05FE40E94C1010E940F
:1000C00055049B01AC01205030404040504806C0D0
:1000D000C801B7010E9455049B01AC01B901CA01D6
:1000E0001F910F91FF90EF900895A0E0B0E0EBE733
:1000F000F0E00C94D824DC012B01FA019C919230A1
:1001000008F439C1EB018881823008F433C194309E
:1001100069F4843009F02FC111969C91119789815F
:10012000981709F428C1A9EDB0E025C1843009F47D
:1001300021C18230A9F4923009F01DC19A01AD01AC
:1001400088E0EA010990AE01E90109929E0181501F
:10015000C1F7E201898111969C918923818308C1AD
:10016000923009F407C112962D903C901397EB0141
:100170008A819B811496AD90BD90CD90DC901797AD
:10018000EC80FD800E811F819101281B390BB90184
:1001900037FF04C066277727621B730B6032710537
:1001A0000CF061C0121613066CF537014801062EDB
:1001B00004C096948794779467940A94D2F721E0C8
:1001C00030E040E050E004C0220F331F441F551FB1
:1001D0006A95D2F721503040404050402E213F21B7
:1001E00040235123211531054105510521F021E01E
:1001F00030E040E050E079018A01E628F72808293C
:1002000019293CC0232BD1F1260E371E350146019A
:10021000062E04C096948794779467940A94D2F734
:1002200021E030E040E050E004C0220F331F441FC3
:10023000551F6A95D2F721503040404050402A2146
:100240003B214C215D21211531054105510521F04E
:1002500021E030E040E050E059016A01A628B728CB
:10026000C828D9280BC0821593052CF01C01AA249C
:10027000BB24650103C0EE24FF24870111969C91E5
:10028000D20111968C91981709F445C0992339F041
:10029000A80197012A193B094C095D0906C0A6016E
:1002A00095012E193F09400B510B57FD08C01182D3
:1002B0003382228224833583468357831DC081E0A5
:1002C00081833382228288279927DC01821B930B4A
:1002D000A40BB50B84839583A683B7830DC0220F2F
:1002E000331F441F551F24833583468357838281E0
:1002F000938101979383828324813581468157813D
:10030000DA01C9010197A109B1098F5F9F4FAF4F72
:10031000BF4328F30BC0918333822282EA0CFB1C7B
:100320000C1D1D1DE482F5820683178383E0808304
:10033000248135814681578157FF1AC0C901AA27F8
:1003400097FDA095BA2F81709070A070B0705695EF
:10035000479537952795822B932BA42BB52B848318
:100360009583A683B7838281938101969383828349
:10037000DF0101C0D201CD01CDB7DEB7E2E10C94BF
:10038000F424A0E2B0E0E7ECF1E00C94E42469830B
:100390007A838B839C832D833E834F835887E9E048
:1003A000EE2EF12CEC0EFD1ECE010196B7010E943F
:1003B00046068E010F5E1F4FCE010596B8010E94C2
:1003C00046068A8991E089278A8BC701B801AE0168
:1003D000475E5F4F0E9475000E947105A096E6E09F
:1003E0000C940025A0E2B0E0E8EFF1E00C94E424E6
:1003F00069837A838B839C832D833E834F835887C5
:10040000F9E0EF2EF12CEC0EFD1ECE010196B701A6
:100410000E9446068E010F5E1F4FCE010596B80161
:100420000E944606C701B801AE01475E5F4F0E94B9
:1004300075000E947105A096E6E00C940025A0E2EC
:10044000B0E0E5E2F2E00C94D82469837A838B83F0
:100450009C832D833E834F835887CE010196BE0136
:10046000675F7F4F0E944606CE010596BE016F5E14
:100470007F4F0E9446069985923088F089898230A4
:10048000C8F0943019F4823051F404C0843029F457
:10049000923081F489ED90E0C6C0923049F420E0BA
:1004A0009A858A89981321E02A87CE010996BBC0D4
:1004B000823049F420E09A858A89981321E02A8BBA
:1004C000CE014196B0C02D843E844F8458886D88FB
:1004D0007E888F88988CEE24FF248701AA24BB2471
:1004E000650140E050E060E070E0E0E0F0E0C10174
:1004F00081709070892BE9F0E60CF71C081D191D1E
:100500009A01AB012A0D3B1D4C1D5D1D80E090E062
:10051000A0E0B0E0E614F7040805190520F481E036
:1005200090E0A0E0B0E0BA01A901480F591F6A1F8E
:100530007B1FAA0CBB1CCC1CDD1C97FE08C081E0F5
:1005400090E0A0E0B0E0A82AB92ACA2ADB2A3196B6
:10055000E032F10549F0660C771C881C991C569412
:10056000479437942794C3CFFA85EA892B893C892D
:100570008B859C85280F391F2E5F3F4F17C0CA01FE
:1005800081709070892B61F016950795F794E79428
:1005900080E090E0A0E0B0E8E82AF92A0A2B1B2BC3
:1005A00076956795579547952F5F3F4F77FDE7CF36
:1005B0000CC0440F551F661F771F17FD4160EE0CDE
:1005C000FF1C001F111F21503040403090E05907A0
:1005D00090E0690790E4790760F32B8F3C8FDB0193
:1005E000CA018F779070A070B07080349105A1051A
:1005F000B10561F447FD0AC0E114F10401051105DC
:1006000029F0405C5F4F6F4F7F4F40781A8EFE1786
:1006100011F081E08A8F4D8F5E8F6F8F78A383E01A
:10062000898FCE0149960E947105A096E2E10C9453
:10063000F424A8E1B0E0EFE1F3E00C94E024698356
:100640007A838B839C832D833E834F835887B9E0C5
:10065000EB2EF12CEC0EFD1ECE010196B7010E948F
:1006600046068E010F5E1F4FCE010596B8010E940F
:1006700046062985223008F47EC03989323010F4CC
:10068000B8017CC08A859A8989278A87243011F02D
:10069000223031F4231709F06EC069ED70E06EC0AE
:1006A000343039F41D861E861F86188A1C861B86E8
:1006B00004C0323021F484E08987B7015FC02B8504
:1006C0003C858B899C89281B390B3C872B87ED84C3
:1006D000FE840F851889AD88BE88CF88D88CEA142F
:1006E000FB040C051D0540F4EE0CFF1C001F111F40
:1006F000215030403C872B8720E030E040E050E044
:1007000080E090E0A0E0B0E460E070E0EA14FB0478
:100710000C051D0540F0282B392B4A2B5B2BEA18C2
:10072000FB080C091D09B695A79597958795EE0CC2
:10073000FF1C001F111F6F5F7F4F6F31710531F775
:10074000DA01C9018F779070A070B0708034910584
:10075000A105B10561F427FD0AC0E114F10401050A
:10076000110529F0205C3F4F4F4F5F4F20782D87B8
:100770003E874F87588BBE01675F7F4FCB010E943A
:1007800071056896EAE00C94FC24A8E1B0E0EBEC7B
:10079000F3E00C94E42469837A838B839C832D8318
:1007A0003E834F83588789E0E82EF12CEC0EFD1E26
:1007B000CE010196B7010E9446068E010F5E1F4FC3
:1007C000CE010596B8010E9446068985823040F028
:1007D0008989823028F0C701B8010E94BE0601C095
:1007E0008FEF6896E6E00C940025A8E1B0E0EBEF0F
:1007F000F3E00C94E42469837A838B839C832D83B8
:100800003E834F83588789E0E82EF12CEC0EFD1EC5
:10081000CE010196B7010E9446068E010F5E1F4F62
:10082000CE010596B8010E9446068985823040F0C7
:100830008989823028F0C701B8010E94BE0601C034
:100840008FEF6896E6E00C940025A8E1B0E0EBE2BB
:10085000F4E00C94E42469837A838B839C832D8356
:100860003E834F83588789E0E82EF12CEC0EFD1E65
:10087000CE010196B7010E9446068E010F5E1F4F02
:10088000CE010596B8010E9446068985823040F067
:100890008989823028F0C701B8010E94BE0601C0D4
:1008A00081E06896E6E00C940025ACE0B0E0EBE572
:1008B000F4E00C94E82469837A838B839C83CE01D3
:1008C0000196BE016B5F7F4F0E9446068D8182308C
:1008D00061F1823050F1843021F48E81882351F10E
:1008E0002EC02F81388537FD20C06E812F31310514
:1008F0001CF06623F9F023C08EE190E0821B930B7D
:1009000029853A854B855C8504C056954795379572
:1009100027958A95D2F76623B1F05095409530958A
:1009200021953F4F4F4F5F4F0EC020E030E040E039
:1009300050E009C02FEF3FEF4FEF5FE704C020E02A
:1009400030E040E050E8B901CA012C96E2E00C9496
:100950000425A8E0B0E0EFEAF4E00C94E0247B0189
:100960008C01611571058105910519F482E0898377
:1009700060C083E089838EE1C82ED12CDC82CB82DB
:10098000ED82FE820F831887C801B7010E942205FD
:10099000FC013197F7FF3BC0222733272E1B3F0B6B
:1009A00057016801022E04C0D694C794B794A79447
:1009B0000A94D2F740E050E060E070E081E090E01F
:1009C000A0E0B0E004C0880F991FAA1FBB1F2A95A2
:1009D000D2F70197A109B1098E219F21A023B1234C
:1009E0000097A105B10521F041E050E060E070E022
:1009F0004A295B296C297D294D835E836F83788723
:100A00008EE190E08E1B9F0B9C838B8312C03097EE
:100A100081F00E2E04C0EE0CFF1C001F111F0A9463
:100A2000D2F7ED82FE820F831887CE1ADF0ADC82AE
:100A3000CB821A82CE0101960E9471052896EAE0C7
:100A40000C94FC24EF92FF920F931F937B018C0177
:100A500080E0E81680E0F80681E0080780E01807EB
:100A600088F48FEFE816F1040105110531F028F044
:100A700088E090E0A0E0B0E017C080E090E0A0E067
:100A8000B0E012C080E0E81680E0F80680E00807D9
:100A900081E0180728F088E190E0A0E0B0E004C011
:100AA00080E190E0A0E0B0E020E230E040E050E003
:100AB000281B390B4A0B5B0B04C016950795F7945E
:100AC000E7948A95D2F7F701EF51FF4F8081281BF9
:100AD000310941095109C9011F910F91FF90EF9010
:100AE0000895DF92EF92FF920F931F93FC01E48031
:100AF000F58006811781D1808081823048F480E0C2
:100B000090E0A0E1B0E0E82AF92A0A2B1B2BA5C04F
:100B1000843009F49FC0823021F4EE24FF24870141
:100B200005C0E114F1040105110519F4E0E0F0E05D
:100B300096C0628173819FEF623879070CF05BC0C9
:100B400022E83FEF261B370B2A3131052CF020E03D
:100B500030E040E050E02AC0B801A701022E04C0F6
:100B600076956795579547950A94D2F781E090E07E
:100B7000A0E0B0E004C0880F991FAA1FBB1F2A95F0
:100B8000D2F70197A109B1098E219F21A023B1239A
:100B90000097A105B10521F081E090E0A0E0B0E070
:100BA0009A01AB01282B392B4A2B5B2BDA01C901A7
:100BB0008F779070A070B07080349105A105B10559
:100BC00039F427FF09C0205C3F4F4F4F5F4F04C0EF
:100BD000215C3F4F4F4F5F4FE0E0F0E02030A0E05E
:100BE0003A07A0E04A07A0E45A0710F0E1E0F0E07D
:100BF00079018A0127C06038710564F5FB01E1586D
:100C0000FF4FD801C7018F779070A070B07080340B
:100C10009105A105B10539F4E7FE0DC080E490E02F
:100C2000A0E0B0E004C08FE390E0A0E0B0E0E80E08
:100C3000F91E0A1F1B1F17FF05C016950795F7948D
:100C4000E794319687E016950795F794E7948A958F
:100C5000D1F705C0EE24FF248701EFEFF0E06E2FFF
:100C6000679566276795902F9F77D794DD24D79453
:100C70008E2F8695492F462B582F5D29B701CA0123
:100C80001F910F91FF90EF90DF900895FC01DB0121
:100C9000408151812281622F6F7770E0221F2227CD
:100CA000221F9381892F880F822B282F30E0991FD4
:100CB0009927991F11969C93119721153105A9F534
:100CC000411551056105710511F482E037C082E8D4
:100CD0009FEF13969C938E9312979A01AB0167E056
:100CE000220F331F441F551F6A95D1F783E08C9361
:100CF0000DC0220F331F441F551F12968D919C91DA
:100D00001397019713969C938E931297203080E04F
:100D1000380780E0480780E4580758F314962D936D
:100D20003D934D935C93179708952F3F310579F4C8
:100D3000411551056105710519F484E08C930895FE
:100D400064FF03C081E08C9312C01C9210C02F5727
:100D5000304013963C932E93129783E08C9387E058
:100D6000440F551F661F771F8A95D1F7706414963C
:100D70004D935D936D937C93179708951F93DC01BA
:100D8000FB019C91923008F447C08081823008F4C6
:100D900043C0943051F411961C91843099F58181AF
:100DA000682F70E0611B71093FC0843021F09230E0
:100DB00031F48230B9F18181882389F12DC01196F7
:100DC0001C9111978230F1F081811817D9F4129695
:100DD0002D913C911397828193818217930794F010
:100DE00028173907BCF014968D919D910D90BC91F8
:100DF000A02D2481358146815781281739074A075C
:100E00005B0718F4112341F00AC082179307A40767
:100E1000B50740F4112319F061E070E005C06FEFF1
:100E20007FEF02C060E070E0CB011F910895DF9377
:100E3000CF9300D00F92CDB7DEB71B821A821982F2
:100E4000ABE2B0E0EBE2F0E080818D7F8C938B81B0
:100E500080688B838B818F7B8B838B818F7E8B8351
:100E60008B818F7D8B838B8182608B838B81846070
:100E70008B83AAE2B0E0EAE2F0E080818B7F8C9382
:100E80008B81877F8B83E0E4F0E08B81808380918E
:100E90001702909118029A838983E0E4F0E0898137
:100EA0009A81892F99278083E9E2F0E08981808304
:100EB000AAE2B0E0EAE2F0E0808180618C93AAE2ED
:100EC000B0E0EAE2F0E0808188608C930F900F90B0
:100ED0000F90CF91DF910895DF93CF93CDB7DEB719
:100EE000AAE2B0E0EAE2F0E0808180688C93CF91E2
:100EF000DF910895DF93CF93CDB7DEB7AAE2B0E0DC
:100F0000EAE2F0E080818F778C93CF91DF910895B2
:100F1000DF93CF93CDB7DEB7AAE2B0E0EAE2F0E02C
:100F2000808180648C93CF91DF910895DF93CF937C
:100F3000CDB7DEB7AAE2B0E0EAE2F0E080818F7BD5
:100F40008C93CF91DF910895DF93CF9300D0CDB7ED
:100F5000DEB79A83898389819A8190935D02809319
:100F60005C020F900F90CF91DF910895DF93CF93A4
:100F700000D0CDB7DEB79A83898389819A81909317
:100F80005F0280935E020F900F90CF91DF910895E2
:100F90001F920F920FB60F9211242F933F934F93EE
:100FA0005F936F937F938F939F93AF93BF93EF93D1
:100FB000FF93DF93CF93CDB7DEB780915C02909122
:100FC0005D02009729F0E0915C02F0915D020995C5
:100FD000CF91DF91FF91EF91BF91AF919F918F9151
:100FE0007F916F915F914F913F912F910F900FBE25
:100FF0000F901F9018951F920F920FB60F92112409
:101000002F933F934F935F936F937F938F939F9310
:10101000AF93BF93EF93FF93DF93CF93CDB7DEB73B
:1010200080915E0290915F02009729F0E0915E024C
:10103000F0915F020995CF91DF91FF91EF91BF9100
:10104000AF919F918F917F916F915F914F913F9160
:101050002F910F900FBE0F901F901895DF93CF9395
:101060000F92CDB7DEB78983ECE2F0E0898180830F
:101070000F90CF91DF910895DF93CF93CDB7DEB777
:10108000ECE2F0E08081CF91DF910895DF93CF9380
:101090000F92CDB7DEB78983EBE2F0E080818295D5
:1010A00086958770882F90E0817090700097A1F3EB
:1010B000ECE2F0E0898180830F90CF91DF91089579
:1010C000DF93CF93CDB7DEB7EBE2F0E080818823EA
:1010D000DCF7ECE2F0E08081CF91DF910895DF93BF
:1010E000CF9300D00F92CDB7DEB79B838A8319824E
:1010F000EBE2F0E0808188234CF4ECE2F0E08081C8
:10110000EA81FB81808381E0898301C01982898122
:101110000F900F900F90CF91DF910895DF93CF93B1
:1011200000D0CDB7DEB79A838983A6E2B0E0E6E2CD
:10113000F0E0808180688C93E981FA818081882346
:1011400079F4A7E2B0E0E7E2F0E080818F7B8C9356
:10115000A7E2B0E0E7E2F0E080818F778C9322C0D5
:10116000E981FA818081813079F4A7E2B0E0E7E299
:10117000F0E0808180648C93A7E2B0E0E7E2F0E0E9
:1011800080818F778C930EC0A7E2B0E0E7E2F0E0B9
:10119000808180648C93A7E2B0E0E7E2F0E0808198
:1011A00080688C93E981FA818181882321F5A7E207
:1011B000B0E0E7E2F0E080818E7F8C93A7E2B0E0C0
:1011C000E7E2F0E080818D7F8C93A7E2B0E0E7E278
:1011D000F0E080818B7F8C93A7E2B0E0E7E2F0E063
:1011E0008081877F8C93A7E2B0E0E7E2F0E0808126
:1011F0008F7E8C931EC1E981FA818181813021F536
:10120000A7E2B0E0E7E2F0E0808181608C93A7E2A2
:10121000B0E0E7E2F0E080818D7F8C93A7E2B0E060
:10122000E7E2F0E080818B7F8C93A7E2B0E0E7E219
:10123000F0E08081877F8C93A7E2B0E0E7E2F0E006
:1012400080818F7E8C93F5C0E981FA818181823023
:1012500021F5A7E2B0E0E7E2F0E080818E7F8C9399
:10126000A7E2B0E0E7E2F0E0808182608C93A7E241
:10127000B0E0E7E2F0E080818B7F8C93A7E2B0E002
:10128000E7E2F0E08081877F8C93A7E2B0E0E7E2BD
:10129000F0E080818F7E8C93CCC0E981FA818181DE
:1012A000833021F5A7E2B0E0E7E2F0E080818160E1
:1012B0008C93A7E2B0E0E7E2F0E0808182608C935B
:1012C000A7E2B0E0E7E2F0E080818B7F8C93A7E2B9
:1012D000B0E0E7E2F0E08081877F8C93A7E2B0E0A6
:1012E000E7E2F0E080818F7E8C93A3C0E981FA81F0
:1012F0008181843021F5A7E2B0E0E7E2F0E080816F
:101300008E7F8C93A7E2B0E0E7E2F0E080818D7FF2
:101310008C93A7E2B0E0E7E2F0E0808184608C93F8
:10132000A7E2B0E0E7E2F0E08081877F8C93A7E25C
:10133000B0E0E7E2F0E080818F7E8C937AC0E981B3
:10134000FA818181853021F5A7E2B0E0E7E2F0E0A3
:10135000808181608C93A7E2B0E0E7E2F0E08081D9
:101360008D7F8C93A7E2B0E0E7E2F0E080818460BB
:101370008C93A7E2B0E0E7E2F0E08081877F8C9376
:10138000A7E2B0E0E7E2F0E080818F7E8C9351C06D
:10139000E981FA818181863021F5A7E2B0E0E7E2B8
:1013A000F0E080818E7F8C93A7E2B0E0E7E2F0E08E
:1013B000808182608C93A7E2B0E0E7E2F0E0808178
:1013C00084608C93A7E2B0E0E7E2F0E08081877F61
:1013D0008C93A7E2B0E0E7E2F0E080818F7E8C930F
:1013E00028C0E981FA818181873019F5A7E2B0E050
:1013F000E7E2F0E0808181608C93A7E2B0E0E7E271
:10140000F0E0808182608C93A7E2B0E0E7E2F0E058
:10141000808184608C93A7E2B0E0E7E2F0E0808115
:10142000877F8C93A7E2B0E0E7E2F0E080818F7ED7
:101430008C93E981FA8182818823B1F4A6E2B0E03D
:10144000E6E2F0E0808181608C93A6E2B0E0E6E223
:10145000F0E080818D7F8C93A6E2B0E0E6E2F0E0E0
:1014600080818B7F8C939CC0E981FA81828181305D
:10147000B1F4A6E2B0E0E6E2F0E080818E7F8C93EA
:10148000A6E2B0E0E6E2F0E0808182608C93A6E222
:10149000B0E0E6E2F0E080818B7F8C9381C0E9814F
:1014A000FA8182818230B1F4A6E2B0E0E6E2F0E0B7
:1014B000808181608C93A6E2B0E0E6E2F0E080817A
:1014C00082608C93A6E2B0E0E6E2F0E080818B7F60
:1014D0008C9366C0E981FA8182818330B1F4A6E2FF
:1014E000B0E0E6E2F0E080818E7F8C93A6E2B0E08F
:1014F000E6E2F0E080818D7F8C93A6E2B0E0E6E248
:10150000F0E0808184608C934BC0E981FA81828114
:101510008530B1F4A6E2B0E0E6E2F0E080818E7FB3
:101520008C93A6E2B0E0E6E2F0E0808182608C93EA
:10153000A6E2B0E0E6E2F0E0808184608C9330C007
:10154000E981FA8182818630B1F4A6E2B0E0E6E278
:10155000F0E0808181608C93A6E2B0E0E6E2F0E00A
:10156000808182608C93A6E2B0E0E6E2F0E08081C8
:1015700084608C9315C0A6E2B0E0E6E2F0E08081E2
:101580008E7F8C93A6E2B0E0E6E2F0E080818D7F72
:101590008C93A6E2B0E0E6E2F0E080818B7F8C9352
:1015A000E981FA818381882341F4A6E2B0E0E6E292
:1015B000F0E080818F7D8C93D7C0E981FA818381AF
:1015C0008130B1F4A0E5B0E0E0E5F0E080818F7D0E
:1015D0008C93A0E5B0E0E0E5F0E080818F7B8C9318
:1015E000A0E5B0E0E0E5F0E080818F778C93BCC0AF
:1015F000E981FA8183818230B1F4A0E5B0E0E0E5D1
:10160000F0E0808180628C93A0E5B0E0E0E5F0E05E
:1016100080818F7B8C93A0E5B0E0E0E5F0E08081F5
:101620008F778C93A1C0E981FA8183818330B1F4F3
:10163000A0E5B0E0E0E5F0E080818F7D8C93A0E54F
:10164000B0E0E0E5F0E0808180648C93A0E5B0E05C
:10165000E0E5F0E080818F778C9386C0E981FA81A4
:1016600083818430B1F4A0E5B0E0E0E5F0E0808172
:1016700080628C93A0E5B0E0E0E5F0E080818064DA
:101680008C93A0E5B0E0E0E5F0E080818F778C936B
:101690006BC0E981FA8183818530B1F4A0E5B0E0C7
:1016A000E0E5F0E080818F7D8C93A0E5B0E0E0E59F
:1016B000F0E080818F7B8C93A0E5B0E0E0E5F0E086
:1016C000808180688C9350C0E981FA818381863063
:1016D000B1F4A0E5B0E0E0E5F0E0808180628C93B9
:1016E000A0E5B0E0E0E5F0E080818F7B8C93A0E5A1
:1016F000B0E0E0E5F0E0808180688C9335C0E9815E
:10170000FA8183818730B1F4A0E5B0E0E0E5F0E054
:1017100080818F7D8C93A0E5B0E0E0E5F0E08081F2
:1017200080648C93A0E5B0E0E0E5F0E08081806823
:101730008C931AC0E981FA8183818830A9F4A0E5ED
:10174000B0E0E0E5F0E0808180628C93A0E5B0E05D
:10175000E0E5F0E0808180648C93A0E5B0E0E0E516
:10176000F0E0808180688C93A6E2B0E0E6E2F0E0F1
:10177000808180628C930F900F90CF91DF910895BC
:10178000DF93CF9300D0CDB7DEB71A8219820E94C3
:10179000430FE6E2F0E0808182958F70882F90E021
:1017A000817090700097A9F3E4E2F0E08081282F27
:1017B00030E0E5E2F0E08081882F90E0982F8827E4
:1017C000822B932B9A83898389819A810F900F9022
:1017D000CF91DF910895DF93CF9300D0CDB7DEB7DF
:1017E0009A838983A6E2B0E0E6E2F0E08081886037
:1017F0008C9389819A8190936102809360020F900B
:101800000F90CF91DF910895DF93CF930F92CDB7D3
:10181000DEB7898389818823B1F4A6E2B0E0E6E2ED
:10182000F0E0808181608C93A6E2B0E0E6E2F0E037
:1018300080818D7F8C93A6E2B0E0E6E2F0E08081CB
:101840008B7F8C93ABC089818130B1F4A6E2B0E08C
:10185000E6E2F0E080818E7F8C93A6E2B0E0E6E2E3
:10186000F0E0808182608C93A6E2B0E0E6E2F0E0F6
:1018700080818B7F8C9392C089818230B1F4A6E203
:10188000B0E0E6E2F0E0808181608C93A6E2B0E017
:10189000E6E2F0E0808182608C93A6E2B0E0E6E2CE
:1018A000F0E080818B7F8C9379C089818330B1F4A3
:1018B000A6E2B0E0E6E2F0E080818E7F8C93A6E2C3
:1018C000B0E0E6E2F0E080818D7F8C93A6E2B0E0AC
:1018D000E6E2F0E0808184608C9360C08981882397
:1018E000B1F4A6E2B0E0E6E2F0E0808181608C93A2
:1018F000A6E2B0E0E6E2F0E080818D7F8C93A6E284
:10190000B0E0E6E2F0E0808184608C9347C089819A
:101910008530B1F4A6E2B0E0E6E2F0E080818E7FAF
:101920008C93A6E2B0E0E6E2F0E0808182608C93E6
:10193000A6E2B0E0E6E2F0E0808184608C932EC005
:1019400089818630B1F4A6E2B0E0E6E2F0E0808181
:1019500081608C93A6E2B0E0E6E2F0E080818260F4
:101960008C93A6E2B0E0E6E2F0E0808184608C93A4
:1019700015C0A6E2B0E0E6E2F0E080818E7F8C93B5
:10198000A6E2B0E0E6E2F0E080818D7F8C93A6E2F3
:10199000B0E0E6E2F0E080818B7F8C930F90CF91F6
:1019A000DF910895DF93CF930F92CDB7DEB7898390
:1019B0008981882321F5A7E2B0E0E7E2F0E08081A9
:1019C0008E7F8C93A7E2B0E0E7E2F0E080818D7F2C
:1019D0008C93A7E2B0E0E7E2F0E080818B7F8C930C
:1019E000A7E2B0E0E7E2F0E08081877F8C93A7E296
:1019F000B0E0E7E2F0E080818F7E8C9310C18981B6
:101A0000813021F5A7E2B0E0E7E2F0E0808181607B
:101A10008C93A7E2B0E0E7E2F0E080818D7F8C93C9
:101A2000A7E2B0E0E7E2F0E080818B7F8C93A7E251
:101A3000B0E0E7E2F0E08081877F8C93A7E2B0E03E
:101A4000E7E2F0E080818F7E8C93E9C0898182306B
:101A500021F5A7E2B0E0E7E2F0E080818E7F8C9391
:101A6000A7E2B0E0E7E2F0E0808182608C93A7E239
:101A7000B0E0E7E2F0E080818B7F8C93A7E2B0E0FA
:101A8000E7E2F0E08081877F8C93A7E2B0E0E7E2B5
:101A9000F0E080818F7E8C93C2C08981833021F5F4
:101AA000A7E2B0E0E7E2F0E0808181608C93A7E2FA
:101AB000B0E0E7E2F0E0808182608C93A7E2B0E0E2
:101AC000E7E2F0E080818B7F8C93A7E2B0E0E7E271
:101AD000F0E08081877F8C93A7E2B0E0E7E2F0E05E
:101AE00080818F7E8C939BC08981843021F5A7E211
:101AF000B0E0E7E2F0E080818E7F8C93A7E2B0E077
:101B0000E7E2F0E080818D7F8C93A7E2B0E0E7E22E
:101B1000F0E0808184608C93A7E2B0E0E7E2F0E03F
:101B20008081877F8C93A7E2B0E0E7E2F0E08081DC
:101B30008F7E8C9374C08981853021F5A7E2B0E057
:101B4000E7E2F0E0808181608C93A7E2B0E0E7E219
:101B5000F0E080818D7F8C93A7E2B0E0E7E2F0E0D7
:101B6000808184608C93A7E2B0E0E7E2F0E08081BE
:101B7000877F8C93A7E2B0E0E7E2F0E080818F7E80
:101B80008C934DC08981863021F5A7E2B0E0E7E271
:101B9000F0E080818E7F8C93A7E2B0E0E7E2F0E096
:101BA000808182608C93A7E2B0E0E7E2F0E0808180
:101BB00084608C93A7E2B0E0E7E2F0E08081877F69
:101BC0008C93A7E2B0E0E7E2F0E080818F7E8C9317
:101BD00026C08981873019F5A7E2B0E0E7E2F0E09E
:101BE000808181608C93A7E2B0E0E7E2F0E0808141
:101BF00082608C93A7E2B0E0E7E2F0E0808184604D
:101C00008C93A7E2B0E0E7E2F0E08081877F8C93DD
:101C1000A7E2B0E0E7E2F0E080818F7E8C930F9046
:101C2000CF91DF910895DF93CF930F92CDB7DEB7B9
:101C3000898389818130B1F4A0E5B0E0E0E5F0E08E
:101C400080818F7D8C93A0E5B0E0E0E5F0E08081BD
:101C50008F7B8C93A0E5B0E0E0E5F0E080818F77AA
:101C60008C93AEC089818230B1F4A0E5B0E0E0E5AC
:101C7000F0E0808180628C93A0E5B0E0E0E5F0E0E8
:101C800080818F7B8C93A0E5B0E0E0E5F0E080817F
:101C90008F778C9395C089818330B1F4A0E5B0E053
:101CA000E0E5F0E080818F7D8C93A0E5B0E0E0E599
:101CB000F0E0808180648C93A0E5B0E0E0E5F0E0A6
:101CC00080818F778C937CC089818430B1F4A0E5CA
:101CD000B0E0E0E5F0E0808180628C93A0E5B0E0C8
:101CE000E0E5F0E0808180648C93A0E5B0E0E0E581
:101CF000F0E080818F778C9363C089818530B1F467
:101D0000A0E5B0E0E0E5F0E080818F7D8C93A0E578
:101D1000B0E0E0E5F0E080818F7B8C93A0E5B0E05F
:101D2000E0E5F0E0808180688C934AC0898186304C
:101D3000B1F4A0E5B0E0E0E5F0E0808180628C9352
:101D4000A0E5B0E0E0E5F0E080818F7B8C93A0E53A
:101D5000B0E0E0E5F0E0808180688C9331C089815B
:101D60008730B1F4A0E5B0E0E0E5F0E080818F7D60
:101D70008C93A0E5B0E0E0E5F0E0808180648C9396
:101D8000A0E5B0E0E0E5F0E0808180688C9318C0C9
:101D900089818830A9F4A0E5B0E0E0E5F0E0808139
:101DA00080628C93A0E5B0E0E0E5F0E080818064A3
:101DB0008C93A0E5B0E0E0E5F0E0808180688C9352
:101DC000A6E2B0E0E6E2F0E0808180628C930F90C2
:101DD000CF91DF910895DF93CF930F92CDB7DEB708
:101DE00089838981882379F4A7E2B0E0E7E2F0E013
:101DF00080818F7B8C93A7E2B0E0E7E2F0E0808106
:101E00008F778C9320C08981813079F4A7E2B0E08C
:101E1000E7E2F0E0808180648C93A7E2B0E0E7E243
:101E2000F0E080818F778C930EC0A7E2B0E0E7E20C
:101E3000F0E0808180648C93A7E2B0E0E7E2F0E01C
:101E4000808180688C930F90CF91DF910895DF930C
:101E5000CF93CDB7DEB7A6E2B0E0E6E2F0E0808156
:101E600080688C93CF91DF910895DF93CF93CDB7A6
:101E7000DEB7A6E2B0E0E6E2F0E080818F778C93F7
:101E8000CF91DF910895DF93CF93CDB7DEB7A6E270
:101E9000B0E0E6E2F0E0808180648C93CF91DF9146
:101EA0000895DF93CF93CDB7DEB7E4E2F0E0808111
:101EB000282F30E0E5E2F0E08081882F90E0982F35
:101EC0008827822B932BCF91DF910895DF93CF93B7
:101ED000CDB7DEB7E6E2F0E0808182958F70817049
:101EE000CF91DF9108951F920F920FB60F92112498
:101EF0002F933F934F935F936F937F938F939F9312
:101F0000AF93BF93EF93FF93DF93CF93CDB7DEB73C
:101F10008091600290916102009729F0E091600247
:101F2000F09161020995CF91DF91FF91EF91BF91FF
:101F3000AF919F918F917F916F915F914F913F9161
:101F40002F910F900FBE0F901F901895DF93CF9396
:101F5000CDB7DEB727970FB6F894DEBF0FBECDBF63
:101F600089836A834B838981282F30E03F832E83C6
:101F70008E819F818130910521F12E813F81223018
:101F800031052CF48E819F81009761F046C02E812F
:101F90003F812230310521F18E819F81833091056F
:101FA00071F13BC0A3E5B0E0E3E5F0E080818F7B19
:101FB0008C93A3E5B0E0E3E5F0E08081877F8C932C
:101FC0002CC0A3E5B0E0E3E5F0E0808180648C9371
:101FD000A3E5B0E0E3E5F0E08081877F8C931DC04E
:101FE000A3E5B0E0E3E5F0E080818F7B8C93A3E58F
:101FF000B0E0E3E5F0E0808188608C930EC0A3E55B
:10200000B0E0E3E5F0E0808180648C93A3E5B0E08C
:10201000E3E5F0E0808188608C93A3E5B0E0E3E540
:10202000F0E08081982F987F8A81892B8C938A8118
:10203000809364028B81282F30E03D832C838C8138
:102040009D818130910521F12C813D812230310526
:102050002CF48C819D81009761F046C02C813D81DC
:102060002230310521F18C819D818330910571F100
:102070003BC0A3E5B0E0E3E5F0E080818F7E8C9388
:10208000A3E5B0E0E3E5F0E080818F7D8C932CC088
:10209000A3E5B0E0E3E5F0E0808180618C93A3E507
:1020A000B0E0E3E5F0E080818F7D8C931DC0A3E577
:1020B000B0E0E3E5F0E080818F7E8C93A3E5B0E0B3
:1020C000E3E5F0E0808180628C930EC0A3E5B0E090
:1020D000E3E5F0E0808180618C93A3E5B0E0E3E587
:1020E000F0E0808180628C9327960FB6F894DEBF73
:1020F0000FBECDBFCF91DF910895DF93CF93CDB7C2
:10210000DEB727970FB6F894DEBF0FBECDBF898329
:102110006A834B838981282F30E03F832E838E8111
:102120009F818130910521F12E813F81223031053F
:102130002CF48E819F81009761F046C02E813F81F3
:102140002230310521F18E819F818330910571F11B
:102150003BC0A5E4B0E0E5E4F0E080818F7B8C93A8
:10216000A5E4B0E0E5E4F0E08081877F8C932CC0AB
:10217000A5E4B0E0E5E4F0E0808180648C93A5E420
:10218000B0E0E5E4F0E08081877F8C931DC0A5E49A
:10219000B0E0E5E4F0E080818F7B8C93A5E4B0E0D3
:1021A000E5E4F0E0808188608C930EC0A5E4B0E0A7
:1021B000E5E4F0E0808180648C93A5E4B0E0E5E4A0
:1021C000F0E0808188608C93A5E4B0E0E5E4F0E085
:1021D0008081982F987F8A81892B8C938A81809324
:1021E00066028B81282F30E03D832C838C819D817A
:1021F0008130910521F12C813D81223031052CF473
:102200008C819D81009761F046C02C813D812230F8
:10221000310521F18C819D818330910571F13BC0A5
:10222000A5E4B0E0E5E4F0E080818F7E8C93A5E446
:10223000B0E0E5E4F0E080818F7D8C932CC0A5E4D4
:10224000B0E0E5E4F0E0808180618C93A5E4B0E04B
:10225000E5E4F0E080818F7D8C931DC0A5E4B0E0C3
:10226000E5E4F0E080818F7E8C93A5E4B0E0E5E4C6
:10227000F0E0808180628C930EC0A5E4B0E0E5E4DC
:10228000F0E0808180618C93A5E4B0E0E5E4F0E0CB
:10229000808180628C9327960FB6F894DEBF0FBEC4
:1022A000CDBFCF91DF910895DF93CF93CDB7DEB748
:1022B000A9E5B0E0E9E5F0E0808181608C93CF9101
:1022C000DF910895DF93CF93CDB7DEB7A9E5B0E0F6
:1022D000E9E5F0E080818E7F8C93CF91DF910895C6
:1022E000DF93CF93CDB7DEB7A9E5B0E0E9E5F0E045
:1022F000808182608C93CF91DF910895DF93CF939B
:10230000CDB7DEB7A9E5B0E0E9E5F0E080818D7FEB
:102310008C93CF91DF910895DF93CF9300D0CDB709
:10232000DEB79A83898389819A819093680280932A
:1023300067020F900F90CF91DF910895DF93CF93B5
:1023400000D0CDB7DEB79A83898389819A81909333
:102350006A02809369020F900F90CF91DF910895E8
:10236000DF93CF930F92CDB7DEB78983E2E5F0E03C
:10237000898180830F90CF91DF910895DF93CF9370
:102380000F92CDB7DEB78983ECE5F0E089818083D9
:102390000F90CF91DF910895DF93CF93CDB7DEB744
:1023A000E2E5F0E08081CF91DF910895DF93CF9354
:1023B000CDB7DEB7A3E5B0E0E3E5F0E08081887F4C
:1023C0008C93CF91DF910895DF93CF93CDB7DEB794
:1023D000A3E5B0E0E3E5F0E0908180916402892B11
:1023E0008C93CF91DF910895DF93CF93CDB7DEB774
:1023F000A9E5B0E0E9E5F0E0808180688C93CF91B9
:10240000DF910895DF93CF93CDB7DEB7A9E5B0E0B4
:10241000E9E5F0E080818F778C93CF91DF9108958B
:10242000DF93CF9300D0CDB7DEB79A8389838981BC
:102430009A8190936C0280936B020F900F90CF91D2
:10244000DF910895DF93CF9300D0CDB7DEB79A83A5
:10245000898389819A8190936E0280936D020F9097
:102460000F90CF91DF910895DF93CF930F92CDB767
:10247000DEB78983E4E4F0E0898180830F90CF9117
:10248000DF910895DF93CF930F92CDB7DEB78983A5
:10249000E3E4F0E0898180830F90CF91DF9108958C
:1024A000DF93CF93CDB7DEB7E4E4F0E08081CF9146
:1024B000DF910895DF93CF93CDB7DEB7A5E4B0E009
:1024C000E5E4F0E08081887F8C93CF91DF910895DF
:1024D000DF93CF93CDB7DEB7A5E4B0E0E5E4F0E05D
:1024E000908180916602892B8C93CF91DF91089522
:1024F000DF93CF9300D00F92CDB7DEB789837B8374
:102500006A83E4E4F0E0108282E062E040E00E944E
:102510007D10E3E4F0E0898180838A819B810E94C1
:1025200022120E94F4110F900F900F90CF91DF9123
:102530000895DF93CF93CDB7DEB72A970FB6F894FF
:10254000DEBF0FBECDBF89836A834B832C83898115
:10255000282F30E03A87298789859A85823091052E
:1025600009F456C029853A852330310554F489850C
:102570009A85009799F029853A852130310559F1DE
:102580009DC089859A858330910509F45EC02985AF
:102590003A852430310509F475C090C0AFE4B0E04D
:1025A000EFE4F0E080818E7F8C93AFE4B0E0EFE465
:1025B000F0E080818D7F8C93AEE4B0E0EEE4F0E05B
:1025C0008081877F8C93AEE4B0E0EEE4F0E0808120
:1025D0008F7E8C9373C0AFE4B0E0EFE4F0E08081D5
:1025E0008E7F8C93AFE4B0E0EFE4F0E080818D7FEC
:1025F0008C93AEE4B0E0EEE4F0E0808188608C93F0
:10260000AEE4B0E0EEE4F0E0808180618C9356C0EF
:10261000AFE4B0E0EFE4F0E080818E7F8C93AFE434
:10262000B0E0EFE4F0E080818D7F8C93AEE4B0E029
:10263000EEE4F0E0808188608C93AEE4B0E0EEE4FC
:10264000F0E080818F7E8C9339C0AFE4B0E0EFE49E
:10265000F0E080818E7F8C93AFE4B0E0EFE4F0E0B7
:10266000808182608C93AEE4B0E0EEE4F0E08081A3
:1026700088608C93AEE4B0E0EEE4F0E080818061AD
:102680008C931CC0AFE4B0E0EFE4F0E080818160A7
:102690008C93AFE4B0E0EFE4F0E0808182608C9353
:1026A000AEE4B0E0EEE4F0E0808188608C93AEE4CC
:1026B000B0E0EEE4F0E0808180618C938B81282F84
:1026C00030E038872F838F8198858130910521F103
:1026D0002F813885223031052CF48F819885009721
:1026E00061F046C02F8138852230310521F18F817C
:1026F00098858330910571F13BC0AFE4B0E0EFE421
:10270000F0E080818F7B8C93AFE4B0E0EFE4F0E009
:1027100080818F778C932CC0AFE4B0E0EFE4F0E0E1
:10272000808180648C93AFE4B0E0EFE4F0E08081DE
:102730008F778C931DC0AFE4B0E0EFE4F0E08081D0
:102740008F7B8C93AFE4B0E0EFE4F0E080818068B1
:102750008C930EC0AFE4B0E0EFE4F0E080818064E1
:102760008C93AFE4B0E0EFE4F0E0808180688C937C
:102770008C81282F30E03E832D838D819E81813096
:10278000910521F12D813E81223031052CF48D817E
:102790009E81009761F046C02D813E812230310537
:1027A00021F18D819E818330910571F13BC0AFE4B1
:1027B000B0E0EFE4F0E080818F7E8C93AFE4B0E096
:1027C000EFE4F0E080818F7D8C932CC0AFE4B0E02B
:1027D000EFE4F0E0808180618C93AFE4B0E0EFE45F
:1027E000F0E080818F7D8C931DC0AFE4B0E0EFE41A
:1027F000F0E080818F7E8C93AFE4B0E0EFE4F0E016
:10280000808180628C930EC0AFE4B0E0EFE4F0E032
:10281000808180618C93AFE4B0E0EFE4F0E08081F0
:1028200080628C93AEE4B0E0EEE4F0E08081887FDB
:102830008C93AEE4B0E0EEE4F0E090818A81892BE5
:102840008C938A81809365022A960FB6F894DEBF36
:102850000FBECDBFCF91DF910895DF93CF930F923D
:10286000CDB7DEB789838981882341F4AEE4B0E037
:10287000EEE4F0E0808180648C930AC0898181302D
:1028800039F4AEE4B0E0EEE4F0E080818F7B8C932D
:102890000F90CF91DF910895DF93CF9300D0CDB704
:1028A000DEB79A838983ECE4F0E089819A81918391
:1028B00080830F900F90CF91DF910895DF93CF9396
:1028C00000D0CDB7DEB79A838983EAE4F0E089814E
:1028D0009A81918380830F900F90CF91DF9108951B
:1028E000DF93CF9300D0CDB7DEB79A838983E8E436
:1028F000F0E089819A81918380830F900F90CF912E
:10290000DF910895DF93CF9300D0CDB7DEB79A83E0
:102910008983E6E4F0E089819A81918380830F9036
:102920000F90CF91DF910895DF93CF93CDB7DEB7AE
:10293000ECE4F0E080819181CF91DF910895DF9305
:10294000CF93CDB7DEB7AEE4B0E0EEE4F0E0808147
:10295000887F8C93CF91DF910895DF93CF93CDB78C
:10296000DEB70E949F14AEE4B0E0EEE4F0E09081A8
:1029700080916502892B8C93CF91DF910895DF932D
:10298000CF93CDB7DEB7A9E5B0E0E9E5F0E080810F
:1029900080628C93CF91DF910895DF93CF93CDB771
:1029A000DEB7A9E5B0E0E9E5F0E080818F7D8C93AA
:1029B000CF91DF910895DF93CF93CDB7DEB7A9E52F
:1029C000B0E0E9E5F0E0808184608C93CF91DF9105
:1029D0000895DF93CF93CDB7DEB7A9E5B0E0E9E581
:1029E000F0E080818B7F8C93CF91DF910895DF930E
:1029F000CF93CDB7DEB7A9E5B0E0E9E5F0E080819F
:102A000080618C93CF91DF910895DF93CF93CDB701
:102A1000DEB7A9E5B0E0E9E5F0E080818F7E8C9338
:102A2000CF91DF910895DF93CF93CDB7DEB7A9E5BE
:102A3000B0E0E9E5F0E0808188608C93CF91DF9190
:102A40000895DF93CF93CDB7DEB7A9E5B0E0E9E510
:102A5000F0E08081877F8C93CF91DF910895DF93A1
:102A6000CF9300D0CDB7DEB79A83898389819A81CD
:102A70009093700280936F020F900F90CF91DF912F
:102A80000895DF93CF9300D0CDB7DEB79A838983C3
:102A900089819A8190937202809371020F900F90B6
:102AA000CF91DF910895DF93CF9300D0CDB7DEB7FC
:102AB0009A83898389819A819093740280937302A7
:102AC0000F900F90CF91DF910895DF93CF9300D0B7
:102AD000CDB7DEB79A83898389819A8190937602F4
:102AE000809375020F900F90CF91DF9108951F9200
:102AF0000F920FB60F9211242F933F934F935F9332
:102B00006F937F938F939F93AF93BF93EF93FF93B5
:102B1000DF93CF93CDB7DEB78091690290916A02BF
:102B2000009729F0E0916902F0916A020995CF912E
:102B3000DF91FF91EF91BF91AF919F918F917F9125
:102B40006F915F914F913F912F910F900FBE0F901A
:102B50001F9018951F920F920FB60F9211242F936A
:102B60003F934F935F936F937F938F939F93AF9315
:102B7000BF93EF93FF93DF93CF93CDB7DEB78091F1
:102B80006B0290916C02009729F0E0916B02F0913A
:102B90006C020995CF91DF91FF91EF91BF91AF91B9
:102BA0009F918F917F916F915F914F913F912F9165
:102BB0000F900FBE0F901F9018951F920F920FB697
:102BC0000F9211242F933F934F935F936F937F93B3
:102BD0008F939F93AF93BF93EF93FF93DF93CF9325
:102BE000CDB7DEB780916D0290916E02009729F00B
:102BF000E0916D02F0916E020995CF91DF91FF9106
:102C0000EF91BF91AF919F918F917F916F915F9164
:102C10004F913F912F910F900FBE0F901F901895DD
:102C20001F920F920FB60F9211242F933F934F9341
:102C30005F936F937F938F939F93AF93BF93EF9324
:102C4000FF93DF93CF93CDB7DEB780916F02909162
:102C50007002009729F0E0916F02F09170020995DF
:102C6000CF91DF91FF91EF91BF91AF919F918F91A4
:102C70007F916F915F914F913F912F910F900FBE78
:102C80000F901F9018951F920F920FB60F9211245C
:102C90002F933F934F935F936F937F938F939F9364
:102CA000AF93BF93EF93FF93DF93CF93CDB7DEB78F
:102CB0008091710290917202009729F0E091710267
:102CC000F09172020995CF91DF91FF91EF91BF9141
:102CD000AF919F918F917F916F915F914F913F91B4
:102CE0002F910F900FBE0F901F9018951F920F926B
:102CF0000FB60F9211242F933F934F935F936F93CF
:102D00007F938F939F93AF93BF93EF93FF93DF9343
:102D1000CF93CDB7DEB78091730290917402009784
:102D200029F0E0917302F09174020995CF91DF913F
:102D3000FF91EF91BF91AF919F918F917F916F9193
:102D40005F914F913F912F910F900FBE0F901F9069
:102D500018951F920F920FB60F9211242F933F9345
:102D60004F935F936F937F938F939F93AF93BF9393
:102D7000EF93FF93DF93CF93CDB7DEB780917502CA
:102D800090917602009729F0E0917502F091760219
:102D90000995CF91DF91FF91EF91BF91AF919F91F5
:102DA0008F917F916F915F914F913F912F910F90F4
:102DB0000FBE0F901F901895DF93CF93CDB7DEB75E
:102DC00083E062E042E020E00E949912CF91DF911F
:102DD0000895DF93CF9300D000D0CDB7DEB79C83AA
:102DE0008B838B819C810097D1F488EE93E02B81BB
:102DF0003C81B9010E948F24CB019A838983898108
:102E00009A81009741F0E6E4F0E089819A81019788
:102E10009183808304C0E6E4F0E0118210820F9079
:102E20000F900F900F90CF91DF910895DF93CF9384
:102E300000D000D0CDB7DEB79C838B838B819C8183
:102E4000009709F58B819C819C0140E050E080E473
:102E500092E4AFE0B0E0BC01CD010E94B624DA01FB
:102E6000C9019A83898389819A81009741F0E6E4B8
:102E7000F0E089819A8101979183808304C0E6E420
:102E8000F0E0118210820F900F900F900F90CF9171
:102E9000DF910895DF93CF9300D000D00F92CDB78C
:102EA000DEB789837B836A838981282F30E03D8365
:102EB0002C838C819D818130910531F02C813D8165
:102EC0002230310541F00DC0E8E4F0E08A819B81B9
:102ED0009183808306C0EAE4F0E08A819B8191833C
:102EE00080830F900F900F900F900F90CF91DF91F4
:102EF0000895EF92FF920F931F93DF93CF9300D02B
:102F000000D0CDB7DEB79C838B838B819C818536C7
:102F1000910580F58B819C817C0100E010E0E6E466
:102F2000F0E08081918101969C0140E050E0C80171
:102F3000B7010E946424DC01CB0124E630E040E0CC
:102F400050E0BC01CD010E94B624DA01C9019A8388
:102F5000898389819A818230910540F0EAE4F0E02A
:102F600089819A8101979183808304C0EAE4F0E02B
:102F7000118210820F900F900F900F90CF91DF91E0
:102F80001F910F91FF90EF900895DF93CF9300D0A2
:102F900000D000D0CDB7DEB769837A838B839C8362
:102FA0005E834D8380E090E00E944C1482E062E0FA
:102FB00040E020E00E949912EAE4F0E089819A81E1
:102FC0000197918380838D819E810E9441150E948B
:102FD000F71426960FB6F894DEBF0FBECDBFCF9183
:102FE000DF910895DF93CF9300D000D0CDB7DEB747
:102FF0008A836B834C8381E089838C81813019F0D3
:103000008C818823C9F58B818830B0F58A81843022
:1030100098F58A81882F90E0880F991FFC01EF5165
:10302000FE4FA081B1818A81882F90E0880F991F7F
:10303000FC01EF51FE4F0190F081E02D8081482F7F
:103040008B81282F30E081E090E002C0880F991F2B
:103050002A95E2F7809548238C81282F30E08B81D8
:10306000882F90E0B90102C0660F771F8A95E2F7BA
:10307000CB01842B8C9302C082E0898389810F90DD
:103080000F900F900F90CF91DF910895DF93CF9322
:1030900000D0CDB7DEB789836A838981882F90E01D
:1030A000880F991FFC01EF51FE4F0190F081E02D38
:1030B0008A8180830F900F90CF91DF910895DF93E5
:1030C000CF9300D0CDB7DEB789836A838981882FFB
:1030D00090E0880F991FFC01EF51FE4FA081B18154
:1030E0008981882F90E0880F991FFC01EF51FE4FD6
:1030F0000190F081E02D90818A81892B8C930F9033
:103100000F90CF91DF910895DF93CF9300D000D03F
:10311000CDB7DEB78A836B834C8381E089838C8152
:10312000813019F08C818823B1F58B81883098F536
:103130008A81882F90E0880F991FFC01E751FE4F8C
:10314000A081B1818A81882F90E0880F991FFC01AE
:10315000E751FE4F0190F081E02D8081482F8B8157
:10316000282F30E081E090E002C0880F991F2A9557
:10317000E2F7809548238C81282F30E08B81882FBF
:1031800090E0B90102C0660F771F8A95E2F7CB0184
:10319000842B8C9302C082E0898389810F900F90E9
:1031A0000F900F90CF91DF910895DF93CF9300D0D0
:1031B000CDB7DEB789836A838981882F90E0880F35
:1031C000991FFC01E751FE4F0190F081E02D8A81AB
:1031D00080830F900F90CF91DF910895DF93CF936D
:1031E00000D0CDB7DEB789836A838981882F90E0CC
:1031F000880F991FFC01E751FE4FA081B1818981A1
:10320000882F90E0880F991FFC01E751FE4F019035
:10321000F081E02D90818A81892B8C930F900F9003
:10322000CF91DF910895DF93CF9300D0CDB7DEB774
:1032300089836A838981882F90E0880F991FFC0118
:10324000E751FE4FA081B1818981882F90E0880FDE
:10325000991FFC01E751FE4F0190F081E02D808124
:10326000982F8A81809589238C930F900F90CF910E
:10327000DF910895DF93CF9300D00F92CDB7DEB7E3
:1032800089836A834B838981882F90E0880F991FF7
:10329000FC01E751FE4FA081B1818981882F90E028
:1032A000880F991FFC01E751FE4F0190F081E02D3E
:1032B0008081982F8B81809598238A81892B8C938C
:1032C0000F900F900F90CF91DF910895DF93CF93E0
:1032D00000D000D00F92CDB7DEB78A836B835D83B9
:1032E0004C8381E089838B818830E8F48A81882F40
:1032F00090E0880F991FFC01EF50FE4F0190F08184
:10330000E02D8081282F30E08B81882F90E0A9016B
:1033100002C0559547958A95E2F7CA018170EC8104
:10332000FD81808302C082E0898389810F900F90A4
:103330000F900F900F90CF91DF910895DF93CF936F
:1033400000D0CDB7DEB789836A838981882F90E06A
:10335000880F991FFC01EF50FE4F0190F081E02D86
:103360008081282F30E08A81882F90E0A90102C057
:10337000559547958A95E2F7CA0181700F900F9095
:10338000CF91DF910895DF93CF9300D000D0CDB7D8
:10339000DEB78A837C836B8381E089838A81843072
:1033A00080F48A81882F90E0880F991FFC01EF50EC
:1033B000FE4F0190F081E02D8081EB81FC818083C4
:1033C00002C082E0898389810F900F900F900F9047
:1033D000CF91DF910895DF93CF930F92CDB7DEB7F2
:1033E00089838981882F90E0880F991FFC01EF5015
:1033F000FE4F0190F081E02D80810F90CF91DF9101
:103400000895DF93CF9300D00F92CDB7DEB78A83B4
:103410006B8381E089838B81883088F58A81882F4E
:1034200090E0880F991FFC01E751FE4FA081B18108
:103430008A81882F90E0880F991FFC01E751FE4F89
:103440000190F081E02D8081482F8B81282F30E082
:1034500081E090E002C0880F991F2A95E2F78095DD
:1034600048238B81282F30E081E090E0022E02C0BB
:10347000880F991F0A94E2F7842B8C9302C082E094
:10348000898389810F900F900F90CF91DF910895DC
:10349000DF93CF9300D00F92CDB7DEB78A836B83D3
:1034A00081E089838B81883030F58A81882F90E094
:1034B000880F991FFC01E751FE4FA081B1818A81DD
:1034C000882F90E0880F991FFC01E751FE4F019073
:1034D000F081E02D8081482F8B81282F30E081E022
:1034E00090E0022E02C0880F991F0A94E2F780959F
:1034F00084238C9302C082E0898389810F900F908E
:103500000F90CF91DF910895DF93CF930F92CDB7B6
:10351000DEB7198231C08981282F30E0CE010796AD
:10352000FC01E20FF31F8081813019F54E81898102
:10353000282F30E0CE010F96FC01E20FF31F90819F
:10354000842F6981492F0E94F2178981282F30E04A
:10355000CE014796FC01E20FF31F8081813029F4F0
:103560008E8169810E94011A04C08E8169810E9446
:10357000481A89818F5F89838981883060F20F9032
:10358000CF91DF910895DF93CF9300D0CDB7DEB711
:103590009A838983E981FA81828193819093780269
:1035A00080937702ABE5B0E0EBE5F0E080818064EA
:1035B0008C93E981FA818181813079F4A5E5B0E0CD
:1035C000E5E5F0E080818E7F8C93A5E5B0E0E5E550
:1035D000F0E080818D7F8C933BC0E981FA8181810D
:1035E000823079F4A5E5B0E0E5E5F0E08081816026
:1035F0008C93A5E5B0E0E5E5F0E080818D7F8C93CC
:1036000027C0E981FA818181833079F4A5E5B0E0B2
:10361000E5E5F0E080818E7F8C93A5E5B0E0E5E5FF
:10362000F0E0808182608C9313C0E981FA8181810E
:10363000843071F4A5E5B0E0E5E5F0E080818160DB
:103640008C93A5E5B0E0E5E5F0E0808182608C93A5
:103650000F900F90CF91DF910895DF93CF9300D01B
:10366000CDB7DEB79A838983E981FA81828193811C
:1036700090937A0280937902ABE5B0E0EBE5F0E05D
:10368000808180688C93E981FA818181813079F42D
:10369000A5E5B0E0E5E5F0E080818B7F8C93A5E5C2
:1036A000B0E0E5E5F0E08081877F8C933BC0E98165
:1036B000FA818181823079F4A5E5B0E0E5E5F0E0BA
:1036C000808184608C93A5E5B0E0E5E5F0E0808141
:1036D000877F8C9327C0E981FA818181833079F4D7
:1036E000A5E5B0E0E5E5F0E080818B7F8C93A5E572
:1036F000B0E0E5E5F0E0808188608C9313C0E9815B
:10370000FA818181843071F4A5E5B0E0E5E5F0E06F
:10371000808184608C93A5E5B0E0E5E5F0E08081F0
:1037200088608C930F900F90CF91DF910895DF9375
:10373000CF9300D0CDB7DEB79A838983E981FA8130
:103740008281938190937C0280937B02ABE5B0E011
:10375000EBE5F0E0808180628C93E981FA818181E0
:10376000833041F4A4E5B0E0E4E5F0E080818F7BB4
:103770008C930CC0E981FA818181843039F4A4E50D
:10378000B0E0E4E5F0E0808180648C930F900F90CE
:10379000CF91DF910895DF93CF9300D0CDB7DEB7FF
:1037A0009A838983E981FA818081813029F4898132
:1037B0009A810E94C31A13C0E981FA818081823004
:1037C00029F489819A810E942D1B09C0E981FA811F
:1037D0008081833021F489819A810E94971B0F9008
:1037E0000F90CF91DF910895DF93CF930F92CDB7D4
:1037F000DEB789838981833079F4A5E5B0E0E5E51A
:10380000F0E080818E7F8C93A5E5B0E0E5E5F0E007
:10381000808182608C9311C08981843071F4A5E528
:10382000B0E0E5E5F0E0808181608C93A5E5B0E053
:10383000E5E5F0E0808182608C930F90CF91DF917D
:103840000895DF93CF9300D0CDB7DEB79A838983F5
:1038500089819A8190937802809377020F900F90DC
:10386000CF91DF9108951F920F920FB60F921124FE
:103870002F933F934F935F936F937F938F939F9378
:10388000AF93BF93EF93FF93DF93CF93CDB7DEB7A3
:10389000E0917702F09178020995CF91DF91FF9145
:1038A000EF91BF91AF919F918F917F916F915F91B8
:1038B0004F913F912F910F900FBE0F901F90189531
:1038C0001F920F920FB60F9211242F933F934F9395
:1038D0005F936F937F938F939F93AF93BF93EF9378
:1038E000FF93DF93CF93CDB7DEB7E0917B02F091EA
:1038F0007C020995CF91DF91FF91EF91BF91AF913C
:103900009F918F917F916F915F914F913F912F91F7
:103910000F900FBE0F901F901895DF93CF93CDB7E8
:10392000DEB780E060E041E00E94F21780E061E0F5
:1039300041E00E94F21780E062E041E00E94F2174D
:1039400080E063E041E00E94F21783E064E041E040
:103950000E94F21783E065E041E00E94F21783E0E5
:1039600062E042E022E00E949912E6E4F0E08FEF8C
:103970008083E7E4F0E01082CF91DF910895DF9338
:10398000CF9300D0CDB7DEB789836A838981282F92
:1039900030E081E0B9010E944A178A81282F30E087
:1039A00082E0B9010E944A1780E060E041E00E9495
:1039B000841880E061E040E00E94841880E062E0CA
:1039C00041E00E94841880E063E040E00E94841897
:1039D0000F900F90CF91DF910895DF93CF9300D098
:1039E000CDB7DEB789836A838981282F30E081E0F3
:1039F000B9010E944A178A81282F30E082E0B9017C
:103A00000E944A1780E060E040E00E94841880E055
:103A100061E041E00E94841880E062E040E00E94A2
:103A2000841880E063E041E00E9484180F900F90BA
:103A3000CF91DF910895DF93CF9300D0CDB7DEB75C
:103A400089836A838981282F30E081E0B9010E944F
:103A50004A178A81282F30E082E0B9010E944A1774
:103A600080E060E041E00E94841880E061E040E096
:103A70000E94841880E062E041E00E94841880E0A7
:103A800063E040E00E9484180F900F90CF91DF9187
:103A90000895DF93CF9300D0CDB7DEB789836A83D3
:103AA0008981282F30E081E0B9010E944A178A817C
:103AB000282F30E082E0B9010E944A1780E060E0E0
:103AC00041E00E94841880E061E040E00E94841898
:103AD00080E062E041E00E94841880E063E040E022
:103AE0000E9484180F900F90CF91DF910895DF937B
:103AF000CF9300D0CDB7DEB789836A838981282F21
:103B000030E081E0B9010E944A178A81282F30E015
:103B100082E0B9010E944A1780E060E040E00E9424
:103B2000841880E061E040E00E94841880E062E058
:103B300040E00E94841880E063E040E00E94841826
:103B40000F900F90CF91DF910895DF93CF93CDB772
:103B5000DEB780917D0290917E02019690937E0265
:103B600080937D0280917D0290917E02883C910538
:103B700061F4A2E3B0E0E2E3F0E0808180688C933E
:103B800010927E0210927D0212C020917D0230912F
:103B90007E0280917F02909180022817390739F4C4
:103BA000A2E3B0E0E2E3F0E080818F778C93CF91E5
:103BB000DF910895DF93CF93CDB7DEB783E067E061
:103BC00041E00E94F21725EA3DE184E690E0B90168
:103BD0000E947812CF91DF910895DF93CF9300D0A8
:103BE0000F92CDB7DEB789838981282F30E03B83E0
:103BF0002A838A819B818A35910581F02A813B81C4
:103C0000243B310591F08A819B810097A1F48FE0DC
:103C100090E09093800280937F020DC084E190E059
:103C20009093800280937F0206C08AE090E0909398
:103C3000800280937F020F900F900F90CF91DF91C1
:103C40000895DF93CF93CDB7DEB7A1E3B0E0E1E312
:103C5000F0E0808180648C93A1E3B0E0E1E3F0E0E8
:103C60008081877F8C93A2E3B0E0E2E3F0E0808183
:103C700088608C930E94461E80E062E040E00E94D3
:103C8000A60F0E945411CF91DF910895DF93CF9337
:103C9000CDB7DEB7A5E5B0E0E5E5F0E08081846072
:103CA0008C93ABE5B0E0EBE5F0E0808180688C932D
:103CB000CF91DF910895DF93CF93CDB7DEB76897AB
:103CC0000FB6F894DEBF0FBECDBF8091810288236E
:103CD00009F0CFC0A2E3B0E0E2E3F0E080818064CD
:103CE0008C9380E090E0A0E2B1E48D8B9E8BAF8B53
:103CF000B88F6D897E898F89988D2BEA3AEA4AE2DE
:103D000050E40E941F02DC01CB01898B9A8BAB8BA4
:103D1000BC8B69897A898B899C8920E030E040E8F6
:103D20005FE30E94250488231CF481E0888B91C006
:103D300069897A898B899C8920E030E04FE753E4D8
:103D40000E94C50318160CF07BC06D897E898F898F
:103D5000988D20E030E04AE754E40E941903DC012A
:103D6000CB018C879D87AE87BF876C857D858E85CF
:103D70009F8520E030E04AEF54E40E941F02DC01FE
:103D8000CB0188879987AA87BB87688579858A85CB
:103D90009B8520E030E040E85FE30E942504882313
:103DA0002CF481E090E09F838E833FC06885798505
:103DB0008A859B8520E03FEF4FE757E40E94C503CB
:103DC00018164CF56C857D858E859F8520E030E04A
:103DD00040E251E40E941F02DC01CB01BC01CD0195
:103DE0000E944900DC01CB019F838E830FC088ECC9
:103DF00090E09D838C838C819D810197F1F79D8359
:103E00008C838E819F8101979F838E838E819F817A
:103E1000009769F724C0688579858A859B850E940B
:103E20004900DC01CB019F838E838E819F819B8320
:103E30008A838A819B810197F1F79B838A830FC0D4
:103E400069897A898B899C890E944900DC01CB01B0
:103E5000888B8889898389818A95F1F78983A2E390
:103E6000B0E0E2E3F0E080818F7B8C9381E080938F
:103E7000810268960FB6F894DEBF0FBECDBFCF911A
:103E8000DF9108951F920F920FB60F9211242F9376
:103E90003F934F935F936F937F938F939F93AF93D2
:103EA000BF93EF93FF93DF93CF93CDB7DEB78091AE
:103EB0008102813009F054C080918202882379F414
:103EC000E2E5F0E0108281E08093820210928302AA
:103ED00010928402109285021092860241C0809155
:103EE000830290918402A0918502B09186022227DC
:103EF000382F492F5A2FE2E5F0E08081882F90E09B
:103F0000A0E0B0E0820F931FA41FB51FBC01CD013C
:103F10000E94A904DC01CB01BC01CD012DEC3CECDD
:103F200048E652E40E941903DC01CB01BC01CD013B
:103F30000E944900DC01CB018093E6029093E702E6
:103F4000A093E802B093E9021092830210928402D7
:103F500010928502109286021092820210928102C3
:103F6000CF91DF91FF91EF91BF91AF919F918F9191
:103F70007F916F915F914F913F912F910F900FBE65
:103F80000F901F9018951F920F920FB60F92112449
:103F90008F939F93AF93BF93DF93CF93CDB7DEB74C
:103FA0008091830290918402A0918502B091860253
:103FB0000196A11DB11D8093830290938402A0936A
:103FC0008502B0938602CF91DF91BF91AF919F910F
:103FD0008F910F900FBE0F901F901895DF93CF9386
:103FE00000D00F92CDB7DEB79B838A8319820EC0B3
:103FF0008981282F30E08A819B81FC01E20FF31F29
:1040000080810E94460889818F5F89838981282F5A
:1040100030E08A819B81FC01E20FF31F80818823BD
:1040200039F70F900F900F90CF91DF910895DF93A4
:10403000CF9300D0CDB7DEB79A83898389819A81E7
:1040400090938C0280938B02E981FA8180810E9497
:10405000460884E390E20E94B6070E9488070F900A
:104060000F90CF91DF910895DF93CF93CDB7DEB757
:1040700020918B0230918C028091FA01882F90E080
:10408000F901E80FF91F80818823A1F020918B02AC
:1040900030918C028091FA01882F90E0F901E80FAD
:1040A000F91F80810E942E088091FA018F5F809312
:1040B000FA0105C081E08093FA010E949607CF9132
:1040C000DF910895DF93CF9300D0CDB7DEB79A8309
:1040D00089838AE990E20E94B6070E94880780914E
:1040E000F901882311F180918702282F30E089811E
:1040F0009A81FC01E20FF31F80818823A1F0809157
:104100008702282F30E089819A81FC01E20FF31F9A
:1041100080810E942E08809187028F5F80938702A2
:104120001092F90102C0109287020F900F90CF9168
:10413000DF910895DF93CF93CDB7DEB781E0809311
:10414000F901CF91DF9108950F931F93DF93CF93E0
:1041500000D00F92CDB7DEB79B838A831982898105
:10416000282F30E08A819B818C01020F131F0E944F
:104170006008F80180830FC089818F5F89838981FE
:10418000282F30E08A819B818C01020F131F0E942F
:104190006008F80180838981282F30E08A819B8123
:1041A000FC01E20FF31F80818D3031F78981282FC8
:1041B00030E08A819B81FC01E20FF31F10820F9097
:1041C0000F900F90CF91DF911F910F910895DF9382
:1041D000CF9300D0CDB7DEB79A83898389819A8146
:1041E00090938E0280938D020E946C078FEF90E275
:1041F0000E94A4070F900F90CF91DF9108950F9325
:104200001F93DF93CF93CDB7DEB720918D0230910E
:104210008E0280918802909189028901080F191FEE
:104220000E943C08F801808380918A028F5F80930E
:104230008A02E0918802F091890220E130E0CF010A
:10424000B9010E94A3249093890280938802CF0130
:1042500001969093890280938802CF91DF911F91FC
:104260000F910895DF93CF9300D000D000D0CDB749
:10427000DEB79E838D831C821B821A82198214C032
:104280008B81282F30E08D819E81FC01E20FF31F8E
:104290008081282F30E089819A81820F931F9A8331
:1042A00089838B818F5F8B838B81282F30E08D8179
:1042B0009E81FC01E20FF31F8081882309F78B8127
:1042C0000E9446081C820EC08C81282F30E08D8110
:1042D0009E81FC01E20FF31F80810E9446088C81C1
:1042E0008F5F8C839C818B81981770F389810E94EA
:1042F000460889819A81892F99270E944608269627
:104300000FB6F894DEBF0FBECDBFCF91DF910895F9
:104310000F931F93DF93CF93CDB7DEB72B970FB6D5
:10432000F894DEBF0FBECDBF9A87898718861F829B
:104330001E821D821C821B821A8219820E946008C2
:104340008F83188620C08885282F30E089859A853C
:104350008C01020F131F0E946008F801808388857A
:10436000282F30E089859A85FC01E20FF31F8081B8
:10437000282F30E089819A81820F931F9A83898345
:1043800088858F5F888798858F819817E0F20E94D3
:1043900060088E830E9460088D838E81282F30E014
:1043A0008D81882F90E0982F8827822B932B9C83D8
:1043B0008B8329813A818B819C812817390719F4D5
:1043C000F1E0FB8701C01B868B852B960FB6F89416
:1043D000DEBF0FBECDBFCF91DF911F910F9108952A
:1043E000DF93CF9300D000D000D0CDB7DEB71B82D3
:1043F0001C821D821E8280918F0290919002A0915A
:104400009102B09192020196A11DB11D80938F027D
:1044100090939002A0939102B093920280918F02A8
:1044200090919002A0919102B0919202883E23E077
:10443000920720E0A20720E0B20759F50E94C00BC6
:104440009A83898380919302882F90E09C01220FA8
:10445000331FCE010196820F931FFC013296898192
:104460009A8191838083809193028F5F80939302DE
:10447000809193029FE1692F0E948324892F80936A
:10448000930210928F021092900210929102109259
:10449000920226960FB6F894DEBF0FBECDBFCF9125
:1044A000DF9108950F931F93DF93CF93CDB7DEB7BE
:1044B0008091DF02082F10E00E943C08F801EC52C6
:1044C000FD4F80838091DF028F5F8093DF028091B8
:1044D000DF029AE0692F0E948324892F8093DF02F4
:1044E000CF91DF911F910F910895DF93CF93CDB7B7
:1044F000DEB763970FB6F894DEBF0FBECDBF8FE077
:10450000FE013596DF01982F1D929A95E9F71982E1
:104510001A821B821C8278940E948D1C0E941707AD
:104520000E946C0782E592E20E94A4078091DF025C
:104530008823E1F30E949F221092DF02F7CFDF93DE
:10454000CF93CDB7DEB76C970FB6F894DEBF0FBE32
:10455000CDBF8091D402863421F08091D40286367A
:1045600079F48CED6CED0E94BF1C8DE00E94460832
:1045700080E690E00E94EE1F8DE00E94460851C147
:104580008091D402823421F08091D402823679F471
:104590008CED62E00E94ED1C8DE00E9446088CE6E6
:1045A00090E00E94EE1F8DE00E9446083AC1809183
:1045B000D402823529F08091D402823709F085C077
:1045C0008CED68EC0E94BF1C80E090E0AAEFB3E4A1
:1045D000898F9A8FAB8FBC8F698D7A8D8B8D9C8DD7
:1045E00020E030E04AEF54E40E941F02DC01CB01DE
:1045F0008D8B9E8BAF8BB88F6D897E898F89988DBF
:1046000020E030E040E85FE30E94250488232CF49A
:1046100081E090E09C8B8B8B3FC06D897E898F8978
:10462000988D20E03FEF4FE757E40E94C50318162E
:104630004CF5698D7A8D8B8D9C8D20E030E040E2C9
:1046400051E40E941F02DC01CB01BC01CD010E949C
:104650004900DC01CB019C8B8B8B0FC088EC90E078
:104660009A8B898B89899A890197F1F79A8B898B23
:104670008B899C8901979C8B8B8B8B899C8900975C
:1046800069F714C06D897E898F89988D0E944900D1
:10469000DC01CB019C8B8B8B8B899C89988B8F87C2
:1046A0008F8598890197F1F7988B8F878AEA66EE54
:1046B0000E94491D8DE00E94460889E790E00E9413
:1046C000EE1F8DE00E944608ACC08091D4028C346D
:1046D00029F08091D4028C3609F085C08CED68EC0D
:1046E0000E94BF1C80E090E0AAEFB3E48B879C8718
:1046F000AD87BE876B857C858D859E8520E030E00B
:104700004AEF54E40E941F02DC01CB018F8398879B
:10471000A987BA876F81788589859A8520E030E0FE
:1047200040E85FE30E94250488232CF481E090E0B8
:104730009E838D833FC06F81788589859A8520E02F
:104740003FEF4FE757E40E94C50318164CF56B8501
:104750007C858D859E8520E030E040E251E40E941A
:104760001F02DC01CB01BC01CD010E944900DC012C
:10477000CB019E838D830FC088EC90E09C838B835C
:104780008B819C810197F1F79C838B838D819E8126
:1047900001979E838D838D819E81009769F714C058
:1047A0006F81788589859A850E944900DC01CB015B
:1047B0009E838D838D819E819A83898389819A814D
:1047C0000197F1F79A83898386EE6AEA0E941B1D9E
:1047D0008DE00E94460883E890E00E94EE1F8DE085
:1047E0000E9446081EC08091D402833521F080913A
:1047F000D402833779F480E060E00E94771D8DE079
:104800000E9446088CE890E00E94EE1F8DE00E9416
:10481000460807C085E990E00E94EE1F8DE00E94E7
:1048200046086C960FB6F894DEBF0FBECDBFCF9191
:10483000DF910895DF93CF93CDB7DEB78091D40297
:10484000803321F08091D4028A3771F480E00E9495
:10485000ED1D8DE00E9446088EEB90E00E94EE1F59
:104860008DE00E9446082BC08091D402893321F04C
:104870008091D4028E3671F48AE50E94ED1D8DE0A0
:104880000E94460886EC90E00E94EE1F8DE00E9498
:10489000460815C08091D402883321F08091D4025B
:1048A000853669F484EB0E94ED1D8DE00E94460878
:1048B0008FEC90E00E94EE1F8DE00E94460810925F
:1048C000DF02CF91DF910895629FD001739FF001C5
:1048D000829FE00DF11D649FE00DF11D929FF00D90
:1048E000839FF00D749FF00D659FF00D9927729FC7
:1048F000B00DE11DF91F639FB00DE11DF91FBD0152
:10490000CF0111240895991B79E004C0991F9617CF
:1049100008F0961B881F7A95C9F780950895AA1B01
:10492000BB1B51E107C0AA1FBB1FA617B70710F09A
:10493000A61BB70B881F991F5A95A9F780959095CC
:10494000BC01CD01089597FB092E07260AD077FDFB
:1049500004D0E5DF06D000201AF4709561957F4FF2
:104960000895F6F7909581959F4F0895A1E21A2E2C
:10497000AA1BBB1BFD010DC0AA1FBB1FEE1FFF1F03
:10498000A217B307E407F50720F0A21BB30BE40B53
:10499000F50B661F771F881F991F1A9469F760959A
:1049A0007095809590959B01AC01BD01CF01089554
:1049B0002F923F924F925F926F927F928F929F922F
:1049C000AF92BF92CF92DF92EF92FF920F931F931D
:1049D000CF93DF93CDB7DEB7CA1BDB0B0FB6F894CE
:1049E000DEBF0FBECDBF09942A88398848885F840E
:1049F0006E847D848C849B84AA84B984C884DF807F
:104A0000EE80FD800C811B81AA81B981CE0FD11D62
:104A10000FB6F894DEBF0FBECDBFED010895F89438
:024A2000FFCFC6
:104A2200466F7277617264204E6F77004261636BEA
:104A320077617264204E6F77005269676874204E06
:104A42006F77004C656674204E6F770053746F70F9
:104A5200204E6F7700506C6561736520656E7465DA
:104A6200722056616C696420436861726163746587
:104A720072207B662D622D722D6C2D737D00536525
:104A820072766F203000536572766F203930005392
:104A92006572766F2031383000000000000000009F
:104AA20000000102020303030304040404040404D7
:104AB20004050505050505050505050505050505A5
:104AC2000506060606060606060606060606060685
:104AD2000606060606060606060606060606060674
:104AE2000607070707070707070707070707070755
:104AF2000707070707070707070707070707070744
:104B02000707070707070707070707070707070733
:104B12000707070707070707070707070707070723
:104B22000708080808080808080808080808080804
:104B320008080808080808080808080808080808F3
:104B420008080808080808080808080808080808E3
:104B520008080808080808080808080808080808D3
:104B620008080808080808080808080808080808C3
:104B720008080808080808080808080808080808B3
:104B820008080808080808080808080808080808A3
:104B92000808080808080808080808080808080893
:104BA200083A003700340031003B0038003500324B
:104BB200003900360033003000010119000C0006F4
:104BC2000003000200010067003300190010000C0E
:104BD200000800CF0067003300220019001000A077
:104BE20001CF006700440033002200CF006700338A
:104BF20000220019001000A001CF0067004400331A
:104C02000022004003A001CF008A00670044000098
:0C4C120000000000000000000000000096
:00000001FF
