:100000000C942A000C9401140C9447000C942E14A8
:100010000C94510D0C941E0D0C941D0E0C94B70DE8
:100020000C94EA0D0C94840D0C94EB0C0C9447008A
:100030000C9447000C9454060C9447000C948706CB
:100040000C9447000C9447000C9447000C94470014
:100050000C94470011241FBECFE5D8E0DEBFCDBF12
:1000600011E0A0E6B0E0EAE9FDE502C005900D92DE
:10007000A433B107D9F711E0A4E3B1E001C01D92A8
:10008000AB39B107E1F70E9467210C94CB2E0C9499
:100090000000EF92FF920F931F937B018C0120E0F1
:1000A00030E040E05FE40E94490388238CF0C801FF
:1000B000B70120E030E040E05FE40E94C1010E940F
:1000C000A9039B01AC01205030404040504806C07D
:1000D000C801B7010E94A9039B01AC01B901CA0183
:1000E0001F910F91FF90EF900895A0E0B0E0EBE733
:1000F000F0E00C946A2EDC012B01FA019C91923005
:1001000008F439C1EB018881823008F433C194309E
:1001100069F4843009F02FC111969C91119789815F
:10012000981709F428C1A1EBB0E025C1843009F487
:1001300021C18230A9F4923009F01DC19A01AD01AC
:1001400088E0EA010990AE01E90109929E0181501F
:10015000C1F7E201898111969C918923818308C1AD
:10016000923009F407C112962D903C901397EB0141
:100170008A819B811496AD90BD90CD90DC901797AD
:10018000EC80FD800E811F819101281B390BB90184
:1001900037FF04C066277727621B730B6032710537
:1001A0000CF061C0121613066CF537014801062EDB
:1001B00004C096948794779467940A94D2F721E0C8
:1001C00030E040E050E004C0220F331F441F551FB1
:1001D0006A95D2F721503040404050402E213F21B7
:1001E00040235123211531054105510521F021E01E
:1001F00030E040E050E079018A01E628F72808293C
:1002000019293CC0232BD1F1260E371E350146019A
:10021000062E04C096948794779467940A94D2F734
:1002200021E030E040E050E004C0220F331F441FC3
:10023000551F6A95D2F721503040404050402A2146
:100240003B214C215D21211531054105510521F04E
:1002500021E030E040E050E059016A01A628B728CB
:10026000C828D9280BC0821593052CF01C01AA249C
:10027000BB24650103C0EE24FF24870111969C91E5
:10028000D20111968C91981709F445C0992339F041
:10029000A80197012A193B094C095D0906C0A6016E
:1002A00095012E193F09400B510B57FD08C01182D3
:1002B0003382228224833583468357831DC081E0A5
:1002C00081833382228288279927DC01821B930B4A
:1002D000A40BB50B84839583A683B7830DC0220F2F
:1002E000331F441F551F24833583468357838281E0
:1002F000938101979383828324813581468157813D
:10030000DA01C9010197A109B1098F5F9F4FAF4F72
:10031000BF4328F30BC0918333822282EA0CFB1C7B
:100320000C1D1D1DE482F5820683178383E0808304
:10033000248135814681578157FF1AC0C901AA27F8
:1003400097FDA095BA2F81709070A070B0705695EF
:10035000479537952795822B932BA42BB52B848318
:100360009583A683B7838281938101969383828349
:10037000DF0101C0D201CD01CDB7DEB7E2E10C94BF
:10038000862EA0E2B0E0E7ECF1E00C94762E6983D3
:100390007A838B839C832D833E834F835887E9E048
:1003A000EE2EF12CEC0EFD1ECE010196B7010E943F
:1003B000D2048E010F5E1F4FCE010596B8010E9438
:1003C000D2048A8991E089278A8BC701B801AE01DE
:1003D000475E5F4F0E9475000E94FD03A096E6E015
:1003E0000C94922EA0E2B0E0E8EFF1E00C94762EAF
:1003F00069837A838B839C832D833E834F835887C5
:10040000F9E0EF2EF12CEC0EFD1ECE010196B701A6
:100410000E94D2048E010F5E1F4FCE010596B801D7
:100420000E94D204C701B801AE01475E5F4F0E942F
:1004300075000E94FD03A096E6E00C94922EA0E2C7
:10044000B0E0E5E2F2E00C946A2E69837A838B8354
:100450009C832D833E834F835887CE010196BE0136
:10046000675F7F4F0E94D204CE010596BE016F5E8A
:100470007F4F0E94D2049985923088F0898982301A
:10048000C8F0943019F4823051F404C0843029F457
:10049000923081F481EB90E0C6C0923049F420E0C4
:1004A0009A858A89981321E02A87CE010996BBC0D4
:1004B000823049F420E09A858A89981321E02A8BBA
:1004C000CE014196B0C02D843E844F8458886D88FB
:1004D0007E888F88988CEE24FF248701AA24BB2471
:1004E000650140E050E060E070E0E0E0F0E0C10174
:1004F00081709070892BE9F0E60CF71C081D191D1E
:100500009A01AB012A0D3B1D4C1D5D1D80E090E062
:10051000A0E0B0E0E614F7040805190520F481E036
:1005200090E0A0E0B0E0BA01A901480F591F6A1F8E
:100530007B1FAA0CBB1CCC1CDD1C97FE08C081E0F5
:1005400090E0A0E0B0E0A82AB92ACA2ADB2A3196B6
:10055000E032F10549F0660C771C881C991C569412
:10056000479437942794C3CFFA85EA892B893C892D
:100570008B859C85280F391F2E5F3F4F17C0CA01FE
:1005800081709070892B61F016950795F794E79428
:1005900080E090E0A0E0B0E8E82AF92A0A2B1B2BC3
:1005A00076956795579547952F5F3F4F77FDE7CF36
:1005B0000CC0440F551F661F771F17FD4160EE0CDE
:1005C000FF1C001F111F21503040403090E05907A0
:1005D00090E0690790E4790760F32B8F3C8FDB0193
:1005E000CA018F779070A070B07080349105A1051A
:1005F000B10561F447FD0AC0E114F10401051105DC
:1006000029F0405C5F4F6F4F7F4F40781A8EFE1786
:1006100011F081E08A8F4D8F5E8F6F8F78A383E01A
:10062000898FCE0149960E94FD03A096E2E10C94C9
:10063000862EA8E1B0E0EFE1F3E00C94762E69831A
:100640007A838B839C832D833E834F83588789E0F5
:10065000E82EF12CEC0EFD1ECE010196B7010E9492
:10066000D2048E010F5E1F4FCE010596B8010E9485
:10067000D2048985823040F08989823028F0C70110
:10068000B8010E944A0501C08FEF6896E6E00C941D
:10069000922EA8E1B0E0EFE4F3E00C94762E6983AB
:1006A0007A838B839C832D833E834F83588789E095
:1006B000E82EF12CEC0EFD1ECE010196B7010E9432
:1006C000D2048E010F5E1F4FCE010596B8010E9425
:1006D000D2048985823040F08989823028F0C701B0
:1006E000B8010E944A0501C08FEF6896E6E00C94BD
:1006F000922EA8E1B0E0EFE7F3E00C94762E698348
:100700007A838B839C832D833E834F83588789E034
:10071000E82EF12CEC0EFD1ECE010196B7010E94D1
:10072000D2048E010F5E1F4FCE010596B8010E94C4
:10073000D2048985823040F08989823028F0C7014F
:10074000B8010E944A0501C081E06896E6E00C9479
:10075000922EACE0B0E0EFEAF3E00C947A2E6983DD
:100760007A838B839C83CE010196BE016B5F7F4FA2
:100770000E94D2048D81823061F1823050F1843048
:1007800021F48E81882351F12EC02F81388537FDC9
:1007900020C06E812F3131051CF06623F9F023C093
:1007A0008EE190E0821B930B29853A854B855C8511
:1007B00004C056954795379527958A95D2F76623B5
:1007C000B1F050954095309521953F4F4F4F5F4F79
:1007D0000EC020E030E040E050E009C02FEF3FEFD6
:1007E0004FEF5FE704C020E030E040E050E8B9019F
:1007F000CA012C96E2E00C94962EDF92EF92FF92C3
:100800000F931F93FC01E480F58006811781D1804E
:100810008081823048F480E090E0A0E1B0E0E82AF6
:10082000F92A0A2B1B2BA5C0843009F49FC0823003
:1008300021F4EE24FF24870105C0E114F104010531
:10084000110519F4E0E0F0E096C0628173819FEF3A
:10085000623879070CF05BC022E83FEF261B370BAC
:100860002A3131052CF020E030E040E050E02AC091
:10087000B801A701022E04C0769567955795479554
:100880000A94D2F781E090E0A0E0B0E004C0880FC5
:10089000991FAA1FBB1F2A95D2F70197A109B10979
:1008A0008E219F21A023B1230097A105B10521F03E
:1008B00081E090E0A0E0B0E09A01AB01282B392B59
:1008C0004A2B5B2BDA01C9018F779070A070B07052
:1008D00080349105A105B10539F427FF09C0205CDA
:1008E0003F4F4F4F5F4F04C0215C3F4F4F4F5F4F13
:1008F000E0E0F0E02030A0E03A07A0E04A07A0E402
:100900005A0710F0E1E0F0E079018A0127C0603871
:10091000710564F5FB01E158FF4FD801C7018F77DE
:100920009070A070B07080349105A105B10539F4C4
:10093000E7FE0DC080E490E0A0E0B0E004C08FE3EB
:1009400090E0A0E0B0E0E80EF91E0A1F1B1F17FFA1
:1009500005C016950795F794E794319687E01695AC
:100960000795F794E7948A95D1F705C0EE24FF2404
:100970008701EFEFF0E06E2F679566276795902F60
:100980009F77D794DD24D7948E2F8695492F462BB9
:10099000582F5D29B701CA011F910F91FF90EF9069
:1009A000DF900895FC01DB01408151812281622F9B
:1009B0006F7770E0221F2227221F9381892F880FD3
:1009C000822B282F30E0991F9927991F11969C930D
:1009D000119721153105A9F54115510561057105DD
:1009E00011F482E037C082E89FEF13969C938E93B8
:1009F00012979A01AB0167E0220F331F441F551F66
:100A00006A95D1F783E08C930DC0220F331F441FEA
:100A1000551F12968D919C911397019713969C9355
:100A20008E931297203080E0380780E0480780E4FA
:100A3000580758F314962D933D934D935C93179755
:100A400008952F3F310579F4411551056105710570
:100A500019F484E08C93089564FF03C081E08C93C3
:100A600012C01C9210C02F57304013963C932E9307
:100A7000129783E08C9387E0440F551F661F771F02
:100A80008A95D1F7706414964D935D936D937C9322
:100A9000179708951F93DC01FB019C91923008F495
:100AA00047C08081823008F443C0943051F41196DD
:100AB0001C91843099F58181682F70E0611B710968
:100AC0003FC0843021F0923031F48230B9F181811D
:100AD000882389F12DC011961C9111978230F1F075
:100AE00081811817D9F412962D913C911397828128
:100AF00093818217930794F028173907BCF0149656
:100B00008D919D910D90BC91A02D248135814681C0
:100B10005781281739074A075B0718F4112341F05A
:100B20000AC082179307A407B50740F4112319F0F0
:100B300061E070E005C06FEF7FEF02C060E070E041
:100B4000CB011F910895DF93CF9300D00F92CDB7C3
:100B5000DEB71B821A821982ABE2B0E0EBE2F0E072
:100B600080818D7F8C938B8180688B838B818F7B41
:100B70008B838B818F7E8B838B818F7D8B838B810E
:100B800082608B838B8184608B83AAE2B0E0EAE28F
:100B9000F0E080818B7F8C938B81877F8B83E0E477
:100BA000F0E08B8180838091EF009091F0009A8338
:100BB0008983E0E4F0E089819A81892F99278083F5
:100BC000E9E2F0E089818083AAE2B0E0EAE2F0E0C5
:100BD000808180618C93AAE2B0E0EAE2F0E080815B
:100BE00088608C930F900F900F90CF91DF910895B4
:100BF000DF93CF93CDB7DEB7AAE2B0E0EAE2F0E050
:100C0000808180688C93CF91DF910895DF93CF939B
:100C1000CDB7DEB7AAE2B0E0EAE2F0E080818F77FC
:100C20008C93CF91DF910895DF93CF93CDB7DEB74B
:100C3000AAE2B0E0EAE2F0E0808180648C93CF9198
:100C4000DF910895DF93CF93CDB7DEB7AAE2B0E08E
:100C5000EAE2F0E080818F7B8C93CF91DF91089561
:100C6000DF93CF9300D0CDB7DEB79A838983898194
:100C70009A8190933501809334010F900F90CF911A
:100C8000DF910895DF93CF9300D0CDB7DEB79A837D
:100C9000898389819A8190933701809336010F90DF
:100CA0000F90CF91DF9108951F920F920FB60F9280
:100CB00011242F933F934F935F936F937F938F9361
:100CC0009F93AF93BF93EF93FF93DF93CF93CDB7F2
:100CD000DEB78091340190913501009729F0E091C1
:100CE0003401F09135010995CF91DF91FF91EF919A
:100CF000BF91AF919F918F917F916F915F914F9134
:100D00003F912F910F900FBE0F901F9018951F923B
:100D10000F920FB60F9211242F933F934F935F932F
:100D20006F937F938F939F93AF93BF93EF93FF93B3
:100D3000DF93CF93CDB7DEB7809136019091370125
:100D4000009729F0E0913601F09137010995CF9194
:100D5000DF91FF91EF91BF91AF919F918F917F9123
:100D60006F915F914F913F912F910F900FBE0F9018
:100D70001F901895DF93CF930F92CDB7DEB789837D
:100D8000ECE2F0E0898180830F90CF91DF910895AC
:100D9000DF93CF93CDB7DEB7ECE2F0E08081CF9167
:100DA000DF910895DF93CF930F92CDB7DEB789839C
:100DB000EBE2F0E08081829586958770882F90E045
:100DC000817090700097A1F3ECE2F0E0898180835C
:100DD0000F90CF91DF910895DF93CF93CDB7DEB71A
:100DE000EBE2F0E080818823DCF7ECE2F0E0808148
:100DF000CF91DF910895DF93CF9300D00F92CDB7BD
:100E0000DEB79B838A831982EBE2F0E0808188233E
:100E10004CF4ECE2F0E08081EA81FB81808381E0A8
:100E2000898301C0198289810F900F900F90CF9113
:100E3000DF910895DF93CF93CDB7DEB727970FB635
:100E4000F894DEBF0FBECDBF89836A834B8389814F
:100E5000282F30E03F832E838E819F818130910542
:100E600021F12E813F81223031052CF48E819F812A
:100E7000009761F046C02E813F812230310521F17B
:100E80008E819F818330910571F13BC0A3E5B0E075
:100E9000E3E5F0E080818F7B8C93A3E5B0E0E3E5B0
:100EA000F0E08081877F8C932CC0A3E5B0E0E3E580
:100EB000F0E0808180648C93A3E5B0E0E3E5F0E0AE
:100EC0008081877F8C931DC0A3E5B0E0E3E5F0E06F
:100ED00080818F7B8C93A3E5B0E0E3E5F0E0808137
:100EE00088608C930EC0A3E5B0E0E3E5F0E080817C
:100EF00080648C93A3E5B0E0E3E5F0E08081886056
:100F00008C93A3E5B0E0E3E5F0E08081982F987F33
:100F10008A81892B8C938A8180933A018B81282F37
:100F200030E03D832C838C819D818130910521F1BE
:100F30002C813D81223031052CF48C819D810097DC
:100F400061F046C02C813D812230310521F18C8138
:100F50009D818330910571F13BC0A3E5B0E0E3E5ED
:100F6000F0E080818F7E8C93A3E5B0E0E3E5F0E0D4
:100F700080818F7D8C932CC0A3E5B0E0E3E5F0E0A9
:100F8000808180618C93A3E5B0E0E3E5F0E08081AF
:100F90008F7D8C931DC0A3E5B0E0E3E5F0E0808198
:100FA0008F7E8C93A3E5B0E0E3E5F0E08081806282
:100FB0008C930EC0A3E5B0E0E3E5F0E080818061B2
:100FC0008C93A3E5B0E0E3E5F0E0808180628C9350
:100FD00027960FB6F894DEBF0FBECDBFCF91DF913D
:100FE0000895DF93CF93CDB7DEB727970FB6F89468
:100FF000DEBF0FBECDBF89836A834B838981282FD3
:1010000030E03F832E838E819F818130910521F1D5
:101010002E813F81223031052CF48E819F810097F3
:1010200061F046C02E813F812230310521F18E8151
:101030009F818330910571F13BC0A5E4B0E0E5E408
:10104000F0E080818F7B8C93A5E4B0E0E5E4F0E0F4
:101050008081877F8C932CC0A5E4B0E0E5E4F0E0CC
:10106000808180648C93A5E4B0E0E5E4F0E08081C9
:10107000877F8C931DC0A5E4B0E0E5E4F0E08081BB
:101080008F7B8C93A5E4B0E0E5E4F0E0808188609C
:101090008C930EC0A5E4B0E0E5E4F0E080818064CC
:1010A0008C93A5E4B0E0E5E4F0E0808188608C9367
:1010B000A5E4B0E0E5E4F0E08081982F987F8A8194
:1010C000892B8C938A8180933C018B81282F30E07F
:1010D0003D832C838C819D818130910521F12C8170
:1010E0003D81223031052CF48C819D81009761F087
:1010F00046C02C813D812230310521F18C819D81BA
:101100008330910571F13BC0A5E4B0E0E5E4F0E087
:1011100080818F7E8C93A5E4B0E0E5E4F0E08081EF
:101120008F7D8C932CC0A5E4B0E0E5E4F0E08081F5
:1011300080618C93A5E4B0E0E5E4F0E080818F7DF0
:101140008C931DC0A5E4B0E0E5E4F0E080818F7EE3
:101150008C93A5E4B0E0E5E4F0E0808180628C93BC
:101160000EC0A5E4B0E0E5E4F0E0808180618C93FE
:10117000A5E4B0E0E5E4F0E0808180628C932796FE
:101180000FB6F894DEBF0FBECDBFCF91DF910895AB
:10119000DF93CF93CDB7DEB7A9E5B0E0E9E5F0E0A6
:1011A000808181608C93CF91DF910895DF93CF93FD
:1011B000CDB7DEB7A9E5B0E0E9E5F0E080818E7F4C
:1011C0008C93CF91DF910895DF93CF93CDB7DEB7A6
:1011D000A9E5B0E0E9E5F0E0808182608C93CF91F1
:1011E000DF910895DF93CF93CDB7DEB7A9E5B0E0E7
:1011F000E9E5F0E080818D7F8C93CF91DF910895B8
:10120000DF93CF9300D0CDB7DEB79A8389838981EE
:101210009A8190933E0180933D010F900F90CF9162
:10122000DF910895DF93CF9300D0CDB7DEB79A83D7
:10123000898389819A819093400180933F010F9027
:101240000F90CF91DF910895DF93CF930F92CDB799
:10125000DEB78983E2E5F0E0898180830F90CF914A
:10126000DF910895DF93CF930F92CDB7DEB78983D7
:10127000ECE5F0E0898180830F90CF91DF910895B4
:10128000DF93CF93CDB7DEB7E2E5F0E08081CF9179
:10129000DF910895DF93CF93CDB7DEB7A3E5B0E03C
:1012A000E3E5F0E08081887F8C93CF91DF91089512
:1012B000DF93CF93CDB7DEB7A3E5B0E0E3E5F0E091
:1012C000908180913A01892B8C93CF91DF91089581
:1012D000DF93CF93CDB7DEB7A9E5B0E0E9E5F0E065
:1012E000808180688C93CF91DF910895DF93CF93B5
:1012F000CDB7DEB7A9E5B0E0E9E5F0E080818F7712
:101300008C93CF91DF910895DF93CF9300D0CDB729
:10131000DEB79A83898389819A8190934201809371
:1013200041010F900F90CF91DF910895DF93CF93FC
:1013300000D0CDB7DEB79A83898389819A81909353
:101340004401809343010F900F90CF91DF91089556
:10135000DF93CF930F92CDB7DEB78983E4E4F0E05B
:10136000898180830F90CF91DF910895DF93CF9390
:101370000F92CDB7DEB78983E3E4F0E08981808303
:101380000F90CF91DF910895DF93CF93CDB7DEB764
:10139000E4E4F0E08081CF91DF910895DF93CF9373
:1013A000CDB7DEB7A5E4B0E0E5E4F0E08081887F6A
:1013B0008C93CF91DF910895DF93CF93CDB7DEB7B4
:1013C000A5E4B0E0E5E4F0E0908180913C01892B58
:1013D0008C93CF91DF910895DF93CF9300D00F923C
:1013E000CDB7DEB789837B836A83E4E4F0E01082C3
:1013F00082E062E040E00E94F107E3E4F0E08981EE
:1014000080838A819B810E9496090E9468090F90BF
:101410000F900F90CF91DF910895DF93CF93CDB7C9
:10142000DEB72A970FB6F894DEBF0FBECDBF898313
:101430006A834B832C838981282F30E03A87298760
:1014400089859A858230910509F456C029853A85A7
:101450002330310554F489859A85009799F02985C0
:101460003A852130310559F19DC089859A858330AF
:10147000910509F45EC029853A852430310509F4C7
:1014800075C090C0AFE4B0E0EFE4F0E080818E7F03
:101490008C93AFE4B0E0EFE4F0E080818D7F8C933B
:1014A000AEE4B0E0EEE4F0E08081877F8C93AEE4C0
:1014B000B0E0EEE4F0E080818F7E8C9373C0AFE407
:1014C000B0E0EFE4F0E080818E7F8C93AFE4B0E099
:1014D000EFE4F0E080818D7F8C93AEE4B0E0EEE449
:1014E000F0E0808188608C93AEE4B0E0EEE4F0E060
:1014F000808180618C9356C0AFE4B0E0EFE4F0E00F
:1015000080818E7F8C93AFE4B0E0EFE4F0E08081E7
:101510008D7F8C93AEE4B0E0EEE4F0E080818860F3
:101520008C93AEE4B0E0EEE4F0E080818F7E8C93AB
:1015300039C0AFE4B0E0EFE4F0E080818E7F8C93BF
:10154000AFE4B0E0EFE4F0E0808182608C93AEE441
:10155000B0E0EEE4F0E0808188608C93AEE4B0E02F
:10156000EEE4F0E0808180618C931CC0AFE4B0E0D9
:10157000EFE4F0E0808181608C93AFE4B0E0EFE4D1
:10158000F0E0808182608C93AEE4B0E0EEE4F0E0C5
:10159000808188608C93AEE4B0E0EEE4F0E080817E
:1015A00080618C938B81282F30E038872F838F8147
:1015B00098858130910521F12F81388522303105C0
:1015C0002CF48F819885009761F046C02F81388573
:1015D0002230310521F18F8198858330910571F199
:1015E0003BC0AFE4B0E0EFE4F0E080818F7B8C9310
:1015F000AFE4B0E0EFE4F0E080818F778C932CC013
:10160000AFE4B0E0EFE4F0E0808180648C93AFE47D
:10161000B0E0EFE4F0E080818F778C931DC0AFE401
:10162000B0E0EFE4F0E080818F7B8C93AFE4B0E03A
:10163000EFE4F0E0808180688C930EC0AFE4B0E00E
:10164000EFE4F0E0808180648C93AFE4B0E0EFE4FD
:10165000F0E0808180688C938C81282F30E03E837D
:101660002D838D819E818130910521F12D813E81D7
:10167000223031052CF48D819E81009761F046C0A7
:101680002D813E812230310521F18D819E81833073
:10169000910571F13BC0AFE4B0E0EFE4F0E0808190
:1016A0008F7E8C93AFE4B0E0EFE4F0E080818F7D3B
:1016B0008C932CC0AFE4B0E0EFE4F0E08081806177
:1016C0008C93AFE4B0E0EFE4F0E080818F7D8C9309
:1016D0001DC0AFE4B0E0EFE4F0E080818F7E8C933A
:1016E000AFE4B0E0EFE4F0E0808180628C930EC064
:1016F000AFE4B0E0EFE4F0E0808180618C93AFE490
:10170000B0E0EFE4F0E0808180628C93AEE4B0E082
:10171000EEE4F0E08081887F8C93AEE4B0E0EEE40C
:10172000F0E090818A81892B8C938A8180933B01A0
:101730002A960FB6F894DEBF0FBECDBFCF91DF91D2
:101740000895DF93CF930F92CDB7DEB78983898158
:10175000882341F4AEE4B0E0EEE4F0E08081806400
:101760008C930AC08981813039F4AEE4B0E0EEE4B4
:10177000F0E080818F7B8C930F90CF91DF91089563
:10178000DF93CF9300D0CDB7DEB79A838983ECE4A3
:10179000F0E089819A81918380830F900F90CF919F
:1017A000DF910895DF93CF9300D0CDB7DEB79A8352
:1017B0008983EAE4F0E089819A81918380830F90A4
:1017C0000F90CF91DF910895DF93CF9300D0CDB7E5
:1017D000DEB79A838983E8E4F0E089819A81918376
:1017E00080830F900F90CF91DF910895DF93CF9377
:1017F00000D0CDB7DEB79A838983E6E4F0E0898133
:101800009A81918380830F900F90CF91DF910895FB
:10181000DF93CF93CDB7DEB7ECE4F0E08081918128
:10182000CF91DF910895DF93CF93CDB7DEB7AEE4CC
:10183000B0E0EEE4F0E08081887F8C93CF91DF917F
:101840000895DF93CF93CDB7DEB70E94130CAEE4BB
:10185000B0E0EEE4F0E0908180913B01892B8C9325
:10186000CF91DF910895DF93CF93CDB7DEB7A9E590
:10187000B0E0E9E5F0E0808180628C93CF91DF9168
:101880000895DF93CF93CDB7DEB7A9E5B0E0E9E5E2
:10189000F0E080818F7D8C93CF91DF910895DF936D
:1018A000CF93CDB7DEB7A9E5B0E0E9E5F0E0808100
:1018B00084608C93CF91DF910895DF93CF93CDB760
:1018C000DEB7A9E5B0E0E9E5F0E080818B7F8C939D
:1018D000CF91DF910895DF93CF93CDB7DEB7A9E520
:1018E000B0E0E9E5F0E0808180618C93CF91DF91F9
:1018F0000895DF93CF93CDB7DEB7A9E5B0E0E9E572
:10190000F0E080818F7E8C93CF91DF910895DF93FB
:10191000CF93CDB7DEB7A9E5B0E0E9E5F0E080818F
:1019200088608C93CF91DF910895DF93CF93CDB7EB
:10193000DEB7A9E5B0E0E9E5F0E08081877F8C9330
:10194000CF91DF910895DF93CF9300D0CDB7DEB76D
:101950009A83898389819A81909346018093450176
:101960000F900F90CF91DF910895DF93CF9300D028
:10197000CDB7DEB79A83898389819A819093480194
:10198000809347010F900F90CF91DF910895DF93DF
:10199000CF9300D0CDB7DEB79A83898389819A81AE
:1019A00090934A01809349010F900F90CF91DF915E
:1019B0000895DF93CF9300D0CDB7DEB79A838983A4
:1019C00089819A8190934C0180934B010F900F90E5
:1019D000CF91DF9108951F920F920FB60F921124AD
:1019E0002F933F934F935F936F937F938F939F9327
:1019F000AF93BF93EF93FF93DF93CF93CDB7DEB752
:101A000080913F0190914001009729F0E0913F01C2
:101A1000F09140010995CF91DF91FF91EF91BF9136
:101A2000AF919F918F917F916F915F914F913F9176
:101A30002F910F900FBE0F901F9018951F920F922D
:101A40000FB60F9211242F933F934F935F936F9391
:101A50007F938F939F93AF93BF93EF93FF93DF9306
:101A6000CF93CDB7DEB780914101909142010097AD
:101A700029F0E0914101F09142010995CF91DF9168
:101A8000FF91EF91BF91AF919F918F917F916F9156
:101A90005F914F913F912F910F900FBE0F901F902C
:101AA00018951F920F920FB60F9211242F933F9308
:101AB0004F935F936F937F938F939F93AF93BF9356
:101AC000EF93FF93DF93CF93CDB7DEB780914301C0
:101AD00090914401009729F0E0914301F091440175
:101AE0000995CF91DF91FF91EF91BF91AF919F91B8
:101AF0008F917F916F915F914F913F912F910F90B7
:101B00000FBE0F901F9018951F920F920FB60F9255
:101B100011242F933F934F935F936F937F938F93F2
:101B20009F93AF93BF93EF93FF93DF93CF93CDB783
:101B3000DEB78091450190914601009729F0E09130
:101B40004501F09146010995CF91DF91FF91EF9109
:101B5000BF91AF919F918F917F916F915F914F91C5
:101B60003F912F910F900FBE0F901F9018951F92CD
:101B70000F920FB60F9211242F933F934F935F93C1
:101B80006F937F938F939F93AF93BF93EF93FF9345
:101B9000DF93CF93CDB7DEB7809147019091480195
:101BA000009729F0E0914701F09148010995CF9104
:101BB000DF91FF91EF91BF91AF919F918F917F91B5
:101BC0006F915F914F913F912F910F900FBE0F90AA
:101BD0001F9018951F920F920FB60F9211242F93FA
:101BE0003F934F935F936F937F938F939F93AF93A5
:101BF000BF93EF93FF93DF93CF93CDB7DEB7809181
:101C0000490190914A01009729F0E0914901F09132
:101C10004A010995CF91DF91FF91EF91BF91AF916B
:101C20009F918F917F916F915F914F913F912F91F4
:101C30000F900FBE0F901F9018951F920F920FB626
:101C40000F9211242F933F934F935F936F937F9342
:101C50008F939F93AF93BF93EF93FF93DF93CF93B4
:101C6000CDB7DEB780914B0190914C01009729F0E0
:101C7000E0914B01F0914C010995CF91DF91FF91DB
:101C8000EF91BF91AF919F918F917F916F915F91F4
:101C90004F913F912F910F900FBE0F901F9018956D
:101CA000DF93CF93CDB7DEB783E062E042E020E080
:101CB0000E940D0ACF91DF910895DF93CF9300D05A
:101CC00000D0CDB7DEB79C838B838B819C8100973E
:101CD000D1F488EE93E02B813C81B9010E94212E42
:101CE000CB019A83898389819A81009741F0E6E448
:101CF000F0E089819A8101979183808304C0E6E4B2
:101D0000F0E0118210820F900F900F900F90CF9102
:101D1000DF910895DF93CF9300D000D0CDB7DEB729
:101D20009C838B838B819C81009709F58B819C819F
:101D30009C0140E050E080E492E4AFE0B0E0BC0100
:101D4000CD010E94482EDA01C9019A8389838981D5
:101D50009A81009741F0E6E4F0E089819A81019749
:101D60009183808304C0E6E4F0E0118210820F903A
:101D70000F900F900F90CF91DF910895DF93CF9345
:101D800000D000D00F92CDB7DEB789837B836A8302
:101D90008981282F30E03D832C838C819D81813087
:101DA000910539F12C813D81223031052CF48C8153
:101DB0009D81009769F063C02C813D8122303105FF
:101DC00099F18C819D818330910509F448C057C0F9
:101DD00080915001882329F483E062E042E00E9470
:101DE0001A07ECE5F0E08A81808381E0809350015E
:101DF00046C080914F01882331F483E062E042E0E5
:101E000022E00E940D0AE6E4F0E08FEF8083E7E431
:101E1000F0E01082E8E4F0E08A819B819183808386
:101E200081E080934F012BC080914E01882331F4D3
:101E300083E062E042E022E00E940D0AE6E4F0E086
:101E40008FEF8083E7E4F0E01082EAE4F0E08A813B
:101E50009B819183808381E080934E0110C08091AB
:101E60004D01882329F483E062E042E00E94F107FB
:101E7000E3E4F0E08A81808381E080934D010F905C
:101E80000F900F900F900F90CF91DF910895EF92E8
:101E9000FF920F931F93DF93CF9300D000D0CDB765
:101EA000DEB79C838B838B819C818536910580F581
:101EB0008B819C817C0100E010E0E6E4F0E0808111
:101EC000918101969C0140E050E0C801B7010E9459
:101ED000022EDC01CB0124E630E040E050E0BC0102
:101EE000CD010E94482EDA01C9019A838983898134
:101EF0009A818230910540F0EAE4F0E089819A818C
:101F000001979183808304C0EAE4F0E0118210829B
:101F10000F900F900F900F90CF91DF911F910F9125
:101F2000FF90EF900895DF93CF9300D000D000D0C2
:101F3000CDB7DEB769837A838B839C835E834D83C1
:101F400080E090E00E94C00B82E062E040E020E090
:101F50000E940D0AEAE4F0E089819A810197918359
:101F600080838D819E810E94B50C0E946B0C269609
:101F70000FB6F894DEBF0FBECDBFCF91DF910895AD
:101F8000DF93CF9300D000D0CDB7DEB78A836B83C9
:101F90004C8381E089838C81813019F08C81882386
:101FA000C9F58B818830B0F58A81843098F58A81B3
:101FB000882F90E0880F991FFC01E754FF4FA08104
:101FC000B1818A81882F90E0880F991FFC01E75426
:101FD000FF4F0190F081E02D8081482F8B81282FC9
:101FE00030E081E090E002C0880F991F2A95E2F767
:101FF000809548238C81282F30E08B81882F90E0BA
:10200000B90102C0660F771F8A95E2F7CB01842BD6
:102010008C9302C082E0898389810F900F900F908A
:102020000F90CF91DF910895DF93CF9300D0CDB77C
:10203000DEB789836A838981882F90E0880F991F92
:10204000FC01E754FF4F0190F081E02D8A818083ED
:102050000F900F90CF91DF910895DF93CF9300D031
:10206000CDB7DEB789836A838981882F90E0880F96
:10207000991FFC01E754FF4FA081B1818981882F0E
:1020800090E0880F991FFC01E754FF4F0190F08109
:10209000E02D90818A81892B8C930F900F90CF91A6
:1020A000DF910895DF93CF9300D000D0CDB7DEB796
:1020B0008A836B834C8381E089838C81813019F022
:1020C0008C818823B1F58B81883098F58A81882F9F
:1020D00090E0880F991FFC01EF53FF4FA081B18161
:1020E0008A81882F90E0880F991FFC01EF53FF4FE2
:1020F0000190F081E02D8081482F8B81282F30E0E6
:1021000081E090E002C0880F991F2A95E2F7809540
:1021100048238C81282F30E08B81882F90E0B901F3
:1021200002C0660F771F8A95E2F7CB01842B8C9350
:1021300002C082E0898389810F900F900F900F90E9
:10214000CF91DF910895DF93CF9300D0CDB7DEB765
:1021500089836A838981882F90E0880F991FFC0109
:10216000EF53FF4F0190F081E02D8A8180830F9023
:102170000F90CF91DF910895DF93CF9300D0CDB72B
:10218000DEB789836A838981882F90E0880F991F41
:10219000FC01EF53FF4FA081B1818981882F90E02E
:1021A000880F991FFC01EF53FF4F0190F081E02D44
:1021B00090818A81892B8C930F900F90CF91DF9122
:1021C0000895DF93CF9300D0CDB7DEB789836A83BC
:1021D0008981882F90E0880F991FFC01EF53FF4FF2
:1021E000A081B1818981882F90E0880F991FFC011F
:1021F000EF53FF4F0190F081E02D8081982F8A816D
:10220000809589238C930F900F90CF91DF91089543
:10221000DF93CF9300D00F92CDB7DEB789836A8367
:102220004B838981882F90E0880F991FFC01EF5321
:10223000FF4FA081B1818981882F90E0880F991F7D
:10224000FC01EF53FF4F0190F081E02D8081982F2A
:102250008B81809598238A81892B8C930F900F9086
:102260000F90CF91DF910895DF93CF9300D000D0EE
:102270000F92CDB7DEB78A836B835D834C8381E099
:1022800089838B818830E8F48A81882F90E0880FD9
:10229000991FFC01E753FF4F0190F081E02D8081F1
:1022A000282F30E08B81882F90E0A90102C055953E
:1022B00047958A95E2F7CA018170EC81FD818083A0
:1022C00002C082E0898389810F900F900F900F9058
:1022D0000F90CF91DF910895DF93CF9300D0CDB7CA
:1022E000DEB789836A838981882F90E0880F991FE0
:1022F000FC01E753FF4F0190F081E02D8081282FF2
:1023000030E08A81882F90E0A90102C05595479559
:102310008A95E2F7CA0181700F900F90CF91DF91FB
:102320000895DF93CF9300D000D0CDB7DEB78A8376
:102330007C836B8381E089838A81843080F48A8105
:10234000882F90E0880F991FFC01E753FF4F019001
:10235000F081E02D8081EB81FC81808302C082E0EE
:10236000898389810F900F900F900F90CF91DF910B
:102370000895DF93CF930F92CDB7DEB7898389811C
:10238000882F90E0880F991FFC01E753FF4F0190C1
:10239000F081E02D80810F90CF91DF910895DF9340
:1023A000CF9300D00F92CDB7DEB78A836B8381E0E5
:1023B00089838B81883088F58A81882F90E0880F07
:1023C000991FFC01EF53FF4FA081B1818A81882FB3
:1023D00090E0880F991FFC01EF53FF4F0190F081AF
:1023E000E02D8081482F8B81282F30E081E090E024
:1023F00002C0880F991F2A95E2F7809548238B81A8
:10240000282F30E081E090E0022E02C0880F991F53
:102410000A94E2F7842B8C9302C082E0898389813D
:102420000F900F900F90CF91DF910895DF93CF938E
:1024300000D00F92CDB7DEB78A836B8381E08983AA
:102440008B81883030F58A81882F90E0880F991F22
:10245000FC01EF53FF4FA081B1818A81882F90E06A
:10246000880F991FFC01EF53FF4F0190F081E02D81
:102470008081482F8B81282F30E081E090E0022E70
:1024800002C0880F991F0A94E2F7809584238C93E9
:1024900002C082E0898389810F900F900F90CF91C5
:1024A000DF910895DF93CF930F92CDB7DEB71982F6
:1024B00031C08981282F30E0CE010796FC01E20F60
:1024C000F31F8081813019F54E818981282F30E0FA
:1024D000CE010F96FC01E20FF31F9081842F6981DA
:1024E000492F0E94C00F8981282F30E0CE014796E6
:1024F000FC01E20FF31F8081813029F48E81698114
:102500000E94CF1104C08E8169810E9416128981B8
:102510008F5F89838981883060F20F90CF91DF913E
:102520000895DF93CF9300D0CDB7DEB79A83898328
:10253000E981FA81828193819093520180935101C4
:10254000ABE5B0E0EBE5F0E0808180648C93E9815D
:10255000FA818181813079F4A5E5B0E0E5E5F0E02C
:1025600080818E7F8C93A5E5B0E0E5E5F0E0808189
:102570008D7F8C933BC0E981FA818181823079F42F
:10258000A5E5B0E0E5E5F0E0808181608C93A5E50C
:10259000B0E0E5E5F0E080818D7F8C9327C0E98194
:1025A000FA818181833079F4A5E5B0E0E5E5F0E0DA
:1025B00080818E7F8C93A5E5B0E0E5E5F0E0808139
:1025C00082608C9313C0E981FA818181843071F437
:1025D000A5E5B0E0E5E5F0E0808181608C93A5E5BC
:1025E000B0E0E5E5F0E0808182608C930F900F9081
:1025F000CF91DF910895DF93CF9300D0CDB7DEB7B1
:102600009A838983E981FA8182819381909354012D
:1026100080935301ABE5B0E0EBE5F0E080818068AA
:102620008C93E981FA818181813079F4A5E5B0E06C
:10263000E5E5F0E080818B7F8C93A5E5B0E0E5E5F2
:10264000F0E08081877F8C933BC0E981FA818181B2
:10265000823079F4A5E5B0E0E5E5F0E080818460C2
:102660008C93A5E5B0E0E5E5F0E08081877F8C9371
:1026700027C0E981FA818181833079F4A5E5B0E052
:10268000E5E5F0E080818B7F8C93A5E5B0E0E5E5A2
:10269000F0E0808188608C9313C0E981FA818181A8
:1026A000843071F4A5E5B0E0E5E5F0E08081846078
:1026B0008C93A5E5B0E0E5E5F0E0808188608C933F
:1026C0000F900F90CF91DF910895DF93CF9300D0BB
:1026D000CDB7DEB79A838983E981FA8182819381BC
:1026E0009093560180935501ABE5B0E0EBE5F0E047
:1026F000808180628C93E981FA818181833041F409
:10270000A4E5B0E0E4E5F0E080818F7B8C930CC021
:10271000E981FA818181843039F4A4E5B0E0E4E50F
:10272000F0E0808180648C930F900F90CF91DF91C7
:102730000895DF93CF9300D0CDB7DEB79A83898316
:10274000E981FA818081813029F489819A810E940E
:10275000911213C0E981FA818081823029F4898144
:102760009A810E94FB1209C0E981FA81808183303D
:1027700021F489819A810E9465130F900F90CF9167
:10278000DF910895DF93CF930F92CDB7DEB78983A2
:102790008981833079F4A5E5B0E0E5E5F0E080815A
:1027A0008E7F8C93A5E5B0E0E5E5F0E08081826066
:1027B0008C9311C08981843071F4A5E5B0E0E5E522
:1027C000F0E0808181608C93A5E5B0E0E5E5F0E084
:1027D000808182608C930F90CF91DF910895DF9379
:1027E000CF9300D0CDB7DEB79A83898389819A8150
:1027F00090935201809351010F900F90CF91DF91F0
:1028000008951F920F920FB60F9211242F933F93AA
:102810004F935F936F937F938F939F93AF93BF93E8
:10282000EF93FF93DF93CF93CDB7DEB7E0915101E4
:10283000F09152010995CF91DF91FF91EF91BF91F6
:10284000AF919F918F917F916F915F914F913F9148
:102850002F910F900FBE0F901F9018951F920F92FF
:102860000FB60F9211242F933F934F935F936F9363
:102870007F938F939F93AF93BF93EF93FF93DF93D8
:10288000CF93CDB7DEB7E0915501F0915601099590
:10289000CF91DF91FF91EF91BF91AF919F918F9178
:1028A0007F916F915F914F913F912F910F900FBE4C
:1028B0000F901F901895DF93CF93CDB7DEB7E997B0
:1028C0000FB6F894DEBF0FBECDBF89AF81E061E0E7
:1028D00040E00E94521081E062E040E00E9452100D
:1028E00089AD82958F70982F917080E064E0492FB8
:1028F0000E94521089AD829586958770982F9170AD
:1029000080E065E0492F0E94521089AD829586953E
:1029100086958370982F917080E066E0492F0E9421
:10292000521089AD982F991F9927991F80E067E071
:10293000492F0E94521081E063E041E00E94521052
:1029400080E090E0A0E0B0E48DAB9EABAFABB8AF61
:102950006DA97EA98FA998AD20E030E04AEF54E43C
:102960000E941F02DC01CB0189AB9AABABABBCABC5
:1029700069A97AA98BA99CA920E030E040E85FE32F
:102980000E94790388232CF481E090E098AB8FA714
:102990003FC069A97AA98BA99CA920E03FEF4FE726
:1029A00057E40E94190318164CF56DA97EA98FA94A
:1029B00098AD20E030E040E251E40E941F02DC01CB
:1029C000CB01BC01CD010E944900DC01CB0198ABD9
:1029D0008FA70FC088EC90E09EA78DA78DA59EA520
:1029E0000197F1F79EA78DA78FA598A9019798AB9E
:1029F0008FA78FA598A9009769F714C069A97AA92C
:102A00008BA99CA90E944900DC01CB0198AB8FA740
:102A10008FA598A99CA78BA78BA59CA50197F1F7DB
:102A20009CA78BA781E063E040E00E94521080E009
:102A300090E0A0E0B0E48FA398A7A9A7BAA76FA1E0
:102A400078A589A59AA520E030E04AEF54E40E94D9
:102A50001F02DC01CB018BA39CA3ADA3BEA36BA182
:102A60007CA18DA19EA120E030E040E85FE30E94C0
:102A7000790388232CF481E090E09AA389A33FC0D6
:102A80006BA17CA18DA19EA120E03FEF4FE757E411
:102A90000E94190318164CF56FA178A589A59AA56F
:102AA00020E030E040E251E40E941F02DC01CB0153
:102AB000BC01CD010E944900DC01CB019AA389A38E
:102AC0000FC088EC90E098A38F8F8F8D98A101970D
:102AD000F1F798A38F8F89A19AA101979AA389A34F
:102AE00089A19AA1009769F714C06BA17CA18DA15F
:102AF0009EA10E944900DC01CB019AA389A389A170
:102B00009AA19E8F8D8F8D8D9E8D0197F1F79E8F4F
:102B10008D8F89AD982F917080E064E0492F0E94DD
:102B2000521089AD8695982F917080E065E0492F0D
:102B30000E94521089AD86958695982F917080E0FD
:102B400066E0492F0E94521089AD8695869586953C
:102B5000982F917080E067E0492F0E94521081E029
:102B600063E041E00E94521080E090E0A0E0B0E419
:102B7000898F9A8FAB8FBC8F698D7A8D8B8D9C8D51
:102B800020E030E04AEF54E40E941F02DC01CB0158
:102B90008D8B9E8BAF8BB88F6D897E898F89988D39
:102BA00020E030E040E85FE30E94790388232CF4C2
:102BB00081E090E09C8B8B8B3FC06D897E898F89F3
:102BC000988D20E03FEF4FE757E40E941903181655
:102BD0004CF5698D7A8D8B8D9C8D20E030E040E244
:102BE00051E40E941F02DC01CB01BC01CD010E9417
:102BF0004900DC01CB019C8B8B8B0FC088EC90E0F3
:102C00009A8B898B89899A890197F1F79A8B898B9D
:102C10008B899C8901979C8B8B8B8B899C890097D6
:102C200069F714C06D897E898F89988D0E9449004B
:102C3000DC01CB019C8B8B8B8B899C89988B8F873C
:102C40008F8598890197F1F7988B8F8781E063E0F2
:102C500040E00E94521080E090E0A0E0B0E48B875A
:102C60009C87AD87BE876B857C858D859E8520E0A2
:102C700030E04AEF54E40E941F02DC01CB018F8355
:102C80009887A987BA876F81788589859A8520E09A
:102C900030E040E85FE30E94790388232CF481E070
:102CA00090E09E838D833FC06F81788589859A856A
:102CB00020E03FEF4FE757E40E94190318164CF548
:102CC0006B857C858D859E8520E030E040E251E477
:102CD0000E941F02DC01CB01BC01CD010E94490012
:102CE000DC01CB019E838D830FC088EC90E09C8338
:102CF0008B838B819C810197F1F79C838B838D81E2
:102D00009E8101979E838D838D819E81009769F7B7
:102D100014C06F81788589859A850E944900DC01FD
:102D2000CB019E838D838D819E819A838983898146
:102D30009A810197F1F79A838983E9960FB6F894FF
:102D4000DEBF0FBECDBFCF91DF910895DF93CF934C
:102D5000CDB7DEB7E9970FB6F894DEBF0FBECDBF93
:102D600089AF81E061E041E00E94521081E062E0C1
:102D700040E00E94521089AD82958F70982F91701B
:102D800080E064E0492F0E94521089AD82958695BB
:102D90008770982F917080E065E0492F0E94521053
:102DA00089AD8295869586958370982F917080E085
:102DB00066E0492F0E94521089AD982F991F9927DC
:102DC000991F80E067E0492F0E94521081E063E084
:102DD00041E00E94521080E090E0A0E0B0E48DABB2
:102DE0009EABAFABB8AF6DA97EA98FA998AD20E01F
:102DF00030E04AEF54E40E941F02DC01CB0189ABB2
:102E00009AABABABBCAB69A97AA98BA99CA920E012
:102E100030E040E85FE30E94790388232CF481E0EE
:102E200090E098AB8FA73FC069A97AA98BA99CA90C
:102E300020E03FEF4FE757E40E94190318164CF5C6
:102E40006DA97EA98FA998AD20E030E040E251E461
:102E50000E941F02DC01CB01BC01CD010E94490090
:102E6000DC01CB0198AB8FA70FC088EC90E09EA748
:102E70008DA78DA59EA50197F1F79EA78DA78FA57C
:102E800098A9019798AB8FA78FA598A9009769F784
:102E900014C069A97AA98BA99CA90E944900DC01E8
:102EA000CB0198AB8FA78FA598A99CA78BA78BA5C3
:102EB0009CA50197F1F79CA78BA781E063E040E018
:102EC0000E94521080E090E0A0E0B0E48FA398A7A9
:102ED000A9A7BAA76FA178A589A59AA520E030E097
:102EE0004AEF54E40E941F02DC01CB018BA39CA398
:102EF000ADA3BEA36BA17CA18DA19EA120E030E07B
:102F000040E85FE30E94790388232CF481E090E09D
:102F10009AA389A33FC06BA17CA18DA19EA120E0B3
:102F20003FEF4FE757E40E94190318164CF56FA1C5
:102F300078A589A59AA520E030E040E251E40E94FE
:102F40001F02DC01CB01BC01CD010E944900DC0164
:102F5000CB019AA389A30FC088EC90E098A38F8F30
:102F60008F8D98A10197F1F798A38F8F89A19AA1CE
:102F700001979AA389A389A19AA1009769F714C020
:102F80006BA17CA18DA19EA10E944900DC01CB0117
:102F90009AA389A389A19AA19E8F8D8F8D8D9E8DD5
:102FA0000197F1F79E8F8D8F89AD982F917080E0FA
:102FB00064E0492F0E94521089AD8695982F917038
:102FC00080E065E0492F0E94521089AD8695869574
:102FD000982F917080E066E0492F0E94521089ADD1
:102FE000869586958695982F917080E067E0492FA9
:102FF0000E94521081E063E041E00E94521080E0A4
:1030000090E0A0E0B0E4898F9A8FAB8FBC8F698D80
:103010007A8D8B8D9C8D20E030E04AEF54E40E9445
:103020001F02DC01CB018D8B9E8BAF8BB88F6D891E
:103030007E898F89988D20E030E040E85FE30E9430
:10304000790388232CF481E090E09C8B8B8B3FC02C
:103050006D897E898F89988D20E03FEF4FE757E497
:103060000E94190318164CF5698D7A8D8B8D9C8DF5
:1030700020E030E040E251E40E941F02DC01CB017D
:10308000BC01CD010E944900DC01CB019C8B8B8BE4
:103090000FC088EC90E09A8B898B89899A89019777
:1030A000F1F79A8B898B8B899C8901979C8B8B8BF1
:1030B0008B899C89009769F714C06D897E898F89F7
:1030C000988D0E944900DC01CB019C8B8B8B8B89F6
:1030D0009C89988B8F878F8598890197F1F7988BBA
:1030E0008F8781E063E040E00E94521080E090E032
:1030F000A0E0B0E48B879C87AD87BE876B857C851D
:103100008D859E8520E030E04AEF54E40E941F0246
:10311000DC01CB018F839887A987BA876F81788577
:1031200089859A8520E030E040E85FE30E947903DA
:1031300088232CF481E090E09E838D833FC06F81D3
:10314000788589859A8520E03FEF4FE757E40E9414
:10315000190318164CF56B857C858D859E8520E0BE
:1031600030E040E251E40E941F02DC01CB01BC01CF
:10317000CD010E944900DC01CB019E838D830FC0ED
:1031800088EC90E09C838B838B819C810197F1F785
:103190009C838B838D819E8101979E838D838D81FE
:1031A0009E81009769F714C06F81788589859A851B
:1031B0000E944900DC01CB019E838D838D819E811D
:1031C0009A83898389819A810197F1F79A83898308
:1031D000E9960FB6F894DEBF0FBECDBFCF91DF9159
:1031E00008950F931F93DF93CF93CDB7DEB7C654E7
:1031F000D0400FB6F894DEBF0FBECDBF80E064E0D4
:1032000041E00E94C00F80E065E041E00E94C00FF5
:1032100080E066E041E00E94C00F80E067E041E0AE
:103220000E94C00F81E061E041E00E94C00F81E098
:1032300062E041E00E94C00F81E063E041E00E9453
:10324000C00FFE01ED5BFF4F80E090E0A8E4B2E428
:1032500080839183A283B3838E01015C1F4FFE01A3
:10326000ED5BFF4F608171818281938120E030E0CE
:103270004AEF54E40E941F02DC01CB01F801808375
:103280009183A283B383FE01FF9660817181828165
:10329000938120E030E040E85FE30E9479038823D7
:1032A0002CF481E090E09EAF8DAF46C0FE01FF960A
:1032B000608171818281938120E03FEF4FE757E485
:1032C0000E941903181664F5FE01ED5BFF4F608143
:1032D00071818281938120E030E040E251E40E94DC
:1032E0001F02DC01CB01BC01CD010E944900DC01C1
:1032F000CB019EAF8DAF0FC088EC90E09CAF8BAF41
:103300008BAD9CAD0197F1F79CAF8BAF8DAD9EADB2
:1033100001979EAF8DAF8DAD9EAD009769F716C03A
:10332000FE01FF9660817181828193810E94490034
:10333000DC01CB019EAF8DAF8DAD9EAD9AAF89AF55
:1033400089AD9AAD0197F1F79AAF89AF82E00E94FB
:103350005B1480E090E0A0E8BFE38DAB9EABAFAB29
:10336000B8AF6DA97EA98FA998AD20E030E04AEFF3
:1033700054E40E941F02DC01CB0189AB9AABABABDA
:10338000BCAB69A97AA98BA99CA920E030E040E8F0
:103390005FE30E94790388232CF481E090E098ABEE
:1033A0008FA73FC069A97AA98BA99CA920E03FEF0C
:1033B0004FE757E40E94190318164CF56DA97EA932
:1033C0008FA998AD20E030E040E251E40E941F0256
:1033D000DC01CB01BC01CD010E944900DC01CB0125
:1033E00098AB8FA70FC088EC90E09EA78DA78DA506
:1033F0009EA50197F1F79EA78DA78FA598A9019784
:1034000098AB8FA78FA598A9009769F714C069A9F1
:103410007AA98BA99CA90E944900DC01CB0198AB39
:103420008FA78FA598A99CA78BA78BA59CA5019773
:10343000F1F79CA78BA788E20E945B1480E090E0E4
:10344000A0E8BFE38FA398A7A9A7BAA76FA178A503
:1034500089A59AA520E030E04AEF54E40E941F02BB
:10346000DC01CB018BA39CA3ADA3BEA36BA17CA16C
:103470008DA19EA120E030E040E85FE30E94790347
:1034800088232CF481E090E09AA389A33FC06BA12C
:103490007CA18DA19EA120E03FEF4FE757E40E9461
:1034A000190318164CF56FA178A589A59AA520E0F7
:1034B00030E040E251E40E941F02DC01CB01BC017C
:1034C000CD010E944900DC01CB019AA389A30FC062
:1034D00088EC90E098A38F8F8F8D98A10197F1F7DA
:1034E00098A38F8F89A19AA101979AA389A389A1F3
:1034F0009AA1009769F714C06BA17CA18DA19EA130
:103500000E944900DC01CB019AA389A389A19AA159
:103510009E8F8D8F8D8D9E8D0197F1F79E8F8D8F54
:103520008CE00E945B1480E090E0A0E8BFE3898F0C
:103530009A8FAB8FBC8F698D7A8D8B8D9C8D20E09F
:1035400030E04AEF54E40E941F02DC01CB018D8B76
:103550009E8BAF8BB88F6D897E898F89988D20E087
:1035600030E040E85FE30E94790388232CF481E097
:1035700090E09C8B8B8B3FC06D897E898F89988D65
:1035800020E03FEF4FE757E40E94190318164CF56F
:10359000698D7A8D8B8D9C8D20E030E040E251E486
:1035A0000E941F02DC01CB01BC01CD010E94490039
:1035B000DC01CB019C8B8B8B0FC088EC90E09A8B4D
:1035C000898B89899A890197F1F79A8B898B8B89E5
:1035D0009C8901979C8B8B8B8B899C89009769F7C1
:1035E00014C06D897E898F89988D0E944900DC0105
:1035F000CB019C8B8B8B8B899C89988B8F878F853C
:1036000098890197F1F7988B8F8781E00E945B146E
:1036100080E090E0A0EAB1E48B879C87AD87BE870D
:103620006B857C858D859E8520E030E04AEF54E4F3
:103630000E941F02DC01CB018F839887A987BA877C
:103640006F81788589859A8520E030E040E85FE3E6
:103650000E94790388232CF481E090E09E838D837F
:103660003FC06F81788589859A8520E03FEF4FE7DD
:1036700057E40E94190318164CF56B857C858D85DF
:103680009E8520E030E040E251E40E941F02DC0110
:10369000CB01BC01CD010E944900DC01CB019E831E
:1036A0008D830FC088EC90E09C838B838B819C8101
:1036B0000197F1F79C838B838D819E8101979E8377
:1036C0008D838D819E81009769F714C06F81788505
:1036D00089859A850E944900DC01CB019E838D83F8
:1036E0008D819E819A83898389819A810197F1F7DF
:1036F0009A83898386E00E945B1480E80E945B14B1
:10370000CA5BDF4F0FB6F894DEBF0FBECDBFCF91BF
:10371000DF911F910F910895DF93CF930F92CDB753
:10372000DEB7898389810E94A6160F90CF91DF9121
:103730000895DF93CF9300D00F92CDB7DEB79B8370
:103740008A8319820EC08981282F30E08A819B816B
:10375000FC01E20FF31F80810E94A61689818F5F12
:1037600089838981282F30E08A819B81FC01E20FC7
:10377000F31F8081882339F70F900F900F90CF911E
:10378000DF910895DF93CF9300D0CDB7DEB7898363
:103790006A838981882341F48A81803178F48A811F
:1037A00080580E945B140AC08981813039F48A8173
:1037B000803120F48A8180540E945B140F900F9016
:1037C000CF91DF9108950F931F93DF93CF93CDB7E0
:1037D000DEB760970FB6F894DEBF0FBECDBF6D8722
:1037E0007E878F87988B1A828AE0FE013396DF01ED
:1037F000982F1D929A95E9F78D859E85AF85B8899A
:103800000097A105B10591F580E30E94A6164DC071
:103810008A81082F10E08D859E85AF85B8892AE0C2
:1038200030E040E050E0BC01CD010E94482EDC01B8
:10383000CB01282F205DCE010396FC01E00FF11F84
:1038400020838D859E85AF85B8892AE030E040E0F1
:1038500050E0BC01CD010E94482EDA01C9018D87DC
:103860009E87AF87B88B8A818F5F8A838D859E857F
:10387000AF85B8890097A105B10551F68A81898382
:1038800011C08981882F90E09C0121503040CE01E9
:103890000396FC01E20FF31F80810E94A616898126
:1038A000815089838981882361F760960FB6F894E7
:1038B000DEBF0FBECDBFCF91DF911F910F91089555
:1038C000DF93CF9300D0CDB7DEB79A838983898108
:1038D0009A8120E137E2B9010E94212E28EE33E0DF
:1038E000B9010E94212ECB01805D0E94A61689811C
:1038F0009A8128EE33E0B9010E94212E24E630E0BF
:10390000B9010E94212ECB01805D0E94A6168981FB
:103910009A8124E630E0B9010E94212E2AE030E0AD
:10392000B9010E94212ECB01805D0E94A6168981DB
:103930009A812AE030E0B9010E94212E805D0E9428
:10394000A6160F900F90CF91DF9108950F931F93BC
:10395000DF93CF9300D000D00F92CDB7DEB76A834C
:103960007B838C839D8319828A819B81AC81BD81FD
:103970000097A105B105C9F58981882F90E0FC0168
:10398000E95AFE4F80E3808338C08981282F30E0D8
:1039900088E090E08C01021B130B8A819B81AC8133
:1039A000BD812AE030E040E050E0BC01CD010E9442
:1039B000482EDC01CB01805DF801E95AFE4F80837F
:1039C0008A819B81AC81BD812AE030E040E050E0FB
:1039D000BC01CD010E94482EDA01C9018A839B8374
:1039E000AC83BD8389818F5F89838A819B81AC8110
:1039F000BD810097A105B10541F68981282F30E0EE
:103A000089E090E0821B930B895A9E4F0F900F9094
:103A10000F900F900F90CF91DF911F910F9108950C
:103A2000EF92FF920F931F93DF93CF93CDB7DEB743
:103A300028970FB6F894DEBF0FBECDBF98878F834F
:103A40001B821C821D821E821A8219822BC02F812A
:103A5000388589819A81F901E80FF91F8081882FC3
:103A600090E0C0977C010027F7FC0095102F8B8118
:103A70009C81AD81BE812AE030E040E050E0BC0195
:103A8000CD010E94022EDC01CB018E0D9F1DA01FD7
:103A9000B11F8B839C83AD83BE8389819A810196FC
:103AA0009A8389838F8198850E94A82E9C018981A1
:103AB0009A818217930758F28B819C81AD81BE81D8
:103AC000BC01CD0128960FB6F894DEBF0FBECDBF66
:103AD000CF91DF911F910F91FF90EF900895DF93A9
:103AE000CF9300D000D0CDB7DEB79B838A836C83A1
:103AF00019828C81882F90E00896880F991F880F73
:103B0000991F880F991F0E945B1419820EC089812A
:103B1000282F30E08A819B81FC01E20FF31F808116
:103B20000E94A61689818F5F89838981883078F306
:103B30000F900F900F900F90CF91DF910895DF932A
:103B4000CF93CDB7DEB781E00E945B14CF91DF91B8
:103B50000895DF93CF9300D000D0CDB7DEB789832F
:103B60006A835C834B8389816A810E94C21B8B813B
:103B70009C810E94991B0F900F900F900F90CF91F6
:103B8000DF910895DF93CF93CDB7DEB780916101C8
:103B900090916201A0916301B09164010196A11D11
:103BA000B11D8093610190936201A0936301B09372
:103BB00064018091610190916201A0916301B091D3
:103BC0006401883C9105A105B10529F5A5E3B0E0A4
:103BD000E5E3F0E0808182608C93A5E3B0E0E5E36B
:103BE000F0E0808181608C93A5E3B0E0E5E3F0E054
:103BF000808188608C93A5E3B0E0E5E3F0E080810C
:103C000084608C93109261011092620110926301A2
:103C10001092640170C02091610130916201409165
:103C20006301509164018091650190916601A091BA
:103C30006701B0916801281739074A075B0739F413
:103C4000A5E3B0E0E5E3F0E080818D7F8C932091E7
:103C50006101309162014091630150916401809152
:103C6000690190916A01A0916B01B0916C012817D4
:103C700039074A075B0739F4A5E3B0E0E5E3F0E074
:103C800080818E7F8C9320916101309162014091FF
:103C900063015091640180916D0190916E01A0913A
:103CA0006F01B0917001281739074A075B0739F493
:103CB000A5E3B0E0E5E3F0E080818B7F8C93209179
:103CC00061013091620140916301509164018091E2
:103CD000710190917201A0917301B0917401281744
:103CE00039074A075B0739F4A5E3B0E0E5E3F0E004
:103CF0008081877F8C93CF91DF910895DF93CF935D
:103D0000CDB7DEB782E061E041E00E94C00F82E003
:103D100060E041E00E94C00F82E062E041E00E946A
:103D2000C00F82E063E041E00E94C00F22EC3DE161
:103D300084E690E0B9010E94EC09CF91DF910895EB
:103D4000DF93CF9300D00F92CDB7DEB789838981FF
:103D5000282F30E03B832A838A819B818A35910515
:103D6000B1F02A813B81243B3105F1F08A819B81AE
:103D7000009731F58FE090E0A0E0B0E0809365011E
:103D800090936601A0936701B093680119C084E124
:103D900090E0A0E0B0E08093650190936601A0936D
:103DA0006701B09368010CC08AE090E0A0E0B0E049
:103DB0008093650190936601A0936701B0936801B9
:103DC0000F900F900F90CF91DF910895DF93CF93D5
:103DD00000D000D0CDB7DEB789836A838981282FD0
:103DE00030E03C832B838B819C818130910519F1DC
:103DF0002B813C81223031052CF48B819C810097F2
:103E000061F042C02B813C812230310511F18B8160
:103E10009C818330910559F137C08A81882F90E0C9
:103E2000A0E0B0E08093690190936A01A0936B01D8
:103E3000B0936C0129C08A81882F90E0A0E0B0E0A7
:103E40008093650190936601A0936701B093680128
:103E50001BC08A81882F90E0A0E0B0E080936D01C4
:103E600090936E01A0936F01B09370010DC08A8191
:103E7000882F90E0A0E0B0E08093710190937201F0
:103E8000A0937301B09374010F900F900F900F9057
:103E9000CF91DF910895DF93CF9300D00F92CDB7EC
:103EA000DEB79B838A8319820EC08981282F30E078
:103EB0008A819B81FC01E20FF31F80810E94D20660
:103EC00089818F5F89838981282F30E08A819B8156
:103ED000FC01E20FF31F8081882339F70F900F90C8
:103EE0000F90CF91DF910895DF93CF9300D0CDB79E
:103EF000DEB79A83898389819A8190937A0180932E
:103F00007901E981FA8180810E94D20681E99FE1ED
:103F10000E9442060E9414060F900F90CF91DF91ED
:103F20000895DF93CF93CDB7DEB72091790130911B
:103F30007A018091D200882F90E0F901E80FF91FF3
:103F400080818823A1F02091790130917A018091BC
:103F5000D200882F90E0F901E80FF91F80810E94BC
:103F6000BA068091D2008F5F8093D20005C081E0B5
:103F70008093D2000E942206CF91DF910895DF93B3
:103F8000CF9300D0CDB7DEB79A83898387EF9FE1C7
:103F90000E9442060E9414068091D100882311F1EC
:103FA00080917501282F30E089819A81FC01E20F10
:103FB000F31F80818823A1F080917501282F30E0C4
:103FC00089819A81FC01E20FF31F80810E94BA0669
:103FD000809175018F5F809375011092D10002C0AE
:103FE000109275010F900F90CF91DF910895DF939C
:103FF000CF93CDB7DEB781E08093D100CF91DF9131
:1040000008950F931F93DF93CF9300D00F92CDB7F6
:10401000DEB79B838A8319828981282F30E08A81C9
:104020009B818C01020F131F0E94EC06F801808314
:104030000FC089818F5F89838981282F30E08A8131
:104040009B818C01020F131F0E94EC06F8018083F4
:104050008981282F30E08A819B81FC01E20FF31FC8
:1040600080818D3031F78981282F30E08A819B81D2
:10407000FC01E20FF31F10820F900F900F90CF9171
:10408000DF911F910F910895DF93CF9300D0CDB7AB
:10409000DEB79A83898389819A8190937C0180938A
:1040A0007B010E94F8058CE590E20E9430060F909B
:1040B0000F90CF91DF9108950F931F93DF93CF93CC
:1040C000CDB7DEB720917B0130917C0180917601E4
:1040D000909177018901080F191F0E94C806F80105
:1040E0008083809178018F5F80937801E0917601E1
:1040F000F091770120E130E0CF01B9010E94352E27
:104100009093770180937601CF0101969093770188
:1041100080937601CF91DF911F910F910895DF93E6
:10412000CF9300D000D000D0CDB7DEB79E838D8373
:104130001C821B821A82198214C08B81282F30E0C6
:104140008D819E81FC01E20FF31F8081282F30E0DA
:1041500089819A81820F931F9A8389838B818F5FD4
:104160008B838B81282F30E08D819E81FC01E20FB3
:10417000F31F8081882309F78B810E94D2061C825D
:104180000EC08C81282F30E08D819E81FC01E20FD2
:10419000F31F80810E94D2068C818F5F8C839C816B
:1041A0008B81981770F389810E94D20689819A8148
:1041B000892F99270E94D20626960FB6F894DEBF63
:1041C0000FBECDBFCF91DF9108950F931F93DF9363
:1041D000CF93CDB7DEB72B970FB6F894DEBF0FBEE7
:1041E000CDBF9A87898718861F821E821D821C82F6
:1041F0001B821A8219820E94EC068F83188620C0C7
:104200008885282F30E089859A858C01020F131F3D
:104210000E94EC06F80180838885282F30E089858C
:104220009A85FC01E20FF31F8081282F30E08981FD
:104230009A81820F931F9A83898388858F5F8887ED
:1042400098858F819817E0F20E94EC068E830E9479
:10425000EC068D838E81282F30E08D81882F90E0B1
:10426000982F8827822B932B9C838B8329813A81DB
:104270008B819C812817390719F4F1E0FB8701C075
:104280001B868B852B960FB6F894DEBF0FBECDBF75
:10429000CF91DF911F910F9108950F931F93DF939B
:1042A000CF93CDB7DEB780919201082F10E00E9426
:1042B000C806F801E358FE4F8083809192018F5F1A
:1042C00080939201CF91DF911F910F910895DF9319
:1042D000CF93CDB7DEB72E970FB6F894DEBF0FBEE3
:1042E000CDBF0E94A3050E94F8058DE491E20E94D3
:1042F00030060E94F1180E947E1E83E066E040E0D6
:104300000E94C00F83E066E00E94CF1183E067E067
:1043100040E00E94C00F83E067E00E94CF117894D4
:10432000809193019091940123E0883E920750F48C
:1043300080919301909194010196909394018093C0
:104340009301EECF80919201882351F38DE791E0A4
:104350000E94991B8DE791E020E630E0B9010E94B0
:10436000B12E009749F48DE791E025E630E0B901E0
:104370000E94B12E009711F00E9470298DE791E004
:104380002AE630E0B9010E94B12E009749F48DE78A
:1043900091E020E730E0B9010E94B12E009711F0C2
:1043A0000E94F62A8DE791E023E730E0B9010E94F0
:1043B000B12E009749F48DE791E028E730E0B9018C
:1043C0000E94B12E009711F00E947C2C8DE791E0A5
:1043D0002CE730E0B9010E94B12E009749F48DE737
:1043E00091E02FE730E0B9010E94B12E009711F063
:1043F0000E9434288DE791E022E830E0B9010E9464
:10440000B12E009749F48DE791E027E830E0B9013B
:104410000E94B12E009711F00E94D6288DE791E0FE
:104420002CE830E0B9010E94B12E009749F48DE7E5
:1044300091E021E930E0B9010E94B12E009711F01E
:104440000E9400278DE791E025E930E0B9010E9444
:10445000B12E009749F48DE791E02BE930E0B901E6
:104460000E94B12E009711F00E949A278DE791E0EB
:1044700021EA30E0B9010E94B12E009749F48DE79E
:1044800091E025EA30E0B9010E94B12E009719F0C1
:1044900082E00E94E1228DE791E028EA30E0B90154
:1044A0000E94B12E009749F48DE791E02DEA30E0AB
:1044B000B9010E94B12E009719F081E00E94E1221B
:1044C0008DE791E060E070E044E150E00E94A12EB1
:1044D00080E090E0AAE7B4E48B879C87AD87BE8735
:1044E0006B857C858D859E8520E030E04AEF54E425
:1044F0000E941F02DC01CB018F839887A987BA87AE
:104500006F81788589859A8520E030E040E85FE317
:104510000E94790388232CF481E090E09E838D83B0
:104520003FC06F81788589859A8520E03FEF4FE70E
:1045300057E40E94190318164CF56B857C858D8510
:104540009E8520E030E040E251E40E941F02DC0141
:10455000CB01BC01CD010E944900DC01CB019E834F
:104560008D830FC088EC90E09C838B838B819C8132
:104570000197F1F79C838B838D819E8101979E83A8
:104580008D838D819E81009769F714C06F81788536
:1045900089859A850E944900DC01CB019E838D8329
:1045A0008D819E819A83898389819A810197F1F710
:1045B0009A83898310929201109294011092930130
:1045C000AFCE0F931F93DF93CF93CDB7DEB7CB550D
:1045D000D0400FB6F894DEBF0FBECDBFFE01E55A46
:1045E000FF4F8083FE01E75AFF4F85E090E0918303
:1045F0008083C7C0FE01E75AFF4F908180E0692F9A
:104600000E94E61EFE01EF5AFF4F80E090E0AAEF05
:10461000B3E480839183A283B3838E01035B1F4F36
:10462000FE01EF5AFF4F608171818281938120E00A
:1046300030E04AEF54E40E941F02DC01CB01F80194
:1046400080839183A283B383FE01E35BFF4F60818C
:1046500071818281938120E030E040E85FE30E9435
:104660007903882344F4FE01E55BFF4F81E090E08D
:104670009183808364C0FE01E35BFF4F60817181A1
:104680008281938120E03FEF4FE757E40E941903B6
:1046900018160CF043C0FE01EF5AFF4F6081718184
:1046A0008281938120E030E040E251E40E941F02C9
:1046B000DC01CB018E01055B1F4FBC01CD010E94C7
:1046C0004900DC01CB01F801918380831FC0FE010A
:1046D000E75BFF4F88EC90E091838083FE01E75B0E
:1046E000FF4F808191810197F1F7FE01E75BFF4F5A
:1046F00091838083DE01A55BBF4FFE01E55BFF4F29
:1047000080819181019711969C938E93FE01E55BC8
:10471000FF4F808191810097D1F627C08E01055B04
:104720001F4FFE01E35BFF4F6081718182819381A6
:104730000E944900DC01CB01F80191838083DE01F6
:10474000A95BBF4FFE01E55BFF4F808191818D9397
:104750009C93FE01E95BFF4F808191810197F1F706
:10476000FE01E95BFF4F91838083DE01A75ABF4FB3
:10477000FE01E75AFF4F80819181019611969C932B
:104780008E93FE01E75AFF4F808191818A30910517
:104790000CF430CF0E9400270E94342881E090E082
:1047A00060E070E00E94C21B83E067E00E946C1131
:1047B000882F90E00E94601CFE01E55AFF4F808127
:1047C000813049F483E067E00E946C11882389F40A
:1047D0000E949A270EC0FE01E55AFF4F8081823069
:1047E00041F483E066E00E946C11882311F40E947A
:1047F0009A270E94D628FE01ED5BFF4F80E090E0F3
:10480000AAE7B4E480839183A283B3838E01015C21
:104810001F4FFE01ED5BFF4F6081718182819381AB
:1048200020E030E04AEF54E40E941F02DC01CB019B
:10483000F80180839183A283B383FE01FF96608198
:1048400071818281938120E030E040E85FE30E9443
:10485000790388232CF481E090E09EAF8DAF46C0B1
:10486000FE01FF96608171818281938120E03FEF9C
:104870004FE757E40E941903181664F5FE01ED5B3B
:10488000FF4F608171818281938120E030E040E2BE
:1048900051E40E941F02DC01CB01BC01CD010E944A
:1048A0004900DC01CB019EAF8DAF0FC088EC90E0DA
:1048B0009CAF8BAF8BAD9CAD0197F1F79CAF8BAFED
:1048C0008DAD9EAD01979EAF8DAF8DAD9EAD009726
:1048D00069F716C0FE01FF96608171818281938124
:1048E0000E944900DC01CB019EAF8DAF8DAD9EAD26
:1048F0009AAF89AF89AD9AAD0197F1F79AAF89AFB9
:10490000FE01E95AFF4F8AE090E09183808386C0E0
:10491000FE01E95AFF4F908180E0692F0E94E61E58
:1049200080E090E0AAEFB3E48DAB9EABAFABB8AF45
:104930006DA97EA98FA998AD20E030E04AEF54E43C
:104940000E941F02DC01CB0189AB9AABABABBCABC5
:1049500069A97AA98BA99CA920E030E040E85FE32F
:104960000E94790388232CF481E090E098AB8FA714
:104970003FC069A97AA98BA99CA920E03FEF4FE726
:1049800057E40E94190318164CF56DA97EA98FA94A
:1049900098AD20E030E040E251E40E941F02DC01CB
:1049A000CB01BC01CD010E944900DC01CB0198ABD9
:1049B0008FA70FC088EC90E09EA78DA78DA59EA520
:1049C0000197F1F79EA78DA78FA598A9019798AB9E
:1049D0008FA78FA598A9009769F714C069A97AA92C
:1049E0008BA99CA90E944900DC01CB0198AB8FA741
:1049F0008FA598A99CA78BA78BA59CA50197F1F7DC
:104A00009CA78BA7DE01A95ABF4FFE01E95AFF4FB1
:104A100080819181019611969C938E93FE01E95AB3
:104A2000FF4F808191818F3091050CF471CF0E94EE
:104A300000270E94342881E090E060E070E00E944E
:104A4000C21B83E067E00E946C11882F90E00E94F7
:104A5000601CFE01E55AFF4F8081813049F483E0FC
:104A600067E00E946C11813089F00E949A270EC085
:104A7000FE01E55AFF4F8081823041F483E066E019
:104A80000E946C11882311F40E949A270E94D62854
:104A900080E090E0AAE7B4E48FA398A7A9A7BAA7FB
:104AA0006FA178A589A59AA520E030E04AEF54E4EB
:104AB0000E941F02DC01CB018BA39CA3ADA3BEA36C
:104AC0006BA17CA18DA19EA120E030E040E85FE3D6
:104AD0000E94790388232CF481E090E09AA389A3B3
:104AE0003FC06BA17CA18DA19EA120E03FEF4FE7CD
:104AF00057E40E94190318164CF56FA178A589A5F3
:104B00009AA520E030E040E251E40E941F02DC015F
:104B1000CB01BC01CD010E944900DC01CB019AA36D
:104B200089A30FC088EC90E098A38F8F8F8D98A1F8
:104B30000197F1F798A38F8F89A19AA101979AA362
:104B400089A389A19AA1009769F714C06BA17CA1E0
:104B50008DA19EA10E944900DC01CB019AA389A3EB
:104B600089A19AA19E8F8D8F8D8D9E8D0197F1F7D2
:104B70009E8F8D8FFE01EB5AFF4F8FE090E0918367
:104B8000808386C0FE01EB5AFF4F908180E0692F41
:104B90000E94E61E80E090E0AAEFB3E4898F9A8F2E
:104BA000AB8FBC8F698D7A8D8B8D9C8D20E030E032
:104BB0004AEF54E40E941F02DC01CB018D8B9E8BD7
:104BC000AF8BB88F6D897E898F89988D20E030E01A
:104BD00040E85FE30E94790388232CF481E090E0B1
:104BE0009C8B8B8B3FC06D897E898F89988D20E04F
:104BF0003FEF4FE757E40E94190318164CF5698DF3
:104C00007A8D8B8D9C8D20E030E040E251E40E9453
:104C10001F02DC01CB01BC01CD010E944900DC0177
:104C2000CB019C8B8B8B0FC088EC90E09A8B898B8F
:104C300089899A890197F1F79A8B898B8B899C894D
:104C400001979C8B8B8B8B899C89009769F714C08B
:104C50006D897E898F89988D0E944900DC01CB0186
:104C60009C8B8B8B8B899C89988B8F878F85988960
:104C70000197F1F7988B8F87DE01AB5ABF4FFE018A
:104C8000EB5AFF4F80819181019611969C938E93F0
:104C9000FE01EB5AFF4F80819181843191050CF424
:104CA00071CF0E9400270E94342881E090E060E0EC
:104CB00070E00E94C21B83E067E00E946C11882FA5
:104CC00090E00E94601CFE01E55AFF4F8081813018
:104CD00049F483E067E00E946C11813089F00E9402
:104CE0009A270EC0FE01E55AFF4F8081823041F4C1
:104CF00083E066E00E946C11882311F40E949A27D9
:104D00000E94D62880E090E0AAE7B4E48B879C87D5
:104D1000AD87BE876B857C858D859E8520E030E0E4
:104D20004AEF54E40E941F02DC01CB018F83988775
:104D3000A987BA876F81788589859A8520E030E0D8
:104D400040E85FE30E94790388232CF481E090E03F
:104D50009E838D833FC06F81788589859A8520E009
:104D60003FEF4FE757E40E94190318164CF56B8587
:104D70007C858D859E8520E030E040E251E40E94F4
:104D80001F02DC01CB01BC01CD010E944900DC0106
:104D9000CB019E838D830FC088EC90E09C838B8336
:104DA0008B819C810197F1F79C838B838D819E8100
:104DB00001979E838D838D819E81009769F714C032
:104DC0006F81788589859A850E944900DC01CB0135
:104DD0009E838D838D819E819A83898389819A8127
:104DE0000197F1F79A838983C55ADF4F0FB6F8947C
:104DF000DEBF0FBECDBFCF91DF911F910F91089500
:104E0000DF93CF93CDB7DEB760970FB6F894DEBFD0
:104E10000FBECDBF89E190E0988B8F877CC09F85C6
:104E200081E0692F0E94E61E80E090E0A0EAB1E4F4
:104E30008B879C87AD87BE876B857C858D859E859E
:104E400020E030E04AEF54E40E941F02DC01CB0175
:104E50008F839887A987BA876F81788589859A8596
:104E600020E030E040E85FE30E94790388232CF4DF
:104E700081E090E09E838D833FC06F817885898536
:104E80009A8520E03FEF4FE757E40E941903181678
:104E90004CF56B857C858D859E8520E030E040E279
:104EA00051E40E941F02DC01CB01BC01CD010E9434
:104EB0004900DC01CB019E838D830FC088EC90E01C
:104EC0009C838B838B819C810197F1F79C838B83DF
:104ED0008D819E8101979E838D838D819E81009718
:104EE00069F714C06F81788589859A850E94490089
:104EF000DC01CB019E838D838D819E819A83898382
:104F000089819A810197F1F79A8389838F8598899E
:104F10000197988B8F878F859889873091050CF042
:104F20007ECF60960FB6F894DEBF0FBECDBFCF9197
:104F3000DF910895DF93CF93CDB7DEB760970FB6BB
:104F4000F894DEBF0FBECDBF85E090E0988B8F87D1
:104F50007CC09F8581E0692F0E94E61E80E090E082
:104F6000A0EAB1E48B879C87AD87BE876B857C8583
:104F70008D859E8520E030E04AEF54E40E941F02B8
:104F8000DC01CB018F839887A987BA876F817885E9
:104F900089859A8520E030E040E85FE30E9479034C
:104FA00088232CF481E090E09E838D833FC06F8145
:104FB000788589859A8520E03FEF4FE757E40E9486
:104FC000190318164CF56B857C858D859E8520E030
:104FD00030E040E251E40E941F02DC01CB01BC0141
:104FE000CD010E944900DC01CB019E838D830FC05F
:104FF00088EC90E09C838B838B819C810197F1F7F7
:105000009C838B838D819E8101979E838D838D816F
:105010009E81009769F714C06F81788589859A858C
:105020000E944900DC01CB019E838D838D819E818E
:105030009A83898389819A810197F1F79A83898379
:105040008F8598890196988B8F878F8598898A316B
:1050500091050CF47ECF60960FB6F894DEBF0FBEBC
:10506000CDBFCF91DF910895DF93CF93CDB7DEB75A
:1050700060970FB6F894DEBF0FBECDBF83E06AE045
:105080000E94E61E83E068EC0E94E61E84E190E048
:10509000988B8F877CC09F8582E0692F0E94E61ED7
:1050A00080E090E0A0EFB2E48B879C87AD87BE875D
:1050B0006B857C858D859E8520E030E04AEF54E449
:1050C0000E941F02DC01CB018F839887A987BA87D2
:1050D0006F81788589859A8520E030E040E85FE33C
:1050E0000E94790388232CF481E090E09E838D83D5
:1050F0003FC06F81788589859A8520E03FEF4FE733
:1051000057E40E94190318164CF56B857C858D8534
:105110009E8520E030E040E251E40E941F02DC0165
:10512000CB01BC01CD010E944900DC01CB019E8373
:105130008D830FC088EC90E09C838B838B819C8156
:105140000197F1F79C838B838D819E8101979E83CC
:105150008D838D819E81009769F714C06F8178855A
:1051600089859A850E944900DC01CB019E838D834D
:105170008D819E819A83898389819A810197F1F734
:105180009A8389838F8598890197988B8F878F85DC
:1051900098898A3091050CF07ECF60960FB6F8940E
:1051A000DEBF0FBECDBFCF91DF910895DF93CF93C8
:1051B000CDB7DEB760970FB6F894DEBF0FBECDBF98
:1051C0008AE090E0988B8F877CC09F8582E0692F72
:1051D0000E94E61E80E090E0A0EFB2E48B879C87FF
:1051E000AD87BE876B857C858D859E8520E030E010
:1051F0004AEF54E40E941F02DC01CB018F839887A1
:10520000A987BA876F81788589859A8520E030E003
:1052100040E85FE30E94790388232CF481E090E06A
:105220009E838D833FC06F81788589859A8520E034
:105230003FEF4FE757E40E94190318164CF56B85B2
:105240007C858D859E8520E030E040E251E40E941F
:105250001F02DC01CB01BC01CD010E944900DC0131
:10526000CB019E838D830FC088EC90E09C838B8361
:105270008B819C810197F1F79C838B838D819E812B
:1052800001979E838D838D819E81009769F714C05D
:105290006F81788589859A850E944900DC01CB0160
:1052A0009E838D838D819E819A83898389819A8152
:1052B0000197F1F79A8389838F8598890196988B56
:1052C0008F878F859889853191050CF47ECF609604
:1052D0000FB6F894DEBF0FBECDBFCF91DF9108951A
:1052E000DF93CF93CDB7DEB7AC970FB6F894DEBFA0
:1052F0000FBECDBF85E090E09CA78BA77CC09BA58F
:1053000080E0692F0E94E61E80E090E0AAEFB3E4FF
:105310008FA398A7A9A7BAA76FA178A589A59AA5D1
:1053200020E030E04AEF54E40E941F02DC01CB0190
:105330008BA39CA3ADA3BEA36BA17CA18DA19EA1B9
:1053400020E030E040E85FE30E94790388232CF4FA
:1053500081E090E09AA389A33FC06BA17CA18DA1BD
:105360009EA120E03FEF4FE757E40E941903181673
:105370004CF56FA178A589A59AA520E030E040E220
:1053800051E40E941F02DC01CB01BC01CD010E944F
:105390004900DC01CB019AA389A30FC088EC90E0FF
:1053A00098A38F8F8F8D98A10197F1F798A38F8F76
:1053B00089A19AA101979AA389A389A19AA100978B
:1053C00069F714C06BA17CA18DA19EA10E94490028
:1053D000DC01CB019AA389A389A19AA19E8F8D8F0D
:1053E0008D8D9E8D0197F1F79E8F8D8F8BA59CA53E
:1053F00001969CA78BA78BA59CA58A3091050CF4E0
:105400007ECF0E9400270E9434280E949A2780E0C5
:1054100090E0AAE7B4E4898F9A8FAB8FBC8F698D37
:105420007A8D8B8D9C8D20E030E04AEF54E40E9411
:105430001F02DC01CB018D8B9E8BAF8BB88F6D89EA
:105440007E898F89988D20E030E040E85FE30E94FC
:10545000790388232CF481E090E09C8B8B8B3FC0F8
:105460006D897E898F89988D20E03FEF4FE757E463
:105470000E94190318164CF5698D7A8D8B8D9C8DC1
:1054800020E030E040E251E40E941F02DC01CB0149
:10549000BC01CD010E944900DC01CB019C8B8B8BB0
:1054A0000FC088EC90E09A8B898B89899A89019743
:1054B000F1F79A8B898B8B899C8901979C8B8B8BBD
:1054C0008B899C89009769F714C06D897E898F89C3
:1054D000988D0E944900DC01CB019C8B8B8B8B89C2
:1054E0009C89988B8F878F8598890197F1F7988B86
:1054F0008F870E94D62880E090E0AAE7B4E48B87EB
:105500009C87AD87BE876B857C858D859E8520E0D9
:1055100030E04AEF54E40E941F02DC01CB018F838C
:105520009887A987BA876F81788589859A8520E0D1
:1055300030E040E85FE30E94790388232CF481E0A7
:1055400090E09E838D833FC06F81788589859A85A1
:1055500020E03FEF4FE757E40E94190318164CF57F
:105560006B857C858D859E8520E030E040E251E4AE
:105570000E941F02DC01CB01BC01CD010E94490049
:10558000DC01CB019E838D830FC088EC90E09C836F
:105590008B838B819C810197F1F79C838B838D8119
:1055A0009E8101979E838D838D819E81009769F7EF
:1055B00014C06F81788589859A850E944900DC0135
:1055C000CB019E838D838D819E819A83898389817E
:1055D0009A810197F1F79A838983AC960FB6F89474
:1055E000DEBF0FBECDBFCF91DF910895DF93CF9384
:1055F000CDB7DEB7AC970FB6F894DEBF0FBECDBF08
:105600008AE090E09CA78BA77CC09BA580E0692FD7
:105610000E94E61E80E090E0AAEFB3E48FA398A773
:10562000A9A7BAA76FA178A589A59AA520E030E01F
:105630004AEF54E40E941F02DC01CB018BA39CA320
:10564000ADA3BEA36BA17CA18DA19EA120E030E003
:1056500040E85FE30E94790388232CF481E090E026
:105660009AA389A33FC06BA17CA18DA19EA120E03C
:105670003FEF4FE757E40E94190318164CF56FA14E
:1056800078A589A59AA520E030E040E251E40E9487
:105690001F02DC01CB01BC01CD010E944900DC01ED
:1056A000CB019AA389A30FC088EC90E098A38F8FB9
:1056B0008F8D98A10197F1F798A38F8F89A19AA157
:1056C00001979AA389A389A19AA1009769F714C0A9
:1056D0006BA17CA18DA19EA10E944900DC01CB01A0
:1056E0009AA389A389A19AA19E8F8D8F8D8D9E8D5E
:1056F0000197F1F79E8F8D8F8BA59CA501969CA796
:105700008BA78BA59CA58F3091050CF47ECF0E94B2
:1057100000270E9434280E949A2780E090E0AAE7A0
:10572000B4E4898F9A8FAB8FBC8F698D7A8D8B8D06
:105730009C8D20E030E04AEF54E40E941F02DC011F
:10574000CB018D8B9E8BAF8BB88F6D897E898F89B6
:10575000988D20E030E040E85FE30E9479038823E1
:105760002CF481E090E09C8B8B8B3FC06D897E890F
:105770008F89988D20E03FEF4FE757E40E9419038F
:1057800018164CF5698D7A8D8B8D9C8D20E030E05C
:1057900040E251E40E941F02DC01CB01BC01CD01BB
:1057A0000E944900DC01CB019C8B8B8B0FC088ECE5
:1057B00090E09A8B898B89899A890197F1F79A8B66
:1057C000898B8B899C8901979C8B8B8B8B899C897E
:1057D000009769F714C06D897E898F89988D0E9422
:1057E0004900DC01CB019C8B8B8B8B899C89988B2E
:1057F0008F878F8598890197F1F7988B8F870E9403
:10580000D62880E090E0AAE7B4E48B879C87AD8738
:10581000BE876B857C858D859E8520E030E04AEFD4
:1058200054E40E941F02DC01CB018F839887A98773
:10583000BA876F81788589859A8520E030E040E8D5
:105840005FE30E94790388232CF481E090E09E833B
:105850008D833FC06F81788589859A8520E03FEFF1
:105860004FE757E40E94190318164CF56B857C85A9
:105870008D859E8520E030E040E251E40E941F02C9
:10588000DC01CB01BC01CD010E944900DC01CB0150
:105890009E838D830FC088EC90E09C838B838B81EB
:1058A0009C810197F1F79C838B838D819E81019769
:1058B0009E838D838D819E81009769F714C06F81CF
:1058C000788589859A850E944900DC01CB019E83F9
:1058D0008D838D819E819A83898389819A810197A5
:1058E000F1F79A838983AC960FB6F894DEBF0FBEAA
:1058F000CDBFCF91DF910895DF93CF93CDB7DEB7C2
:10590000AC970FB6F894DEBF0FBECDBF8FE090E02E
:105910009CA78BA77CC09BA580E0692F0E94E61EF8
:1059200080E090E0AAEFB3E48FA398A7A9A7BAA755
:105930006FA178A589A59AA520E030E04AEF54E44C
:105940000E941F02DC01CB018BA39CA3ADA3BEA3CD
:105950006BA17CA18DA19EA120E030E040E85FE337
:105960000E94790388232CF481E090E09AA389A314
:105970003FC06BA17CA18DA19EA120E03FEF4FE72E
:1059800057E40E94190318164CF56FA178A589A554
:105990009AA520E030E040E251E40E941F02DC01C1
:1059A000CB01BC01CD010E944900DC01CB019AA3CF
:1059B00089A30FC088EC90E098A38F8F8F8D98A15A
:1059C0000197F1F798A38F8F89A19AA101979AA3C4
:1059D00089A389A19AA1009769F714C06BA17CA142
:1059E0008DA19EA10E944900DC01CB019AA389A34D
:1059F00089A19AA19E8F8D8F8D8D9E8D0197F1F734
:105A00009E8F8D8F8BA59CA501969CA78BA78BA5A0
:105A10009CA5843191050CF47ECF0E9400270E9442
:105A200034280E949A2780E090E0AAE7B4E4898FA6
:105A30009A8FAB8FBC8F698D7A8D8B8D9C8D20E07A
:105A400030E04AEF54E40E941F02DC01CB018D8B51
:105A50009E8BAF8BB88F6D897E898F89988D20E062
:105A600030E040E85FE30E94790388232CF481E072
:105A700090E09C8B8B8B3FC06D897E898F89988D40
:105A800020E03FEF4FE757E40E94190318164CF54A
:105A9000698D7A8D8B8D9C8D20E030E040E251E461
:105AA0000E941F02DC01CB01BC01CD010E94490014
:105AB000DC01CB019C8B8B8B0FC088EC90E09A8B28
:105AC000898B89899A890197F1F79A8B898B8B89C0
:105AD0009C8901979C8B8B8B8B899C89009769F79C
