:100000000C942A000C9401140C9447000C942E14A8
:100010000C94510D0C941E0D0C941D0E0C94B70DE8
:100020000C94EA0D0C94840D0C94EB0C0C9447008A
:100030000C9447000C9454060C9447000C948706CB
:100040000C9447000C9447000C9447000C94470014
:100050000C94470011241FBECFE5D8E0DEBFCDBF12
:1000600011E0A0E6B0E0E0ECF6E402C005900D92ED
:10007000A435B107D9F711E0A4E5B1E001C01D92A4
:10008000A33CB107E1F70E94EE210C945E230C948F
:100090000000EF92FF920F931F937B018C0120E0F1
:1000A00030E040E05FE40E94490388238CF0C801FF
:1000B000B70120E030E040E05FE40E94C1010E940F
:1000C000A9039B01AC01205030404040504806C07D
:1000D000C801B7010E94A9039B01AC01B901CA0183
:1000E0001F910F91FF90EF900895A0E0B0E0EBE733
:1000F000F0E00C940423DC012B01FA019C91923076
:1001000008F439C1EB018881823008F433C194309E
:1001100069F4843009F02FC111969C91119789815F
:10012000981709F428C1A4EAB0E025C1843009F485
:1001300021C18230A9F4923009F01DC19A01AD01AC
:1001400088E0EA010990AE01E90109929E0181501F
:10015000C1F7E201898111969C918923818308C1AD
:10016000923009F407C112962D903C901397EB0141
:100170008A819B811496AD90BD90CD90DC901797AD
:10018000EC80FD800E811F819101281B390BB90184
:1001900037FF04C066277727621B730B6032710537
:1001A0000CF061C0121613066CF537014801062EDB
:1001B00004C096948794779467940A94D2F721E0C8
:1001C00030E040E050E004C0220F331F441F551FB1
:1001D0006A95D2F721503040404050402E213F21B7
:1001E00040235123211531054105510521F021E01E
:1001F00030E040E050E079018A01E628F72808293C
:1002000019293CC0232BD1F1260E371E350146019A
:10021000062E04C096948794779467940A94D2F734
:1002200021E030E040E050E004C0220F331F441FC3
:10023000551F6A95D2F721503040404050402A2146
:100240003B214C215D21211531054105510521F04E
:1002500021E030E040E050E059016A01A628B728CB
:10026000C828D9280BC0821593052CF01C01AA249C
:10027000BB24650103C0EE24FF24870111969C91E5
:10028000D20111968C91981709F445C0992339F041
:10029000A80197012A193B094C095D0906C0A6016E
:1002A00095012E193F09400B510B57FD08C01182D3
:1002B0003382228224833583468357831DC081E0A5
:1002C00081833382228288279927DC01821B930B4A
:1002D000A40BB50B84839583A683B7830DC0220F2F
:1002E000331F441F551F24833583468357838281E0
:1002F000938101979383828324813581468157813D
:10030000DA01C9010197A109B1098F5F9F4FAF4F72
:10031000BF4328F30BC0918333822282EA0CFB1C7B
:100320000C1D1D1DE482F5820683178383E0808304
:10033000248135814681578157FF1AC0C901AA27F8
:1003400097FDA095BA2F81709070A070B0705695EF
:10035000479537952795822B932BA42BB52B848318
:100360009583A683B7838281938101969383828349
:10037000DF0101C0D201CD01CDB7DEB7E2E10C94BF
:100380002023A0E2B0E0E7ECF1E00C9410236983B5
:100390007A838B839C832D833E834F835887E9E048
:1003A000EE2EF12CEC0EFD1ECE010196B7010E943F
:1003B000D2048E010F5E1F4FCE010596B8010E9438
:1003C000D2048A8991E089278A8BC701B801AE01DE
:1003D000475E5F4F0E9475000E94FD03A096E6E015
:1003E0000C942C23A0E2B0E0E8EFF1E00C94102391
:1003F00069837A838B839C832D833E834F835887C5
:10040000F9E0EF2EF12CEC0EFD1ECE010196B701A6
:100410000E94D2048E010F5E1F4FCE010596B801D7
:100420000E94D204C701B801AE01475E5F4F0E942F
:1004300075000E94FD03A096E6E00C942C23A0E238
:10044000B0E0E5E2F2E00C94042369837A838B83C5
:100450009C832D833E834F835887CE010196BE0136
:10046000675F7F4F0E94D204CE010596BE016F5E8A
:100470007F4F0E94D2049985923088F0898982301A
:10048000C8F0943019F4823051F404C0843029F457
:10049000923081F484EA90E0C6C0923049F420E0C2
:1004A0009A858A89981321E02A87CE010996BBC0D4
:1004B000823049F420E09A858A89981321E02A8BBA
:1004C000CE014196B0C02D843E844F8458886D88FB
:1004D0007E888F88988CEE24FF248701AA24BB2471
:1004E000650140E050E060E070E0E0E0F0E0C10174
:1004F00081709070892BE9F0E60CF71C081D191D1E
:100500009A01AB012A0D3B1D4C1D5D1D80E090E062
:10051000A0E0B0E0E614F7040805190520F481E036
:1005200090E0A0E0B0E0BA01A901480F591F6A1F8E
:100530007B1FAA0CBB1CCC1CDD1C97FE08C081E0F5
:1005400090E0A0E0B0E0A82AB92ACA2ADB2A3196B6
:10055000E032F10549F0660C771C881C991C569412
:10056000479437942794C3CFFA85EA892B893C892D
:100570008B859C85280F391F2E5F3F4F17C0CA01FE
:1005800081709070892B61F016950795F794E79428
:1005900080E090E0A0E0B0E8E82AF92A0A2B1B2BC3
:1005A00076956795579547952F5F3F4F77FDE7CF36
:1005B0000CC0440F551F661F771F17FD4160EE0CDE
:1005C000FF1C001F111F21503040403090E05907A0
:1005D00090E0690790E4790760F32B8F3C8FDB0193
:1005E000CA018F779070A070B07080349105A1051A
:1005F000B10561F447FD0AC0E114F10401051105DC
:1006000029F0405C5F4F6F4F7F4F40781A8EFE1786
:1006100011F081E08A8F4D8F5E8F6F8F78A383E01A
:10062000898FCE0149960E94FD03A096E2E10C94C9
:100630002023A8E1B0E0EFE1F3E00C9410236983FC
:100640007A838B839C832D833E834F83588789E0F5
:10065000E82EF12CEC0EFD1ECE010196B7010E9492
:10066000D2048E010F5E1F4FCE010596B8010E9485
:10067000D2048985823040F08989823028F0C70110
:10068000B8010E944A0501C08FEF6896E6E00C941D
:100690002C23A8E1B0E0EFE4F3E00C94102369838D
:1006A0007A838B839C832D833E834F83588789E095
:1006B000E82EF12CEC0EFD1ECE010196B7010E9432
:1006C000D2048E010F5E1F4FCE010596B8010E9425
:1006D000D2048985823040F08989823028F0C701B0
:1006E000B8010E944A0501C08FEF6896E6E00C94BD
:1006F0002C23A8E1B0E0EFE7F3E00C94102369832A
:100700007A838B839C832D833E834F83588789E034
:10071000E82EF12CEC0EFD1ECE010196B7010E94D1
:10072000D2048E010F5E1F4FCE010596B8010E94C4
:10073000D2048985823040F08989823028F0C7014F
:10074000B8010E944A0501C081E06896E6E00C9479
:100750002C23ACE0B0E0EFEAF3E00C9414236983BF
:100760007A838B839C83CE010196BE016B5F7F4FA2
:100770000E94D2048D81823061F1823050F1843048
:1007800021F48E81882351F12EC02F81388537FDC9
:1007900020C06E812F3131051CF06623F9F023C093
:1007A0008EE190E0821B930B29853A854B855C8511
:1007B00004C056954795379527958A95D2F76623B5
:1007C000B1F050954095309521953F4F4F4F5F4F79
:1007D0000EC020E030E040E050E009C02FEF3FEFD6
:1007E0004FEF5FE704C020E030E040E050E8B9019F
:1007F000CA012C96E2E00C943023DF92EF92FF9234
:100800000F931F93FC01E480F58006811781D1804E
:100810008081823048F480E090E0A0E1B0E0E82AF6
:10082000F92A0A2B1B2BA5C0843009F49FC0823003
:1008300021F4EE24FF24870105C0E114F104010531
:10084000110519F4E0E0F0E096C0628173819FEF3A
:10085000623879070CF05BC022E83FEF261B370BAC
:100860002A3131052CF020E030E040E050E02AC091
:10087000B801A701022E04C0769567955795479554
:100880000A94D2F781E090E0A0E0B0E004C0880FC5
:10089000991FAA1FBB1F2A95D2F70197A109B10979
:1008A0008E219F21A023B1230097A105B10521F03E
:1008B00081E090E0A0E0B0E09A01AB01282B392B59
:1008C0004A2B5B2BDA01C9018F779070A070B07052
:1008D00080349105A105B10539F427FF09C0205CDA
:1008E0003F4F4F4F5F4F04C0215C3F4F4F4F5F4F13
:1008F000E0E0F0E02030A0E03A07A0E04A07A0E402
:100900005A0710F0E1E0F0E079018A0127C0603871
:10091000710564F5FB01E158FF4FD801C7018F77DE
:100920009070A070B07080349105A105B10539F4C4
:10093000E7FE0DC080E490E0A0E0B0E004C08FE3EB
:1009400090E0A0E0B0E0E80EF91E0A1F1B1F17FFA1
:1009500005C016950795F794E794319687E01695AC
:100960000795F794E7948A95D1F705C0EE24FF2404
:100970008701EFEFF0E06E2F679566276795902F60
:100980009F77D794DD24D7948E2F8695492F462BB9
:10099000582F5D29B701CA011F910F91FF90EF9069
:1009A000DF900895FC01DB01408151812281622F9B
:1009B0006F7770E0221F2227221F9381892F880FD3
:1009C000822B282F30E0991F9927991F11969C930D
:1009D000119721153105A9F54115510561057105DD
:1009E00011F482E037C082E89FEF13969C938E93B8
:1009F00012979A01AB0167E0220F331F441F551F66
:100A00006A95D1F783E08C930DC0220F331F441FEA
:100A1000551F12968D919C911397019713969C9355
:100A20008E931297203080E0380780E0480780E4FA
:100A3000580758F314962D933D934D935C93179755
:100A400008952F3F310579F4411551056105710570
:100A500019F484E08C93089564FF03C081E08C93C3
:100A600012C01C9210C02F57304013963C932E9307
:100A7000129783E08C9387E0440F551F661F771F02
:100A80008A95D1F7706414964D935D936D937C9322
:100A9000179708951F93DC01FB019C91923008F495
:100AA00047C08081823008F443C0943051F41196DD
:100AB0001C91843099F58181682F70E0611B710968
:100AC0003FC0843021F0923031F48230B9F181811D
:100AD000882389F12DC011961C9111978230F1F075
:100AE00081811817D9F412962D913C911397828128
:100AF00093818217930794F028173907BCF0149656
:100B00008D919D910D90BC91A02D248135814681C0
:100B10005781281739074A075B0718F4112341F05A
:100B20000AC082179307A407B50740F4112319F0F0
:100B300061E070E005C06FEF7FEF02C060E070E041
:100B4000CB011F910895DF93CF9300D00F92CDB7C3
:100B5000DEB71B821A821982ABE2B0E0EBE2F0E072
:100B600080818D7F8C938B8180688B838B818F7B41
:100B70008B838B818F7E8B838B818F7D8B838B810E
:100B800082608B838B8184608B83AAE2B0E0EAE28F
:100B9000F0E080818B7F8C938B81877F8B83E0E477
:100BA000F0E08B81808380910F01909110019A83F6
:100BB0008983E0E4F0E089819A81892F99278083F5
:100BC000E9E2F0E089818083AAE2B0E0EAE2F0E0C5
:100BD000808180618C93AAE2B0E0EAE2F0E080815B
:100BE00088608C930F900F900F90CF91DF910895B4
:100BF000DF93CF93CDB7DEB7AAE2B0E0EAE2F0E050
:100C0000808180688C93CF91DF910895DF93CF939B
:100C1000CDB7DEB7AAE2B0E0EAE2F0E080818F77FC
:100C20008C93CF91DF910895DF93CF93CDB7DEB74B
:100C3000AAE2B0E0EAE2F0E0808180648C93CF9198
:100C4000DF910895DF93CF93CDB7DEB7AAE2B0E08E
:100C5000EAE2F0E080818F7B8C93CF91DF91089561
:100C6000DF93CF9300D0CDB7DEB79A838983898194
:100C70009A8190935501809354010F900F90CF91DA
:100C8000DF910895DF93CF9300D0CDB7DEB79A837D
:100C9000898389819A8190935701809356010F909F
:100CA0000F90CF91DF9108951F920F920FB60F9280
:100CB00011242F933F934F935F936F937F938F9361
:100CC0009F93AF93BF93EF93FF93DF93CF93CDB7F2
:100CD000DEB78091540190915501009729F0E09181
:100CE0005401F09155010995CF91DF91FF91EF915A
:100CF000BF91AF919F918F917F916F915F914F9134
:100D00003F912F910F900FBE0F901F9018951F923B
:100D10000F920FB60F9211242F933F934F935F932F
:100D20006F937F938F939F93AF93BF93EF93FF93B3
:100D3000DF93CF93CDB7DEB78091560190915701E5
:100D4000009729F0E0915601F09157010995CF9154
:100D5000DF91FF91EF91BF91AF919F918F917F9123
:100D60006F915F914F913F912F910F900FBE0F9018
:100D70001F901895DF93CF930F92CDB7DEB789837D
:100D8000ECE2F0E0898180830F90CF91DF910895AC
:100D9000DF93CF93CDB7DEB7ECE2F0E08081CF9167
:100DA000DF910895DF93CF930F92CDB7DEB789839C
:100DB000EBE2F0E08081829586958770882F90E045
:100DC000817090700097A1F3ECE2F0E0898180835C
:100DD0000F90CF91DF910895DF93CF93CDB7DEB71A
:100DE000EBE2F0E080818823DCF7ECE2F0E0808148
:100DF000CF91DF910895DF93CF9300D00F92CDB7BD
:100E0000DEB79B838A831982EBE2F0E0808188233E
:100E10004CF4ECE2F0E08081EA81FB81808381E0A8
:100E2000898301C0198289810F900F900F90CF9113
:100E3000DF910895DF93CF93CDB7DEB727970FB635
:100E4000F894DEBF0FBECDBF89836A834B8389814F
:100E5000282F30E03F832E838E819F818130910542
:100E600021F12E813F81223031052CF48E819F812A
:100E7000009761F046C02E813F812230310521F17B
:100E80008E819F818330910571F13BC0A3E5B0E075
:100E9000E3E5F0E080818F7B8C93A3E5B0E0E3E5B0
:100EA000F0E08081877F8C932CC0A3E5B0E0E3E580
:100EB000F0E0808180648C93A3E5B0E0E3E5F0E0AE
:100EC0008081877F8C931DC0A3E5B0E0E3E5F0E06F
:100ED00080818F7B8C93A3E5B0E0E3E5F0E0808137
:100EE00088608C930EC0A3E5B0E0E3E5F0E080817C
:100EF00080648C93A3E5B0E0E3E5F0E08081886056
:100F00008C93A3E5B0E0E3E5F0E08081982F987F33
:100F10008A81892B8C938A8180935A018B81282F17
:100F200030E03D832C838C819D818130910521F1BE
:100F30002C813D81223031052CF48C819D810097DC
:100F400061F046C02C813D812230310521F18C8138
:100F50009D818330910571F13BC0A3E5B0E0E3E5ED
:100F6000F0E080818F7E8C93A3E5B0E0E3E5F0E0D4
:100F700080818F7D8C932CC0A3E5B0E0E3E5F0E0A9
:100F8000808180618C93A3E5B0E0E3E5F0E08081AF
:100F90008F7D8C931DC0A3E5B0E0E3E5F0E0808198
:100FA0008F7E8C93A3E5B0E0E3E5F0E08081806282
:100FB0008C930EC0A3E5B0E0E3E5F0E080818061B2
:100FC0008C93A3E5B0E0E3E5F0E0808180628C9350
:100FD00027960FB6F894DEBF0FBECDBFCF91DF913D
:100FE0000895DF93CF93CDB7DEB727970FB6F89468
:100FF000DEBF0FBECDBF89836A834B838981282FD3
:1010000030E03F832E838E819F818130910521F1D5
:101010002E813F81223031052CF48E819F810097F3
:1010200061F046C02E813F812230310521F18E8151
:101030009F818330910571F13BC0A5E4B0E0E5E408
:10104000F0E080818F7B8C93A5E4B0E0E5E4F0E0F4
:101050008081877F8C932CC0A5E4B0E0E5E4F0E0CC
:10106000808180648C93A5E4B0E0E5E4F0E08081C9
:10107000877F8C931DC0A5E4B0E0E5E4F0E08081BB
:101080008F7B8C93A5E4B0E0E5E4F0E0808188609C
:101090008C930EC0A5E4B0E0E5E4F0E080818064CC
:1010A0008C93A5E4B0E0E5E4F0E0808188608C9367
:1010B000A5E4B0E0E5E4F0E08081982F987F8A8194
:1010C000892B8C938A8180935C018B81282F30E05F
:1010D0003D832C838C819D818130910521F12C8170
:1010E0003D81223031052CF48C819D81009761F087
:1010F00046C02C813D812230310521F18C819D81BA
:101100008330910571F13BC0A5E4B0E0E5E4F0E087
:1011100080818F7E8C93A5E4B0E0E5E4F0E08081EF
:101120008F7D8C932CC0A5E4B0E0E5E4F0E08081F5
:1011300080618C93A5E4B0E0E5E4F0E080818F7DF0
:101140008C931DC0A5E4B0E0E5E4F0E080818F7EE3
:101150008C93A5E4B0E0E5E4F0E0808180628C93BC
:101160000EC0A5E4B0E0E5E4F0E0808180618C93FE
:10117000A5E4B0E0E5E4F0E0808180628C932796FE
:101180000FB6F894DEBF0FBECDBFCF91DF910895AB
:10119000DF93CF93CDB7DEB7A9E5B0E0E9E5F0E0A6
:1011A000808181608C93CF91DF910895DF93CF93FD
:1011B000CDB7DEB7A9E5B0E0E9E5F0E080818E7F4C
:1011C0008C93CF91DF910895DF93CF93CDB7DEB7A6
:1011D000A9E5B0E0E9E5F0E0808182608C93CF91F1
:1011E000DF910895DF93CF93CDB7DEB7A9E5B0E0E7
:1011F000E9E5F0E080818D7F8C93CF91DF910895B8
:10120000DF93CF9300D0CDB7DEB79A8389838981EE
:101210009A8190935E0180935D010F900F90CF9122
:10122000DF910895DF93CF9300D0CDB7DEB79A83D7
:10123000898389819A819093600180935F010F90E7
:101240000F90CF91DF910895DF93CF930F92CDB799
:10125000DEB78983E2E5F0E0898180830F90CF914A
:10126000DF910895DF93CF930F92CDB7DEB78983D7
:10127000ECE5F0E0898180830F90CF91DF910895B4
:10128000DF93CF93CDB7DEB7E2E5F0E08081CF9179
:10129000DF910895DF93CF93CDB7DEB7A3E5B0E03C
:1012A000E3E5F0E08081887F8C93CF91DF91089512
:1012B000DF93CF93CDB7DEB7A3E5B0E0E3E5F0E091
:1012C000908180915A01892B8C93CF91DF91089561
:1012D000DF93CF93CDB7DEB7A9E5B0E0E9E5F0E065
:1012E000808180688C93CF91DF910895DF93CF93B5
:1012F000CDB7DEB7A9E5B0E0E9E5F0E080818F7712
:101300008C93CF91DF910895DF93CF9300D0CDB729
:10131000DEB79A83898389819A8190936201809351
:1013200061010F900F90CF91DF910895DF93CF93DC
:1013300000D0CDB7DEB79A83898389819A81909353
:101340006401809363010F900F90CF91DF91089516
:10135000DF93CF930F92CDB7DEB78983E4E4F0E05B
:10136000898180830F90CF91DF910895DF93CF9390
:101370000F92CDB7DEB78983E3E4F0E08981808303
:101380000F90CF91DF910895DF93CF93CDB7DEB764
:10139000E4E4F0E08081CF91DF910895DF93CF9373
:1013A000CDB7DEB7A5E4B0E0E5E4F0E08081887F6A
:1013B0008C93CF91DF910895DF93CF93CDB7DEB7B4
:1013C000A5E4B0E0E5E4F0E0908180915C01892B38
:1013D0008C93CF91DF910895DF93CF9300D00F923C
:1013E000CDB7DEB789837B836A83E4E4F0E01082C3
:1013F00082E062E040E00E94F107E3E4F0E08981EE
:1014000080838A819B810E9496090E9468090F90BF
:101410000F900F90CF91DF910895DF93CF93CDB7C9
:10142000DEB72A970FB6F894DEBF0FBECDBF898313
:101430006A834B832C838981282F30E03A87298760
:1014400089859A858230910509F456C029853A85A7
:101450002330310554F489859A85009799F02985C0
:101460003A852130310559F19DC089859A858330AF
:10147000910509F45EC029853A852430310509F4C7
:1014800075C090C0AFE4B0E0EFE4F0E080818E7F03
:101490008C93AFE4B0E0EFE4F0E080818D7F8C933B
:1014A000AEE4B0E0EEE4F0E08081877F8C93AEE4C0
:1014B000B0E0EEE4F0E080818F7E8C9373C0AFE407
:1014C000B0E0EFE4F0E080818E7F8C93AFE4B0E099
:1014D000EFE4F0E080818D7F8C93AEE4B0E0EEE449
:1014E000F0E0808188608C93AEE4B0E0EEE4F0E060
:1014F000808180618C9356C0AFE4B0E0EFE4F0E00F
:1015000080818E7F8C93AFE4B0E0EFE4F0E08081E7
:101510008D7F8C93AEE4B0E0EEE4F0E080818860F3
:101520008C93AEE4B0E0EEE4F0E080818F7E8C93AB
:1015300039C0AFE4B0E0EFE4F0E080818E7F8C93BF
:10154000AFE4B0E0EFE4F0E0808182608C93AEE441
:10155000B0E0EEE4F0E0808188608C93AEE4B0E02F
:10156000EEE4F0E0808180618C931CC0AFE4B0E0D9
:10157000EFE4F0E0808181608C93AFE4B0E0EFE4D1
:10158000F0E0808182608C93AEE4B0E0EEE4F0E0C5
:10159000808188608C93AEE4B0E0EEE4F0E080817E
:1015A00080618C938B81282F30E038872F838F8147
:1015B00098858130910521F12F81388522303105C0
:1015C0002CF48F819885009761F046C02F81388573
:1015D0002230310521F18F8198858330910571F199
:1015E0003BC0AFE4B0E0EFE4F0E080818F7B8C9310
:1015F000AFE4B0E0EFE4F0E080818F778C932CC013
:10160000AFE4B0E0EFE4F0E0808180648C93AFE47D
:10161000B0E0EFE4F0E080818F778C931DC0AFE401
:10162000B0E0EFE4F0E080818F7B8C93AFE4B0E03A
:10163000EFE4F0E0808180688C930EC0AFE4B0E00E
:10164000EFE4F0E0808180648C93AFE4B0E0EFE4FD
:10165000F0E0808180688C938C81282F30E03E837D
:101660002D838D819E818130910521F12D813E81D7
:10167000223031052CF48D819E81009761F046C0A7
:101680002D813E812230310521F18D819E81833073
:10169000910571F13BC0AFE4B0E0EFE4F0E0808190
:1016A0008F7E8C93AFE4B0E0EFE4F0E080818F7D3B
:1016B0008C932CC0AFE4B0E0EFE4F0E08081806177
:1016C0008C93AFE4B0E0EFE4F0E080818F7D8C9309
:1016D0001DC0AFE4B0E0EFE4F0E080818F7E8C933A
:1016E000AFE4B0E0EFE4F0E0808180628C930EC064
:1016F000AFE4B0E0EFE4F0E0808180618C93AFE490
:10170000B0E0EFE4F0E0808180628C93AEE4B0E082
:10171000EEE4F0E08081887F8C93AEE4B0E0EEE40C
:10172000F0E090818A81892B8C938A8180935B0180
:101730002A960FB6F894DEBF0FBECDBFCF91DF91D2
:101740000895DF93CF930F92CDB7DEB78983898158
:10175000882341F4AEE4B0E0EEE4F0E08081806400
:101760008C930AC08981813039F4AEE4B0E0EEE4B4
:10177000F0E080818F7B8C930F90CF91DF91089563
:10178000DF93CF9300D0CDB7DEB79A838983ECE4A3
:10179000F0E089819A81918380830F900F90CF919F
:1017A000DF910895DF93CF9300D0CDB7DEB79A8352
:1017B0008983EAE4F0E089819A81918380830F90A4
:1017C0000F90CF91DF910895DF93CF9300D0CDB7E5
:1017D000DEB79A838983E8E4F0E089819A81918376
:1017E00080830F900F90CF91DF910895DF93CF9377
:1017F00000D0CDB7DEB79A838983E6E4F0E0898133
:101800009A81918380830F900F90CF91DF910895FB
:10181000DF93CF93CDB7DEB7ECE4F0E08081918128
:10182000CF91DF910895DF93CF93CDB7DEB7AEE4CC
:10183000B0E0EEE4F0E08081887F8C93CF91DF917F
:101840000895DF93CF93CDB7DEB70E94130CAEE4BB
:10185000B0E0EEE4F0E0908180915B01892B8C9305
:10186000CF91DF910895DF93CF93CDB7DEB7A9E590
:10187000B0E0E9E5F0E0808180628C93CF91DF9168
:101880000895DF93CF93CDB7DEB7A9E5B0E0E9E5E2
:10189000F0E080818F7D8C93CF91DF910895DF936D
:1018A000CF93CDB7DEB7A9E5B0E0E9E5F0E0808100
:1018B00084608C93CF91DF910895DF93CF93CDB760
:1018C000DEB7A9E5B0E0E9E5F0E080818B7F8C939D
:1018D000CF91DF910895DF93CF93CDB7DEB7A9E520
:1018E000B0E0E9E5F0E0808180618C93CF91DF91F9
:1018F0000895DF93CF93CDB7DEB7A9E5B0E0E9E572
:10190000F0E080818F7E8C93CF91DF910895DF93FB
:10191000CF93CDB7DEB7A9E5B0E0E9E5F0E080818F
:1019200088608C93CF91DF910895DF93CF93CDB7EB
:10193000DEB7A9E5B0E0E9E5F0E08081877F8C9330
:10194000CF91DF910895DF93CF9300D0CDB7DEB76D
:101950009A83898389819A81909366018093650136
:101960000F900F90CF91DF910895DF93CF9300D028
:10197000CDB7DEB79A83898389819A819093680174
:10198000809367010F900F90CF91DF910895DF93BF
:10199000CF9300D0CDB7DEB79A83898389819A81AE
:1019A00090936A01809369010F900F90CF91DF911E
:1019B0000895DF93CF9300D0CDB7DEB79A838983A4
:1019C00089819A8190936C0180936B010F900F90A5
:1019D000CF91DF9108951F920F920FB60F921124AD
:1019E0002F933F934F935F936F937F938F939F9327
:1019F000AF93BF93EF93FF93DF93CF93CDB7DEB752
:101A000080915F0190916001009729F0E0915F0162
:101A1000F09160010995CF91DF91FF91EF91BF9116
:101A2000AF919F918F917F916F915F914F913F9176
:101A30002F910F900FBE0F901F9018951F920F922D
:101A40000FB60F9211242F933F934F935F936F9391
:101A50007F938F939F93AF93BF93EF93FF93DF9306
:101A6000CF93CDB7DEB7809161019091620100976D
:101A700029F0E0916101F09162010995CF91DF9128
:101A8000FF91EF91BF91AF919F918F917F916F9156
:101A90005F914F913F912F910F900FBE0F901F902C
:101AA00018951F920F920FB60F9211242F933F9308
:101AB0004F935F936F937F938F939F93AF93BF9356
:101AC000EF93FF93DF93CF93CDB7DEB780916301A0
:101AD00090916401009729F0E0916301F091640115
:101AE0000995CF91DF91FF91EF91BF91AF919F91B8
:101AF0008F917F916F915F914F913F912F910F90B7
:101B00000FBE0F901F9018951F920F920FB60F9255
:101B100011242F933F934F935F936F937F938F93F2
:101B20009F93AF93BF93EF93FF93DF93CF93CDB783
:101B3000DEB78091650190916601009729F0E091F0
:101B40006501F09166010995CF91DF91FF91EF91C9
:101B5000BF91AF919F918F917F916F915F914F91C5
:101B60003F912F910F900FBE0F901F9018951F92CD
:101B70000F920FB60F9211242F933F934F935F93C1
:101B80006F937F938F939F93AF93BF93EF93FF9345
:101B9000DF93CF93CDB7DEB7809167019091680155
:101BA000009729F0E0916701F09168010995CF91C4
:101BB000DF91FF91EF91BF91AF919F918F917F91B5
:101BC0006F915F914F913F912F910F900FBE0F90AA
:101BD0001F9018951F920F920FB60F9211242F93FA
:101BE0003F934F935F936F937F938F939F93AF93A5
:101BF000BF93EF93FF93DF93CF93CDB7DEB7809181
:101C0000690190916A01009729F0E0916901F091D2
:101C10006A010995CF91DF91FF91EF91BF91AF914B
:101C20009F918F917F916F915F914F913F912F91F4
:101C30000F900FBE0F901F9018951F920F920FB626
:101C40000F9211242F933F934F935F936F937F9342
:101C50008F939F93AF93BF93EF93FF93DF93CF93B4
:101C6000CDB7DEB780916B0190916C01009729F0A0
:101C7000E0916B01F0916C010995CF91DF91FF919B
:101C8000EF91BF91AF919F918F917F916F915F91F4
:101C90004F913F912F910F900FBE0F901F9018956D
:101CA000DF93CF93CDB7DEB783E062E042E020E080
:101CB0000E940D0ACF91DF910895DF93CF9300D05A
:101CC00000D0CDB7DEB79C838B838B819C8100973E
:101CD000D1F488EE93E02B813C81B9010E94BB22B4
:101CE000CB019A83898389819A81009741F0E6E448
:101CF000F0E089819A8101979183808304C0E6E4B2
:101D0000F0E0118210820F900F900F900F90CF9102
:101D1000DF910895DF93CF9300D000D0CDB7DEB729
:101D20009C838B838B819C81009709F58B819C819F
:101D30009C0140E050E080E492E4AFE0B0E0BC0100
:101D4000CD010E94E222DA01C9019A838983898147
:101D50009A81009741F0E6E4F0E089819A81019749
:101D60009183808304C0E6E4F0E0118210820F903A
:101D70000F900F900F90CF91DF910895DF93CF9345
:101D800000D000D00F92CDB7DEB789837B836A8302
:101D90008981282F30E03D832C838C819D81813087
:101DA000910539F12C813D81223031052CF48C8153
:101DB0009D81009769F063C02C813D8122303105FF
:101DC00099F18C819D818330910509F448C057C0F9
:101DD00080917001882329F483E062E042E00E9450
:101DE0001A07ECE5F0E08A81808381E0809370013E
:101DF00046C080916F01882331F483E062E042E0C5
:101E000022E00E940D0AE6E4F0E08FEF8083E7E431
:101E1000F0E01082E8E4F0E08A819B819183808386
:101E200081E080936F012BC080916E01882331F493
:101E300083E062E042E022E00E940D0AE6E4F0E086
:101E40008FEF8083E7E4F0E01082EAE4F0E08A813B
:101E50009B819183808381E080936E0110C080918B
:101E60006D01882329F483E062E042E00E94F107DB
:101E7000E3E4F0E08A81808381E080936D010F903C
:101E80000F900F900F900F90CF91DF910895EF92E8
:101E9000FF920F931F93DF93CF9300D000D0CDB765
:101EA000DEB79C838B838B819C818536910580F581
:101EB0008B819C817C0100E010E0E6E4F0E0808111
:101EC000918101969C0140E050E0C801B7010E9459
:101ED0009C22DC01CB0124E630E040E050E0BC0174
:101EE000CD010E94E222DA01C9019A8389838981A6
:101EF0009A818230910540F0EAE4F0E089819A818C
:101F000001979183808304C0EAE4F0E0118210829B
:101F10000F900F900F900F90CF91DF911F910F9125
:101F2000FF90EF900895DF93CF9300D000D000D0C2
:101F3000CDB7DEB769837A838B839C835E834D83C1
:101F400080E090E00E94C00B82E062E040E020E090
:101F50000E940D0AEAE4F0E089819A810197918359
:101F600080838D819E810E94B50C0E946B0C269609
:101F70000FB6F894DEBF0FBECDBFCF91DF910895AD
:101F8000DF93CF9300D000D0CDB7DEB78A836B83C9
:101F90004C8381E089838C81813019F08C81882386
:101FA000C9F58B818830B0F58A81843098F58A81B3
:101FB000882F90E0880F991FFC01E455FF4FA08106
:101FC000B1818A81882F90E0880F991FFC01E45528
:101FD000FF4F0190F081E02D8081482F8B81282FC9
:101FE00030E081E090E002C0880F991F2A95E2F767
:101FF000809548238C81282F30E08B81882F90E0BA
:10200000B90102C0660F771F8A95E2F7CB01842BD6
:102010008C9302C082E0898389810F900F900F908A
:102020000F90CF91DF910895DF93CF9300D0CDB77C
:10203000DEB789836A838981882F90E0880F991F92
:10204000FC01E455FF4F0190F081E02D8A818083EF
:102050000F900F90CF91DF910895DF93CF9300D031
:10206000CDB7DEB789836A838981882F90E0880F96
:10207000991FFC01E455FF4FA081B1818981882F10
:1020800090E0880F991FFC01E455FF4F0190F0810B
:10209000E02D90818A81892B8C930F900F90CF91A6
:1020A000DF910895DF93CF9300D000D0CDB7DEB796
:1020B0008A836B834C8381E089838C81813019F022
:1020C0008C818823B1F58B81883098F58A81882F9F
:1020D00090E0880F991FFC01EC54FF4FA081B18163
:1020E0008A81882F90E0880F991FFC01EC54FF4FE4
:1020F0000190F081E02D8081482F8B81282F30E0E6
:1021000081E090E002C0880F991F2A95E2F7809540
:1021100048238C81282F30E08B81882F90E0B901F3
:1021200002C0660F771F8A95E2F7CB01842B8C9350
:1021300002C082E0898389810F900F900F900F90E9
:10214000CF91DF910895DF93CF9300D0CDB7DEB765
:1021500089836A838981882F90E0880F991FFC0109
:10216000EC54FF4F0190F081E02D8A8180830F9025
:102170000F90CF91DF910895DF93CF9300D0CDB72B
:10218000DEB789836A838981882F90E0880F991F41
:10219000FC01EC54FF4FA081B1818981882F90E030
:1021A000880F991FFC01EC54FF4F0190F081E02D46
:1021B00090818A81892B8C930F900F90CF91DF9122
:1021C0000895DF93CF9300D0CDB7DEB789836A83BC
:1021D0008981882F90E0880F991FFC01EC54FF4FF4
:1021E000A081B1818981882F90E0880F991FFC011F
:1021F000EC54FF4F0190F081E02D8081982F8A816F
:10220000809589238C930F900F90CF91DF91089543
:10221000DF93CF9300D00F92CDB7DEB789836A8367
:102220004B838981882F90E0880F991FFC01EC5423
:10223000FF4FA081B1818981882F90E0880F991F7D
:10224000FC01EC54FF4F0190F081E02D8081982F2C
:102250008B81809598238A81892B8C930F900F9086
:102260000F90CF91DF910895DF93CF9300D000D0EE
:102270000F92CDB7DEB78A836B835D834C8381E099
:1022800089838B818830E8F48A81882F90E0880FD9
:10229000991FFC01E454FF4F0190F081E02D8081F3
:1022A000282F30E08B81882F90E0A90102C055953E
:1022B00047958A95E2F7CA018170EC81FD818083A0
:1022C00002C082E0898389810F900F900F900F9058
:1022D0000F90CF91DF910895DF93CF9300D0CDB7CA
:1022E000DEB789836A838981882F90E0880F991FE0
:1022F000FC01E454FF4F0190F081E02D8081282FF4
:1023000030E08A81882F90E0A90102C05595479559
:102310008A95E2F7CA0181700F900F90CF91DF91FB
:102320000895DF93CF9300D000D0CDB7DEB78A8376
:102330007C836B8381E089838A81843080F48A8105
:10234000882F90E0880F991FFC01E454FF4F019003
:10235000F081E02D8081EB81FC81808302C082E0EE
:10236000898389810F900F900F900F90CF91DF910B
:102370000895DF93CF930F92CDB7DEB7898389811C
:10238000882F90E0880F991FFC01E454FF4F0190C3
:10239000F081E02D80810F90CF91DF910895DF9340
:1023A000CF9300D00F92CDB7DEB78A836B8381E0E5
:1023B00089838B81883088F58A81882F90E0880F07
:1023C000991FFC01EC54FF4FA081B1818A81882FB5
:1023D00090E0880F991FFC01EC54FF4F0190F081B1
:1023E000E02D8081482F8B81282F30E081E090E024
:1023F00002C0880F991F2A95E2F7809548238B81A8
:10240000282F30E081E090E0022E02C0880F991F53
:102410000A94E2F7842B8C9302C082E0898389813D
:102420000F900F900F90CF91DF910895DF93CF938E
:1024300000D00F92CDB7DEB78A836B8381E08983AA
:102440008B81883030F58A81882F90E0880F991F22
:10245000FC01EC54FF4FA081B1818A81882F90E06C
:10246000880F991FFC01EC54FF4F0190F081E02D83
:102470008081482F8B81282F30E081E090E0022E70
:1024800002C0880F991F0A94E2F7809584238C93E9
:1024900002C082E0898389810F900F900F90CF91C5
:1024A000DF910895DF93CF930F92CDB7DEB71982F6
:1024B00031C08981282F30E0CE010796FC01E20F60
:1024C000F31F8081813019F54E818981282F30E0FA
:1024D000CE010F96FC01E20FF31F9081842F6981DA
:1024E000492F0E94C00F8981282F30E0CE014796E6
:1024F000FC01E20FF31F8081813029F48E81698114
:102500000E94CF1104C08E8169810E9416128981B8
:102510008F5F89838981883060F20F90CF91DF913E
:102520000895DF93CF9300D0CDB7DEB79A83898328
:10253000E981FA8182819381909372018093710184
:10254000ABE5B0E0EBE5F0E0808180648C93E9815D
:10255000FA818181813079F4A5E5B0E0E5E5F0E02C
:1025600080818E7F8C93A5E5B0E0E5E5F0E0808189
:102570008D7F8C933BC0E981FA818181823079F42F
:10258000A5E5B0E0E5E5F0E0808181608C93A5E50C
:10259000B0E0E5E5F0E080818D7F8C9327C0E98194
:1025A000FA818181833079F4A5E5B0E0E5E5F0E0DA
:1025B00080818E7F8C93A5E5B0E0E5E5F0E0808139
:1025C00082608C9313C0E981FA818181843071F437
:1025D000A5E5B0E0E5E5F0E0808181608C93A5E5BC
:1025E000B0E0E5E5F0E0808182608C930F900F9081
:1025F000CF91DF910895DF93CF9300D0CDB7DEB7B1
:102600009A838983E981FA8182819381909374010D
:1026100080937301ABE5B0E0EBE5F0E0808180688A
:102620008C93E981FA818181813079F4A5E5B0E06C
:10263000E5E5F0E080818B7F8C93A5E5B0E0E5E5F2
:10264000F0E08081877F8C933BC0E981FA818181B2
:10265000823079F4A5E5B0E0E5E5F0E080818460C2
:102660008C93A5E5B0E0E5E5F0E08081877F8C9371
:1026700027C0E981FA818181833079F4A5E5B0E052
:10268000E5E5F0E080818B7F8C93A5E5B0E0E5E5A2
:10269000F0E0808188608C9313C0E981FA818181A8
:1026A000843071F4A5E5B0E0E5E5F0E08081846078
:1026B0008C93A5E5B0E0E5E5F0E0808188608C933F
:1026C0000F900F90CF91DF910895DF93CF9300D0BB
:1026D000CDB7DEB79A838983E981FA8182819381BC
:1026E0009093760180937501ABE5B0E0EBE5F0E007
:1026F000808180628C93E981FA818181833041F409
:10270000A4E5B0E0E4E5F0E080818F7B8C930CC021
:10271000E981FA818181843039F4A4E5B0E0E4E50F
:10272000F0E0808180648C930F900F90CF91DF91C7
:102730000895DF93CF9300D0CDB7DEB79A83898316
:10274000E981FA818081813029F489819A810E940E
:10275000911213C0E981FA818081823029F4898144
:102760009A810E94FB1209C0E981FA81808183303D
:1027700021F489819A810E9465130F900F90CF9167
:10278000DF910895DF93CF930F92CDB7DEB78983A2
:102790008981833079F4A5E5B0E0E5E5F0E080815A
:1027A0008E7F8C93A5E5B0E0E5E5F0E08081826066
:1027B0008C9311C08981843071F4A5E5B0E0E5E522
:1027C000F0E0808181608C93A5E5B0E0E5E5F0E084
:1027D000808182608C930F90CF91DF910895DF9379
:1027E000CF9300D0CDB7DEB79A83898389819A8150
:1027F00090937201809371010F900F90CF91DF91B0
:1028000008951F920F920FB60F9211242F933F93AA
:102810004F935F936F937F938F939F93AF93BF93E8
:10282000EF93FF93DF93CF93CDB7DEB7E0917101C4
:10283000F09172010995CF91DF91FF91EF91BF91D6
:10284000AF919F918F917F916F915F914F913F9148
:102850002F910F900FBE0F901F9018951F920F92FF
:102860000FB60F9211242F933F934F935F936F9363
:102870007F938F939F93AF93BF93EF93FF93DF93D8
:10288000CF93CDB7DEB7E0917501F0917601099550
:10289000CF91DF91FF91EF91BF91AF919F918F9178
:1028A0007F916F915F914F913F912F910F900FBE4C
:1028B0000F901F901895DF93CF93CDB7DEB7E997B0
:1028C0000FB6F894DEBF0FBECDBF89AF80E061E0E8
:1028D00040E00E94521080E062E040E00E9452100E
:1028E00089AD82958F70982F917080E064E0492FB8
:1028F0000E94521089AD829586958770982F9170AD
:1029000080E065E0492F0E94521089AD829586953E
:1029100086958370982F917080E066E0492F0E9421
:10292000521089AD982F991F9927991F80E067E071
:10293000492F0E94521080E063E041E00E94521053
:1029400080E090E0A0E0B0E48DAB9EABAFABB8AF61
:102950006DA97EA98FA998AD20E030E04AEF54E43C
:102960000E941F02DC01CB0189AB9AABABABBCABC5
:1029700069A97AA98BA99CA920E030E040E85FE32F
:102980000E94790388232CF481E090E098AB8FA714
:102990003FC069A97AA98BA99CA920E03FEF4FE726
:1029A00057E40E94190318164CF56DA97EA98FA94A
:1029B00098AD20E030E040E251E40E941F02DC01CB
:1029C000CB01BC01CD010E944900DC01CB0198ABD9
:1029D0008FA70FC088EC90E09EA78DA78DA59EA520
:1029E0000197F1F79EA78DA78FA598A9019798AB9E
:1029F0008FA78FA598A9009769F714C069A97AA92C
:102A00008BA99CA90E944900DC01CB0198AB8FA740
:102A10008FA598A99CA78BA78BA59CA50197F1F7DB
:102A20009CA78BA780E063E040E00E94521080E00A
:102A300090E0A0E0B0E48FA398A7A9A7BAA76FA1E0
:102A400078A589A59AA520E030E04AEF54E40E94D9
:102A50001F02DC01CB018BA39CA3ADA3BEA36BA182
:102A60007CA18DA19EA120E030E040E85FE30E94C0
:102A7000790388232CF481E090E09AA389A33FC0D6
:102A80006BA17CA18DA19EA120E03FEF4FE757E411
:102A90000E94190318164CF56FA178A589A59AA56F
:102AA00020E030E040E251E40E941F02DC01CB0153
:102AB000BC01CD010E944900DC01CB019AA389A38E
:102AC0000FC088EC90E098A38F8F8F8D98A101970D
:102AD000F1F798A38F8F89A19AA101979AA389A34F
:102AE00089A19AA1009769F714C06BA17CA18DA15F
:102AF0009EA10E944900DC01CB019AA389A389A170
:102B00009AA19E8F8D8F8D8D9E8D0197F1F79E8F4F
:102B10008D8F89AD982F917080E064E0492F0E94DD
:102B2000521089AD8695982F917080E065E0492F0D
:102B30000E94521089AD86958695982F917080E0FD
:102B400066E0492F0E94521089AD8695869586953C
:102B5000982F917080E067E0492F0E94521080E02A
:102B600063E041E00E94521080E090E0A0E0B0E419
:102B7000898F9A8FAB8FBC8F698D7A8D8B8D9C8D51
:102B800020E030E04AEF54E40E941F02DC01CB0158
:102B90008D8B9E8BAF8BB88F6D897E898F89988D39
:102BA00020E030E040E85FE30E94790388232CF4C2
:102BB00081E090E09C8B8B8B3FC06D897E898F89F3
:102BC000988D20E03FEF4FE757E40E941903181655
:102BD0004CF5698D7A8D8B8D9C8D20E030E040E244
:102BE00051E40E941F02DC01CB01BC01CD010E9417
:102BF0004900DC01CB019C8B8B8B0FC088EC90E0F3
:102C00009A8B898B89899A890197F1F79A8B898B9D
:102C10008B899C8901979C8B8B8B8B899C890097D6
:102C200069F714C06D897E898F89988D0E9449004B
:102C3000DC01CB019C8B8B8B8B899C89988B8F873C
:102C40008F8598890197F1F7988B8F8780E063E0F3
:102C500040E00E94521080E090E0A0E0B0E48B875A
:102C60009C87AD87BE876B857C858D859E8520E0A2
:102C700030E04AEF54E40E941F02DC01CB018F8355
:102C80009887A987BA876F81788589859A8520E09A
:102C900030E040E85FE30E94790388232CF481E070
:102CA00090E09E838D833FC06F81788589859A856A
:102CB00020E03FEF4FE757E40E94190318164CF548
:102CC0006B857C858D859E8520E030E040E251E477
:102CD0000E941F02DC01CB01BC01CD010E94490012
:102CE000DC01CB019E838D830FC088EC90E09C8338
:102CF0008B838B819C810197F1F79C838B838D81E2
:102D00009E8101979E838D838D819E81009769F7B7
:102D100014C06F81788589859A850E944900DC01FD
:102D2000CB019E838D838D819E819A838983898146
:102D30009A810197F1F79A838983E9960FB6F894FF
:102D4000DEBF0FBECDBFCF91DF910895DF93CF934C
:102D5000CDB7DEB7E9970FB6F894DEBF0FBECDBF93
:102D600089AF80E061E041E00E94521080E062E0C3
:102D700040E00E94521089AD82958F70982F91701B
:102D800080E064E0492F0E94521089AD82958695BB
:102D90008770982F917080E065E0492F0E94521053
:102DA00089AD8295869586958370982F917080E085
:102DB00066E0492F0E94521089AD982F991F9927DC
:102DC000991F80E067E0492F0E94521080E063E085
:102DD00041E00E94521080E090E0A0E0B0E48DABB2
:102DE0009EABAFABB8AF6DA97EA98FA998AD20E01F
:102DF00030E04AEF54E40E941F02DC01CB0189ABB2
:102E00009AABABABBCAB69A97AA98BA99CA920E012
:102E100030E040E85FE30E94790388232CF481E0EE
:102E200090E098AB8FA73FC069A97AA98BA99CA90C
:102E300020E03FEF4FE757E40E94190318164CF5C6
:102E40006DA97EA98FA998AD20E030E040E251E461
:102E50000E941F02DC01CB01BC01CD010E94490090
:102E6000DC01CB0198AB8FA70FC088EC90E09EA748
:102E70008DA78DA59EA50197F1F79EA78DA78FA57C
:102E800098A9019798AB8FA78FA598A9009769F784
:102E900014C069A97AA98BA99CA90E944900DC01E8
:102EA000CB0198AB8FA78FA598A99CA78BA78BA5C3
:102EB0009CA50197F1F79CA78BA780E063E040E019
:102EC0000E94521080E090E0A0E0B0E48FA398A7A9
:102ED000A9A7BAA76FA178A589A59AA520E030E097
:102EE0004AEF54E40E941F02DC01CB018BA39CA398
:102EF000ADA3BEA36BA17CA18DA19EA120E030E07B
:102F000040E85FE30E94790388232CF481E090E09D
:102F10009AA389A33FC06BA17CA18DA19EA120E0B3
:102F20003FEF4FE757E40E94190318164CF56FA1C5
:102F300078A589A59AA520E030E040E251E40E94FE
:102F40001F02DC01CB01BC01CD010E944900DC0164
:102F5000CB019AA389A30FC088EC90E098A38F8F30
:102F60008F8D98A10197F1F798A38F8F89A19AA1CE
:102F700001979AA389A389A19AA1009769F714C020
:102F80006BA17CA18DA19EA10E944900DC01CB0117
:102F90009AA389A389A19AA19E8F8D8F8D8D9E8DD5
:102FA0000197F1F79E8F8D8F89AD982F917080E0FA
:102FB00064E0492F0E94521089AD8695982F917038
:102FC00080E065E0492F0E94521089AD8695869574
:102FD000982F917080E066E0492F0E94521089ADD1
:102FE000869586958695982F917080E067E0492FA9
:102FF0000E94521080E063E041E00E94521080E0A5
:1030000090E0A0E0B0E4898F9A8FAB8FBC8F698D80
:103010007A8D8B8D9C8D20E030E04AEF54E40E9445
:103020001F02DC01CB018D8B9E8BAF8BB88F6D891E
:103030007E898F89988D20E030E040E85FE30E9430
:10304000790388232CF481E090E09C8B8B8B3FC02C
:103050006D897E898F89988D20E03FEF4FE757E497
:103060000E94190318164CF5698D7A8D8B8D9C8DF5
:1030700020E030E040E251E40E941F02DC01CB017D
:10308000BC01CD010E944900DC01CB019C8B8B8BE4
:103090000FC088EC90E09A8B898B89899A89019777
:1030A000F1F79A8B898B8B899C8901979C8B8B8BF1
:1030B0008B899C89009769F714C06D897E898F89F7
:1030C000988D0E944900DC01CB019C8B8B8B8B89F6
:1030D0009C89988B8F878F8598890197F1F7988BBA
:1030E0008F8780E063E040E00E94521080E090E033
:1030F000A0E0B0E48B879C87AD87BE876B857C851D
:103100008D859E8520E030E04AEF54E40E941F0246
:10311000DC01CB018F839887A987BA876F81788577
:1031200089859A8520E030E040E85FE30E947903DA
:1031300088232CF481E090E09E838D833FC06F81D3
:10314000788589859A8520E03FEF4FE757E40E9414
:10315000190318164CF56B857C858D859E8520E0BE
:1031600030E040E251E40E941F02DC01CB01BC01CF
:10317000CD010E944900DC01CB019E838D830FC0ED
:1031800088EC90E09C838B838B819C810197F1F785
:103190009C838B838D819E8101979E838D838D81FE
:1031A0009E81009769F714C06F81788589859A851B
:1031B0000E944900DC01CB019E838D838D819E811D
:1031C0009A83898389819A810197F1F79A83898308
:1031D000E9960FB6F894DEBF0FBECDBFCF91DF9159
:1031E00008950F931F93DF93CF93CDB7DEB7C654E7
:1031F000D0400FB6F894DEBF0FBECDBF80E064E0D4
:1032000041E00E94C00F80E065E041E00E94C00FF5
:1032100080E066E041E00E94C00F80E067E041E0AE
:103220000E94C00F80E061E041E00E94C00F80E09A
:1032300062E041E00E94C00F80E063E041E00E9454
:10324000C00FFE01ED5BFF4F80E090E0A8E4B2E428
:1032500080839183A283B3838E01015C1F4FFE01A3
:10326000ED5BFF4F608171818281938120E030E0CE
:103270004AEF54E40E941F02DC01CB01F801808375
:103280009183A283B383FE01FF9660817181828165
:10329000938120E030E040E85FE30E9479038823D7
:1032A0002CF481E090E09EAF8DAF46C0FE01FF960A
:1032B000608171818281938120E03FEF4FE757E485
:1032C0000E941903181664F5FE01ED5BFF4F608143
:1032D00071818281938120E030E040E251E40E94DC
:1032E0001F02DC01CB01BC01CD010E944900DC01C1
:1032F000CB019EAF8DAF0FC088EC90E09CAF8BAF41
:103300008BAD9CAD0197F1F79CAF8BAF8DAD9EADB2
:1033100001979EAF8DAF8DAD9EAD009769F716C03A
:10332000FE01FF9660817181828193810E94490034
:10333000DC01CB019EAF8DAF8DAD9EAD9AAF89AF55
:1033400089AD9AAD0197F1F79AAF89AF82E00E94FB
:103350005B1480E090E0A0E8BFE38DAB9EABAFAB29
:10336000B8AF6DA97EA98FA998AD20E030E04AEFF3
:1033700054E40E941F02DC01CB0189AB9AABABABDA
:10338000BCAB69A97AA98BA99CA920E030E040E8F0
:103390005FE30E94790388232CF481E090E098ABEE
:1033A0008FA73FC069A97AA98BA99CA920E03FEF0C
:1033B0004FE757E40E94190318164CF56DA97EA932
:1033C0008FA998AD20E030E040E251E40E941F0256
:1033D000DC01CB01BC01CD010E944900DC01CB0125
:1033E00098AB8FA70FC088EC90E09EA78DA78DA506
:1033F0009EA50197F1F79EA78DA78FA598A9019784
:1034000098AB8FA78FA598A9009769F714C069A9F1
:103410007AA98BA99CA90E944900DC01CB0198AB39
:103420008FA78FA598A99CA78BA78BA59CA5019773
:10343000F1F79CA78BA788E20E945B1480E090E0E4
:10344000A0E8BFE38FA398A7A9A7BAA76FA178A503
:1034500089A59AA520E030E04AEF54E40E941F02BB
:10346000DC01CB018BA39CA3ADA3BEA36BA17CA16C
:103470008DA19EA120E030E040E85FE30E94790347
:1034800088232CF481E090E09AA389A33FC06BA12C
:103490007CA18DA19EA120E03FEF4FE757E40E9461
:1034A000190318164CF56FA178A589A59AA520E0F7
:1034B00030E040E251E40E941F02DC01CB01BC017C
:1034C000CD010E944900DC01CB019AA389A30FC062
:1034D00088EC90E098A38F8F8F8D98A10197F1F7DA
:1034E00098A38F8F89A19AA101979AA389A389A1F3
:1034F0009AA1009769F714C06BA17CA18DA19EA130
:103500000E944900DC01CB019AA389A389A19AA159
:103510009E8F8D8F8D8D9E8D0197F1F79E8F8D8F54
:103520008CE00E945B1480E090E0A0E8BFE3898F0C
:103530009A8FAB8FBC8F698D7A8D8B8D9C8D20E09F
:1035400030E04AEF54E40E941F02DC01CB018D8B76
:103550009E8BAF8BB88F6D897E898F89988D20E087
:1035600030E040E85FE30E94790388232CF481E097
:1035700090E09C8B8B8B3FC06D897E898F89988D65
:1035800020E03FEF4FE757E40E94190318164CF56F
:10359000698D7A8D8B8D9C8D20E030E040E251E486
:1035A0000E941F02DC01CB01BC01CD010E94490039
:1035B000DC01CB019C8B8B8B0FC088EC90E09A8B4D
:1035C000898B89899A890197F1F79A8B898B8B89E5
:1035D0009C8901979C8B8B8B8B899C89009769F7C1
:1035E00014C06D897E898F89988D0E944900DC0105
:1035F000CB019C8B8B8B8B899C89988B8F878F853C
:1036000098890197F1F7988B8F8781E00E945B146E
:1036100080E090E0A0EAB1E48B879C87AD87BE870D
:103620006B857C858D859E8520E030E04AEF54E4F3
:103630000E941F02DC01CB018F839887A987BA877C
:103640006F81788589859A8520E030E040E85FE3E6
:103650000E94790388232CF481E090E09E838D837F
:103660003FC06F81788589859A8520E03FEF4FE7DD
:1036700057E40E94190318164CF56B857C858D85DF
:103680009E8520E030E040E251E40E941F02DC0110
:10369000CB01BC01CD010E944900DC01CB019E831E
:1036A0008D830FC088EC90E09C838B838B819C8101
:1036B0000197F1F79C838B838D819E8101979E8377
:1036C0008D838D819E81009769F714C06F81788505
:1036D00089859A850E944900DC01CB019E838D83F8
:1036E0008D819E819A83898389819A810197F1F7DF
:1036F0009A83898386E00E945B1480E80E945B14B1
:10370000CA5BDF4F0FB6F894DEBF0FBECDBFCF91BF
:10371000DF911F910F910895DF93CF930F92CDB753
:10372000DEB7898389810E94A6160F90CF91DF9121
:103730000895DF93CF9300D00F92CDB7DEB79B8370
:103740008A8319820EC08981282F30E08A819B816B
:10375000FC01E20FF31F80810E94A61689818F5F12
:1037600089838981282F30E08A819B81FC01E20FC7
:10377000F31F8081882339F70F900F900F90CF911E
:10378000DF910895DF93CF9300D0CDB7DEB7898363
:103790006A838981882341F48A81803178F48A811F
:1037A00080580E945B140AC08981813039F48A8173
:1037B000803120F48A8180540E945B140F900F9016
:1037C000CF91DF9108950F931F93DF93CF93CDB7E0
:1037D000DEB760970FB6F894DEBF0FBECDBF6D8722
:1037E0007E878F87988B1A828AE0FE013396DF01ED
:1037F000982F1D929A95E9F78D859E85AF85B8899A
:103800000097A105B10591F580E30E94A6164DC071
:103810008A81082F10E08D859E85AF85B8892AE0C2
:1038200030E040E050E0BC01CD010E94E222DC012A
:10383000CB01282F205DCE010396FC01E00FF11F84
:1038400020838D859E85AF85B8892AE030E040E0F1
:1038500050E0BC01CD010E94E222DA01C9018D874E
:103860009E87AF87B88B8A818F5F8A838D859E857F
:10387000AF85B8890097A105B10551F68A81898382
:1038800011C08981882F90E09C0121503040CE01E9
:103890000396FC01E20FF31F80810E94A616898126
:1038A000815089838981882361F760960FB6F894E7
:1038B000DEBF0FBECDBFCF91DF911F910F91089555
:1038C000DF93CF9300D0CDB7DEB79A838983898108
:1038D0009A8120E137E2B9010E94BB2228EE33E051
:1038E000B9010E94BB22CB01805D0E94A61689818E
:1038F0009A8128EE33E0B9010E94BB2224E630E031
:10390000B9010E94BB22CB01805D0E94A61689816D
:103910009A8124E630E0B9010E94BB222AE030E01F
:10392000B9010E94BB22CB01805D0E94A61689814D
:103930009A812AE030E0B9010E94BB22805D0E949A
:10394000A6160F900F90CF91DF9108950F931F93BC
:10395000DF93CF9300D000D00F92CDB7DEB76A834C
:103960007B838C839D8319828A819B81AC81BD81FD
:103970000097A105B105C9F58981882F90E0FC0168
:10398000E958FE4F80E3808338C08981282F30E0DA
:1039900088E090E08C01021B130B8A819B81AC8133
:1039A000BD812AE030E040E050E0BC01CD010E9442
:1039B000E222DC01CB01805DF801E958FE4F8083F3
:1039C0008A819B81AC81BD812AE030E040E050E0FB
:1039D000BC01CD010E94E222DA01C9018A839B83E6
:1039E000AC83BD8389818F5F89838A819B81AC8110
:1039F000BD810097A105B10541F68981282F30E0EE
:103A000089E090E0821B930B89589E4F0F900F9096
:103A10000F900F900F90CF91DF911F910F9108950C
:103A2000EF92FF920F931F93DF93CF93CDB7DEB743
:103A300028970FB6F894DEBF0FBECDBF98878F834F
:103A40001B821C821D821E821A8219822BC02F812A
:103A5000388589819A81F901E80FF91F8081882FC3
:103A600090E0C0977C010027F7FC0095102F8B8118
:103A70009C81AD81BE812AE030E040E050E0BC0195
:103A8000CD010E949C22DC01CB018E0D9F1DA01F49
:103A9000B11F8B839C83AD83BE8389819A810196FC
:103AA0009A8389838F8198850E943B239C01898119
:103AB0009A818217930758F28B819C81AD81BE81D8
:103AC000BC01CD0128960FB6F894DEBF0FBECDBF66
:103AD000CF91DF911F910F91FF90EF900895DF93A9
:103AE000CF9300D000D0CDB7DEB79B838A836C83A1
:103AF00019828C81882F90E00896880F991F880F73
:103B0000991F880F991F0E945B1419820EC089812A
:103B1000282F30E08A819B81FC01E20FF31F808116
:103B20000E94A61689818F5F89838981883078F306
:103B30000F900F900F900F90CF91DF910895DF932A
:103B4000CF93CDB7DEB781E00E945B14CF91DF91B8
:103B50000895DF93CF9300D000D0CDB7DEB789832F
:103B60006A835C834B8389816A810E94C21B8B813B
:103B70009C810E94991B0F900F900F900F90CF91F6
:103B8000DF910895DF93CF9300D00F92CDB7DEB7CA
:103B90009B838A8319820EC08981282F30E08A8115
:103BA0009B81FC01E20FF31F80810E94D206898174
:103BB0008F5F89838981282F30E08A819B81FC0176
:103BC000E20FF31F8081882339F70F900F900F9039
:103BD000CF91DF910895DF93CF9300D0CDB7DEB7BB
:103BE0009A83898389819A81909386018093850144
:103BF000E981FA8180810E94D20688E09EE10E94DC
:103C000042060E9414060F900F90CF91DF91089505
:103C1000DF93CF93CDB7DEB7209185013091860138
:103C20008091C500882F90E0F901E80FF91F80818D
:103C30008823A1F020918501309186018091C500F3
:103C4000882F90E0F901E80FF91F80810E94BA06E1
:103C50008091C5008F5F8093C50005C081E080938F
:103C6000C5000E942206CF91DF910895DF93CF9384
:103C700000D0CDB7DEB79A8389838EE69EE10E949D
:103C800042060E9414068091C400882311F180919D
:103C90008101282F30E089819A81FC01E20FF31F16
:103CA00080818823A1F080918101282F30E08981D3
:103CB0009A81FC01E20FF31F80810E94BA06809175
:103CC00081018F5F809381011092C40002C0109225
:103CD00081010F900F90CF91DF910895DF93CF93E3
:103CE000CDB7DEB781E08093C400CF91DF91089516
:103CF0000F931F93DF93CF9300D00F92CDB7DEB712
:103D00009B838A8319828981282F30E08A819B8155
:103D10008C01020F131F0E94EC06F80180830FC074
:103D200089818F5F89838981282F30E08A819B81F7
:103D30008C01020F131F0E94EC06F8018083898119
:103D4000282F30E08A819B81FC01E20FF31F8081E4
:103D50008D3031F78981282F30E08A819B81FC01E9
:103D6000E20FF31F10820F900F900F90CF91DF9111
:103D70001F910F910895DF93CF9300D0CDB7DEB799
:103D80009A83898389819A8190938801809387019E
:103D90000E94F80583ED9EE10E9430060F900F907F
:103DA000CF91DF9108950F931F93DF93CF93CDB7FA
:103DB000DEB7209187013091880180918201909136
:103DC00083018901080F191F0E94C806F80180832A
:103DD000809184018F5F80938401E0918201F09152
:103DE000830120E130E0CF01B9010E94CF229093FE
:103DF000830180938201CF01019690938301809388
:103E00008201CF91DF911F910F910895DF93CF939E
:103E100000D000D000D0CDB7DEB79E838D831C824A
:103E20001B821A82198214C08B81282F30E08D8169
:103E30009E81FC01E20FF31F8081282F30E08981F1
:103E40009A81820F931F9A8389838B818F5F8B83E3
:103E50008B81282F30E08D819E81FC01E20FF31FC2
:103E60008081882309F78B810E94D2061C820EC0B4
:103E70008C81282F30E08D819E81FC01E20FF31FA1
:103E800080810E94D2068C818F5F8C839C818B8184
:103E9000981770F389810E94D20689819A81892FAF
:103EA00099270E94D20626960FB6F894DEBF0FBE61
:103EB000CDBFCF91DF9108950F931F93DF93CF93E1
:103EC000CDB7DEB72B970FB6F894DEBF0FBECDBFD0
:103ED0009A87898718861F821E821D821C821B82F8
:103EE0001A8219820E94EC068F83188620C088856A
:103EF000282F30E089859A858C01020F131F0E94BC
:103F0000EC06F80180838885282F30E089859A8522
:103F1000FC01E20FF31F8081282F30E089819A8114
:103F2000820F931F9A83898388858F5F88879885FE
:103F30008F819817E0F20E94EC068E830E94EC06B7
:103F40008D838E81282F30E08D81882F90E0982FEF
:103F50008827822B932B9C838B8329813A818B81A9
:103F60009C812817390719F4F1E0FB8701C01B86F3
:103F70008B852B960FB6F894DEBF0FBECDBFCF91C9
:103F8000DF911F910F9108950F931F93DF93CF93AC
:103F9000CDB7DEB78091BB01082F10E00E94C806A4
:103FA000F801E757FE4F80838091BB018F5F8093BC
:103FB000BB01CF91DF911F910F910895DF93CF93B4
:103FC000CDB7DEB76C970FB6F894DEBF0FBECDBF8E
:103FD00083E067E041E00E94521080E090E0A8E4B6
:103FE000B3E4898F9A8FAB8FBC8F698D7A8D8B8D5F
:103FF0009C8D20E030E04AEF54E40E941F02DC0177
:10400000CB018D8B9E8BAF8BB88F6D897E898F890D
:10401000988D20E030E040E85FE30E947903882338
:104020002CF481E090E09C8B8B8B3FC06D897E8966
:104030008F89988D20E03FEF4FE757E40E941903E6
:1040400018164CF5698D7A8D8B8D9C8D20E030E0B3
:1040500040E251E40E941F02DC01CB01BC01CD0112
:104060000E944900DC01CB019C8B8B8B0FC088EC3C
:1040700090E09A8B898B89899A890197F1F79A8BBD
:10408000898B8B899C8901979C8B8B8B8B899C89D5
:10409000009769F714C06D897E898F89988D0E9479
:1040A0004900DC01CB019C8B8B8B8B899C89988B85
:1040B0008F878F8598890197F1F7988B8F8783E099
:1040C00067E040E00E94521080E090E0A8E4B3E492
:1040D0008B879C87AD87BE876B857C858D859E850C
:1040E00020E030E04AEF54E40E941F02DC01CB01E3
:1040F0008F839887A987BA876F81788589859A8504
:1041000020E030E040E85FE30E94790388232CF44C
:1041100081E090E09E838D833FC06F8178858985A3
:104120009A8520E03FEF4FE757E40E9419031816E5
:104130004CF56B857C858D859E8520E030E040E2E6
:1041400051E40E941F02DC01CB01BC01CD010E94A1
:104150004900DC01CB019E838D830FC088EC90E089
:104160009C838B838B819C810197F1F79C838B834C
:104170008D819E8101979E838D838D819E81009785
:1041800069F714C06F81788589859A850E944900F6
:10419000DC01CB019E838D838D819E819A838983EF
:1041A00089819A810197F1F79A8389836C960FB67A
:1041B000F894DEBF0FBECDBFCF91DF910895DF939E
:1041C000CF93CDB7DEB76E970FB6F894DEBF0FBEB4
:1041D000CDBF1E8E1D8EF3C083E067E041E00E94DC
:1041E000521080E090E0A8E4B3E4898F9A8FAB8FFF
:1041F000BC8F698D7A8D8B8D9C8D20E030E04AEFED
:1042000054E40E941F02DC01CB018D8B9E8BAF8B8F
:10421000B88F6D897E898F89988D20E030E040E8E5
:104220005FE30E94790388232CF481E090E09C8B6B
:104230008B8B3FC06D897E898F89988D20E03FEF01
:104240004FE757E40E94190318164CF5698D7A8DD3
:104250008B8D9C8D20E030E040E251E40E941F02F3
:10426000DC01CB01BC01CD010E944900DC01CB0186
:104270009C8B8B8B0FC088EC90E09A8B898B898903
:104280009A890197F1F79A8B898B8B899C89019781
:104290009C8B8B8B8B899C89009769F714C06D89E7
:1042A0007E898F89988D0E944900DC01CB019C8B0F
:1042B0008B8B8B899C89988B8F878F8598890197A9
:1042C000F1F7988B8F8783E067E040E00E945210FF
:1042D00080E090E0A8E4B3E48B879C87AD87BE873D
:1042E0006B857C858D859E8520E030E04AEF54E427
:1042F0000E941F02DC01CB018F839887A987BA87B0
:104300006F81788589859A8520E030E040E85FE319
:104310000E94790388232CF481E090E09E838D83B2
:104320003FC06F81788589859A8520E03FEF4FE710
:1043300057E40E94190318164CF56B857C858D8512
:104340009E8520E030E040E251E40E941F02DC0143
:10435000CB01BC01CD010E944900DC01CB019E8351
:104360008D830FC088EC90E09C838B838B819C8134
:104370000197F1F79C838B838D819E8101979E83AA
:104380008D838D819E81009769F714C06F81788538
:1043900089859A850E944900DC01CB019E838D832B
:1043A0008D819E819A83898389819A810197F1F712
:1043B0009A8389838D8D9E8D01969E8F8D8F8D8D95
:1043C0009E8D853091050CF407CF6E960FB6F8944C
:1043D000DEBF0FBECDBFCF91DF910895DF93CF93A6
:1043E0000F92CDB7DEB783E067E041E00E94C00FD7
:1043F00082E060E041E00E94C00F82E061E041E0C5
:104400000E94C00F82E060E041E00E94521082E012
:1044100061E041E00E9452100E94F1180E94A30541
:104420000E94F80584EC9FE10E9430067894809108
:10443000BB018823E1F30E949F1D20E630E081E06C
:1044400060E0A9010E94A91D25ED30E089E891E016
:10445000B9010E9444230097A1F02DE630E080E0EE
:1044600060E0A9010E94A91D82E060E040E00E9496
:1044700052100E94DE1F8091BC018F5F8093BC01AF
:1044800058C085ED90E09C01215F3F4F89E891E0A5
:10449000B9010E9444230097A1F02BE730E080E0AF
:1044A00060E0A9010E94A91D82E061E040E00E9455
:1044B00052100E94DE1F8091BC018F5F8093BC016F
:1044C00038C089E891E026EC30E0B9010E9444232D
:1044D000009721F129E830E080E060E0A9010E9426
:1044E000A91D8091BC01833030F082E08093BC0133
:1044F00082E0898303C08091BC0189838981809394
:10450000BC018091BC01882F90E0A0E0B0E0BC012C
:10451000CD010E94E31B0E94DE1F0BC025E930E0A5
:1045200080E060E0A9010E94A91D0E94DF200E9496
:104530009F1D1092BB017BCF629FD001739FF00142
:10454000829FE00DF11D649FE00DF11D929FF00D23
:10455000839FF00D749FF00D659FF00D9927729F5A
:10456000B00DE11DF91F639FB00DE11DF91FBD01E5
:10457000CF0111240895AA1BBB1B51E107C0AA1F3C
:10458000BB1FA617B70710F0A61BB70B881F991FF4
:104590005A95A9F780959095BC01CD01089597FB98
:1045A000092E07260AD077FD04D0E5DF06D00020CB
:1045B0001AF4709561957F4F0895F6F7909581955F
:1045C0009F4F0895A1E21A2EAA1BBB1BFD010DC02F
:1045D000AA1FBB1FEE1FFF1FA217B307E407F507B3
:1045E00020F0A21BB30BE40BF50B661F771F881F8F
:1045F000991F1A9469F760957095809590959B0125
:10460000AC01BD01CF0108952F923F924F925F926E
:104610006F927F928F929F92AF92BF92CF92DF92D2
:10462000EF92FF920F931F93CF93DF93CDB7DEB737
:10463000CA1BDB0B0FB6F894DEBF0FBECDBF0994CB
:104640002A88398848885F846E847D848C849B8422
:10465000AA84B984C884DF80EE80FD800C811B8130
:10466000AA81B981CE0FD11D0FB6F894DEBF0FBE5F
:10467000CDBFED010895FC0101900020E9F7809580
:1046800090958E0F9F1F0895FB0151915523A9F01E
:10469000BF01DC014D9145174111E1F759F4CD01FE
:1046A0000190002049F04D9140154111C9F3FB01E3
:1046B0004111EFCF81E090E001970895F894FFCF8A
:1046C0004361726420697320486572650057656CA8
:1046D000636F6D652053617965640057656C636F26
:1046E0006D6520497372616100417474656E646127
:1046F0006E6365200057726F6E6720436172642E8F
:104700002E2E2E0000000000000000003A003700AE
:10471000340031003B0038003500320039003600EB
:1047200033003000010137393030323942443043F0
:104730004531000000363631453735333900000049
:104740000000000046303641424331320000000094
:1047500000000019000C00060003000200010067C1
:10476000003300190010000C000800CF0067003370
:1047700000220019001000A001CF006700440033A0
:10478000002200CF0067003300220019001000A0B3
:1047900001CF0067004400330022004003A001CF96
:1047A000008A0067004400000000000000000000D4
:0447B0000000000005
:00000001FF
