:100000000C942A000C9435150C9462150C948F15E1
:100010000C9447000C9447000C94700E0C940A0E3C
:100020000C943D0E0C94D70D0C94A40D0C94710DF2
:100030000C9447000C9456080C9447000C948908C3
:100040000C9447000C9447000C9447000C94470014
:100050000C94470011241FBECFE5D8E0DEBFCDBF12
:1000600011E0A0E6B0E0E4E9F6E502C005900D92EB
:10007000A03CB107D9F712E0A0ECB1E001C01D929D
:10008000A635B107E1F70E94DA270C94482B0C94AF
:100090000000EF92FF920F931F937B018C0120E0F1
:1000A00030E040E05FE40E94490388238CF0C801FF
:1000B000B70120E030E040E05FE40E94C1010E940F
:1000C000A9039B01AC01205030404040504806C07D
:1000D000C801B7010E94A9039B01AC01B901CA0183
:1000E0001F910F91FF90EF900895A0E0B0E0EBE733
:1000F000F0E00C945728DC012B01FA019C9192301E
:1001000008F439C1EB018881823008F433C194309E
:1001100069F4843009F02FC111969C91119789815F
:10012000981709F428C1A6E5B1E025C1843009F487
:1001300021C18230A9F4923009F01DC19A01AD01AC
:1001400088E0EA010990AE01E90109929E0181501F
:10015000C1F7E201898111969C918923818308C1AD
:10016000923009F407C112962D903C901397EB0141
:100170008A819B811496AD90BD90CD90DC901797AD
:10018000EC80FD800E811F819101281B390BB90184
:1001900037FF04C066277727621B730B6032710537
:1001A0000CF061C0121613066CF537014801062EDB
:1001B00004C096948794779467940A94D2F721E0C8
:1001C00030E040E050E004C0220F331F441F551FB1
:1001D0006A95D2F721503040404050402E213F21B7
:1001E00040235123211531054105510521F021E01E
:1001F00030E040E050E079018A01E628F72808293C
:1002000019293CC0232BD1F1260E371E350146019A
:10021000062E04C096948794779467940A94D2F734
:1002200021E030E040E050E004C0220F331F441FC3
:10023000551F6A95D2F721503040404050402A2146
:100240003B214C215D21211531054105510521F04E
:1002500021E030E040E050E059016A01A628B728CB
:10026000C828D9280BC0821593052CF01C01AA249C
:10027000BB24650103C0EE24FF24870111969C91E5
:10028000D20111968C91981709F445C0992339F041
:10029000A80197012A193B094C095D0906C0A6016E
:1002A00095012E193F09400B510B57FD08C01182D3
:1002B0003382228224833583468357831DC081E0A5
:1002C00081833382228288279927DC01821B930B4A
:1002D000A40BB50B84839583A683B7830DC0220F2F
:1002E000331F441F551F24833583468357838281E0
:1002F000938101979383828324813581468157813D
:10030000DA01C9010197A109B1098F5F9F4FAF4F72
:10031000BF4328F30BC0918333822282EA0CFB1C7B
:100320000C1D1D1DE482F5820683178383E0808304
:10033000248135814681578157FF1AC0C901AA27F8
:1003400097FDA095BA2F81709070A070B0705695EF
:10035000479537952795822B932BA42BB52B848318
:100360009583A683B7838281938101969383828349
:10037000DF0101C0D201CD01CDB7DEB7E2E10C94BF
:100380007328A0E2B0E0E7ECF1E00C946328698305
:100390007A838B839C832D833E834F835887E9E048
:1003A000EE2EF12CEC0EFD1ECE010196B7010E943F
:1003B000D2048E010F5E1F4FCE010596B8010E9438
:1003C000D2048A8991E089278A8BC701B801AE01DE
:1003D000475E5F4F0E9475000E94FD03A096E6E015
:1003E0000C947F28A0E2B0E0E8EFF1E00C946328E1
:1003F00069837A838B839C832D833E834F835887C5
:10040000F9E0EF2EF12CEC0EFD1ECE010196B701A6
:100410000E94D2048E010F5E1F4FCE010596B801D7
:100420000E94D204C701B801AE01475E5F4F0E942F
:1004300075000E94FD03A096E6E00C947F28A0E2E0
:10044000B0E0E5E2F2E00C94572869837A838B836D
:100450009C832D833E834F835887CE010196BE0136
:10046000675F7F4F0E94D204CE010596BE016F5E8A
:100470007F4F0E94D2049985923088F0898982301A
:10048000C8F0943019F4823051F404C0843029F457
:10049000923081F486E591E0C6C0923049F420E0C4
:1004A0009A858A89981321E02A87CE010996BBC0D4
:1004B000823049F420E09A858A89981321E02A8BBA
:1004C000CE014196B0C02D843E844F8458886D88FB
:1004D0007E888F88988CEE24FF248701AA24BB2471
:1004E000650140E050E060E070E0E0E0F0E0C10174
:1004F00081709070892BE9F0E60CF71C081D191D1E
:100500009A01AB012A0D3B1D4C1D5D1D80E090E062
:10051000A0E0B0E0E614F7040805190520F481E036
:1005200090E0A0E0B0E0BA01A901480F591F6A1F8E
:100530007B1FAA0CBB1CCC1CDD1C97FE08C081E0F5
:1005400090E0A0E0B0E0A82AB92ACA2ADB2A3196B6
:10055000E032F10549F0660C771C881C991C569412
:10056000479437942794C3CFFA85EA892B893C892D
:100570008B859C85280F391F2E5F3F4F17C0CA01FE
:1005800081709070892B61F016950795F794E79428
:1005900080E090E0A0E0B0E8E82AF92A0A2B1B2BC3
:1005A00076956795579547952F5F3F4F77FDE7CF36
:1005B0000CC0440F551F661F771F17FD4160EE0CDE
:1005C000FF1C001F111F21503040403090E05907A0
:1005D00090E0690790E4790760F32B8F3C8FDB0193
:1005E000CA018F779070A070B07080349105A1051A
:1005F000B10561F447FD0AC0E114F10401051105DC
:1006000029F0405C5F4F6F4F7F4F40781A8EFE1786
:1006100011F081E08A8F4D8F5E8F6F8F78A383E01A
:10062000898FCE0149960E94FD03A096E2E10C94C9
:100630007328A8E1B0E0EFE1F3E00C94632869834C
:100640007A838B839C832D833E834F83588789E0F5
:10065000E82EF12CEC0EFD1ECE010196B7010E9492
:10066000D2048E010F5E1F4FCE010596B8010E9485
:10067000D2048985823040F08989823028F0C70110
:10068000B8010E944A0501C08FEF6896E6E00C941D
:100690007F28A8E1B0E0EFE4F3E00C9463286983DD
:1006A0007A838B839C832D833E834F83588789E095
:1006B000E82EF12CEC0EFD1ECE010196B7010E9432
:1006C000D2048E010F5E1F4FCE010596B8010E9425
:1006D000D2048985823040F08989823028F0C701B0
:1006E000B8010E944A0501C08FEF6896E6E00C94BD
:1006F0007F28A8E1B0E0EFE7F3E00C94632869837A
:100700007A838B839C832D833E834F83588789E034
:10071000E82EF12CEC0EFD1ECE010196B7010E94D1
:10072000D2048E010F5E1F4FCE010596B8010E94C4
:10073000D2048985823040F08989823028F0C7014F
:10074000B8010E944A0501C081E06896E6E00C9479
:100750007F28ACE0B0E0EFEAF3E00C94672869830F
:100760007A838B839C83CE010196BE016B5F7F4FA2
:100770000E94D2048D81823061F1823050F1843048
:1007800021F48E81882351F12EC02F81388537FDC9
:1007900020C06E812F3131051CF06623F9F023C093
:1007A0008EE190E0821B930B29853A854B855C8511
:1007B00004C056954795379527958A95D2F76623B5
:1007C000B1F050954095309521953F4F4F4F5F4F79
:1007D0000EC020E030E040E050E009C02FEF3FEFD6
:1007E0004FEF5FE704C020E030E040E050E8B9019F
:1007F000CA012C96E2E00C948328DF92EF92FF92DC
:100800000F931F93FC01E480F58006811781D1804E
:100810008081823048F480E090E0A0E1B0E0E82AF6
:10082000F92A0A2B1B2BA5C0843009F49FC0823003
:1008300021F4EE24FF24870105C0E114F104010531
:10084000110519F4E0E0F0E096C0628173819FEF3A
:10085000623879070CF05BC022E83FEF261B370BAC
:100860002A3131052CF020E030E040E050E02AC091
:10087000B801A701022E04C0769567955795479554
:100880000A94D2F781E090E0A0E0B0E004C0880FC5
:10089000991FAA1FBB1F2A95D2F70197A109B10979
:1008A0008E219F21A023B1230097A105B10521F03E
:1008B00081E090E0A0E0B0E09A01AB01282B392B59
:1008C0004A2B5B2BDA01C9018F779070A070B07052
:1008D00080349105A105B10539F427FF09C0205CDA
:1008E0003F4F4F4F5F4F04C0215C3F4F4F4F5F4F13
:1008F000E0E0F0E02030A0E03A07A0E04A07A0E402
:100900005A0710F0E1E0F0E079018A0127C0603871
:10091000710564F5FB01E158FF4FD801C7018F77DE
:100920009070A070B07080349105A105B10539F4C4
:10093000E7FE0DC080E490E0A0E0B0E004C08FE3EB
:1009400090E0A0E0B0E0E80EF91E0A1F1B1F17FFA1
:1009500005C016950795F794E794319687E01695AC
:100960000795F794E7948A95D1F705C0EE24FF2404
:100970008701EFEFF0E06E2F679566276795902F60
:100980009F77D794DD24D7948E2F8695492F462BB9
:10099000582F5D29B701CA011F910F91FF90EF9069
:1009A000DF900895FC01DB01408151812281622F9B
:1009B0006F7770E0221F2227221F9381892F880FD3
:1009C000822B282F30E0991F9927991F11969C930D
:1009D000119721153105A9F54115510561057105DD
:1009E00011F482E037C082E89FEF13969C938E93B8
:1009F00012979A01AB0167E0220F331F441F551F66
:100A00006A95D1F783E08C930DC0220F331F441FEA
:100A1000551F12968D919C911397019713969C9355
:100A20008E931297203080E0380780E0480780E4FA
:100A3000580758F314962D933D934D935C93179755
:100A400008952F3F310579F4411551056105710570
:100A500019F484E08C93089564FF03C081E08C93C3
:100A600012C01C9210C02F57304013963C932E9307
:100A7000129783E08C9387E0440F551F661F771F02
:100A80008A95D1F7706414964D935D936D937C9322
:100A9000179708951F93DC01FB019C91923008F495
:100AA00047C08081823008F443C0943051F41196DD
:100AB0001C91843099F58181682F70E0611B710968
:100AC0003FC0843021F0923031F48230B9F181811D
:100AD000882389F12DC011961C9111978230F1F075
:100AE00081811817D9F412962D913C911397828128
:100AF00093818217930794F028173907BCF0149656
:100B00008D919D910D90BC91A02D248135814681C0
:100B10005781281739074A075B0718F4112341F05A
:100B20000AC082179307A407B50740F4112319F0F0
:100B300061E070E005C06FEF7FEF02C060E070E041
:100B4000CB011F910895DF93CF9300D00F92CDB7C3
:100B5000DEB79B838A8319820EC08981282F30E0FB
:100B60008A819B81FC01E20FF31F80810E94D408DF
:100B700089818F5F89838981282F30E08A819B81D9
:100B8000FC01E20FF31F8081882339F70F900F904B
:100B90000F90CF91DF910895DF93CF9300D0CDB721
:100BA000DEB79A83898389819A819093C501809366
:100BB000C401E981FA8180810E94D40889EE95E020
:100BC0000E9444080E9416080F900F90CF91DF9169
:100BD0000895DF93CF93CDB7DEB72091C401309154
:100BE000C50180915F01882F90E0F901E80FF91F9E
:100BF00080818823A1F02091C4013091C5018091AA
:100C00005F01882F90E0F901E80FF91F80810E94B1
:100C1000BC0880915F018F5F80935F0105C081E018
:100C200080935F010E942408CF91DF910895DF93A4
:100C3000CF9300D0CDB7DEB79A8389838FE496E057
:100C40000E9444080E94160880915E01882311F1D9
:100C50008091C001282F30E089819A81FC01E20F48
:100C6000F31F80818823A1F08091C001282F30E0FC
:100C700089819A81FC01E20FF31F80810E94BC08E8
:100C80008091C0018F5F8093C00110925E0102C00D
:100C90001092C0010F900F90CF91DF910895DF93D4
:100CA000CF93CDB7DEB781E080935E01CF91DF9126
:100CB00008950F931F93DF93CF9300D00F92CDB77A
:100CC000DEB79B838A8319828981282F30E08A814D
:100CD0009B818C01020F131F0E94EE08F801808394
:100CE0000FC089818F5F89838981282F30E08A81B5
:100CF0009B818C01020F131F0E94EE08F801808374
:100D00008981282F30E08A819B81FC01E20FF31F4B
:100D100080818D3031F78981282F30E08A819B8155
:100D2000FC01E20FF31F10820F900F900F90CF91F4
:100D3000DF911F910F910895DF93CF9300D0CDB72E
:100D4000DEB79A83898389819A819093C7018093C2
:100D5000C6010E94FA0784EB96E00E9432080F90C9
:100D60000F90CF91DF9108950F931F93DF93CF934F
:100D7000CDB7DEB72091C6013091C7018091C10186
:100D80009091C2018901080F191F0E94CA08F80139
:100D900080838091C3018F5F8093C301E091C10183
:100DA000F091C20120E130E0CF01B9010E94222878
:100DB0009093C2018093C101CF0101969093C2012B
:100DC0008093C101CF91DF911F910F910895DF931F
:100DD000CF9300D000D000D0CDB7DEB79E838D83F7
:100DE0001C821B821A82198214C08B81282F30E04A
:100DF0008D819E81FC01E20FF31F8081282F30E05E
:100E000089819A81820F931F9A8389838B818F5F57
:100E10008B838B81282F30E08D819E81FC01E20F36
:100E2000F31F8081882309F78B810E94D4081C82DC
:100E30000EC08C81282F30E08D819E81FC01E20F55
:100E4000F31F80810E94D4088C818F5F8C839C81EA
:100E50008B81981770F389810E94D40889819A81C7
:100E6000892F99270E94D40826960FB6F894DEBFE2
:100E70000FBECDBFCF91DF9108950F931F93DF93E6
:100E8000CF93CDB7DEB72B970FB6F894DEBF0FBE6A
:100E9000CDBF9A87898718861F821E821D821C8279
:100EA0001B821A8219820E94EE088F83188620C046
:100EB0008885282F30E089859A858C01020F131FC1
:100EC0000E94EE08F80180838885282F30E089850C
:100ED0009A85FC01E20FF31F8081282F30E0898181
:100EE0009A81820F931F9A83898388858F5F888771
:100EF00098858F819817E0F20E94EE088E830E94F9
:100F0000EE088D838E81282F30E08D81882F90E030
:100F1000982F8827822B932B9C838B8329813A815E
:100F20008B819C812817390719F4F1E0FB8701C0F8
:100F30001B868B852B960FB6F894DEBF0FBECDBFF8
:100F4000CF91DF911F910F910895DF93CF9300D040
:100F50000F92CDB7DEB71B821A821982ABE2B0E0E6
:100F6000EBE2F0E080818D7F8C938B8180688B83B6
:100F70008B818F7B8B838B818F7E8B838B818F7D0E
:100F80008B838B8182608B838B8184608B83AAE2CD
:100F9000B0E0EAE2F0E080818B7F8C938B81877FE9
:100FA0008B83E0E4F0E08B818083809188019091D5
:100FB00089019A838983E0E4F0E089819A81892F0D
:100FC00099278083E9E2F0E089818083AAE2B0E09A
:100FD000EAE2F0E0808180618C93AAE2B0E0EAE28C
:100FE000F0E0808188608C930F900F900F90CF91EC
:100FF000DF910895DF93CF93CDB7DEB7AAE2B0E0DB
:10100000EAE2F0E0808180688C93CF91DF910895CF
:10101000DF93CF93CDB7DEB7AAE2B0E0EAE2F0E02B
:1010200080818F778C93CF91DF910895DF93CF9359
:10103000CDB7DEB7AAE2B0E0EAE2F0E080818064FA
:101040008C93CF91DF910895DF93CF93CDB7DEB727
:10105000AAE2B0E0EAE2F0E080818F7B8C93CF914E
:10106000DF910895DF93CF9300D0CDB7DEB79A8399
:10107000898389819A819093C9018093C8010F90D7
:101080000F90CF91DF910895DF93CF9300D0CDB72C
:10109000DEB79A83898389819A819093CB0180936B
:1010A000CA010F900F90CF91DF9108951F920F9278
:1010B0000FB60F9211242F933F934F935F936F932B
:1010C0007F938F939F93AF93BF93EF93FF93DF93A0
:1010D000CF93CDB7DEB78091C8019091C901009739
:1010E00029F0E091C801F091C9010995CF91DF91F4
:1010F000FF91EF91BF91AF919F918F917F916F91F0
:101100005F914F913F912F910F900FBE0F901F90C5
:1011100018951F920F920FB60F9211242F933F93A1
:101120004F935F936F937F938F939F93AF93BF93EF
:10113000EF93FF93DF93CF93CDB7DEB78091CA01D2
:101140009091CB01009729F0E091CA01F091CB0179
:101150000995CF91DF91FF91EF91BF91AF919F9151
:101160008F917F916F915F914F913F912F910F9050
:101170000FBE0F901F901895DF93CF930F92CDB7AE
:10118000DEB78983ECE2F0E0898180830F90CF9114
:10119000DF910895DF93CF93CDB7DEB7ECE2F0E0B7
:1011A0008081CF91DF910895DF93CF930F92CDB7D8
:1011B000DEB78983EBE2F0E08081829586958770C7
:1011C000882F90E0817090700097A1F3ECE2F0E03E
:1011D000898180830F90CF91DF910895DF93CF9322
:1011E000CDB7DEB7EBE2F0E080818823DCF7ECE2FC
:1011F000F0E08081CF91DF910895DF93CF9300D00D
:101200000F92CDB7DEB79B838A831982EBE2F0E0C1
:10121000808188234CF4ECE2F0E08081EA81FB815C
:10122000808381E0898301C0198289810F900F90AA
:101230000F90CF91DF910895DF93CF93CDB7DEB7B5
:1012400027970FB6F894DEBF0FBECDBF89836A83A0
:101250004B838981282F30E03F832E838E819F81AD
:101260008130910521F12E813F81223031052CF40E
:101270008E819F81009761F046C02E813F81223090
:10128000310521F18E819F818330910571F13BC041
:10129000A3E5B0E0E3E5F0E080818F7B8C93A3E5EC
:1012A000B0E0E3E5F0E08081877F8C932CC0A3E57C
:1012B000B0E0E3E5F0E0808180648C93A3E5B0E0EA
:1012C000E3E5F0E08081877F8C931DC0A3E5B0E06B
:1012D000E3E5F0E080818F7B8C93A3E5B0E0E3E56C
:1012E000F0E0808188608C930EC0A3E5B0E0E3E578
:1012F000F0E0808180648C93A3E5B0E0E3E5F0E06A
:10130000808188608C93A3E5B0E0E3E5F0E0808124
:10131000982F987F8A81892B8C938A818093CE0124
:101320008B81282F30E03D832C838C819D818130FF
:10133000910521F12C813D81223031052CF48C81E5
:101340009D81009761F046C02C813D81223031059E
:1013500021F18C819D818330910571F13BC0A3E522
:10136000B0E0E3E5F0E080818F7E8C93A3E5B0E010
:10137000E3E5F0E080818F7D8C932CC0A3E5B0E0A5
:10138000E3E5F0E0808180618C93A3E5B0E0E3E5E4
:10139000F0E080818F7D8C931DC0A3E5B0E0E3E594
:1013A000F0E080818F7E8C93A3E5B0E0E3E5F0E090
:1013B000808180628C930EC0A3E5B0E0E3E5F0E0AD
:1013C000808180618C93A3E5B0E0E3E5F0E080816B
:1013D00080628C9327960FB6F894DEBF0FBECDBF08
:1013E000CF91DF910895DF93CF93CDB7DEB7A9E515
:1013F000B0E0E9E5F0E0808181608C93CF91DF91EE
:101400000895DF93CF93CDB7DEB7A9E5B0E0E9E566
:10141000F0E080818E7F8C93CF91DF910895DF93F0
:10142000CF93CDB7DEB7A9E5B0E0E9E5F0E0808184
:1014300082608C93CF91DF910895DF93CF93CDB7E6
:10144000DEB7A9E5B0E0E9E5F0E080818D7F8C931F
:10145000CF91DF910895DF93CF9300D0CDB7DEB762
:101460009A83898389819A819093D1018093D00155
:101470000F900F90CF91DF910895DF93CF9300D01D
:10148000CDB7DEB79A83898389819A819093D301FE
:101490008093D2010F900F90CF91DF910895DF9349
:1014A000CF930F92CDB7DEB78983E2E5F0E0898173
:1014B00080830F90CF91DF910895DF93CF930F92A8
:1014C000CDB7DEB78983ECE5F0E0898180830F90AA
:1014D000CF91DF910895DF93CF93CDB7DEB7E2E5EB
:1014E000F0E08081CF91DF910895DF93CF93CDB766
:1014F000DEB7A3E5B0E0E3E5F0E08081887F8C9380
:10150000CF91DF910895DF93CF93CDB7DEB7A3E5F9
:10151000B0E0E3E5F0E090818091CE01892B8C93DF
:10152000CF91DF910895DF93CF93CDB7DEB72A97A0
:101530000FB6F894DEBF0FBECDBF89836A834B839D
:101540002C838981282F30E03A87298789859A85DD
:101550008230910509F456C029853A85233031053A
:1015600054F489859A85009799F029853A85213028
:10157000310559F19DC089859A858330910509F41B
:101580005EC029853A852430310509F475C090C0C4
:10159000AFE4B0E0EFE4F0E080818E7F8C93AFE4C5
:1015A000B0E0EFE4F0E080818D7F8C93AEE4B0E0BA
:1015B000EEE4F0E08081877F8C93AEE4B0E0EEE46F
:1015C000F0E080818F7E8C9373C0AFE4B0E0EFE4F5
:1015D000F0E080818E7F8C93AFE4B0E0EFE4F0E048
:1015E00080818D7F8C93AEE4B0E0EEE4F0E080810A
:1015F00088608C93AEE4B0E0EEE4F0E0808180613E
:101600008C9356C0AFE4B0E0EFE4F0E080818E7FD1
:101610008C93AFE4B0E0EFE4F0E080818D7F8C93B9
:10162000AEE4B0E0EEE4F0E0808188608C93AEE45C
:10163000B0E0EEE4F0E080818F7E8C9339C0AFE4BF
:10164000B0E0EFE4F0E080818E7F8C93AFE4B0E017
:10165000EFE4F0E0808182608C93AEE4B0E0EEE4F1
:10166000F0E0808188608C93AEE4B0E0EEE4F0E0DE
:10167000808180618C931CC0AFE4B0E0EFE4F0E0C7
:10168000808181608C93AFE4B0E0EFE4F0E0808192
:1016900082608C93AEE4B0E0EEE4F0E0808188609C
:1016A0008C93AEE4B0E0EEE4F0E0808180618C9356
:1016B0008B81282F30E038872F838F819885813068
:1016C000910521F12F813885223031052CF48F814D
:1016D0009885009761F046C02F813885223031050A
:1016E00021F18F8198858330910571F13BC0AFE482
:1016F000B0E0EFE4F0E080818F7B8C93AFE4B0E06A
:10170000EFE4F0E080818F778C932CC0AFE4B0E001
:10171000EFE4F0E0808180648C93AFE4B0E0EFE42C
:10172000F0E080818F778C931DC0AFE4B0E0EFE4F0
:10173000F0E080818F7B8C93AFE4B0E0EFE4F0E0E9
:10174000808180688C930EC0AFE4B0E0EFE4F0E0FD
:10175000808180648C93AFE4B0E0EFE4F0E08081BE
:1017600080688C938C81282F30E03E832D838D817F
:101770009E818130910521F12D813E8122303105FC
:101780002CF48D819E81009761F046C02D813E81B1
:101790002230310521F18D819E818330910571F1D7
:1017A0003BC0AFE4B0E0EFE4F0E080818F7E8C934B
:1017B000AFE4B0E0EFE4F0E080818F7D8C932CC04B
:1017C000AFE4B0E0EFE4F0E0808180618C93AFE4BF
:1017D000B0E0EFE4F0E080818F7D8C931DC0AFE43A
:1017E000B0E0EFE4F0E080818F7E8C93AFE4B0E076
:1017F000EFE4F0E0808180628C930EC0AFE4B0E053
:10180000EFE4F0E0808180618C93AFE4B0E0EFE43E
:10181000F0E0808180628C93AEE4B0E0EEE4F0E032
:101820008081887F8C93AEE4B0E0EEE4F0E09081BC
:101830008A81892B8C938A818093CF012A960FB657
:10184000F894DEBF0FBECDBFCF91DF910895DF9337
:10185000CF930F92CDB7DEB789838981882341F476
:10186000AEE4B0E0EEE4F0E0808180648C930AC0E6
:101870008981813039F4AEE4B0E0EEE4F0E08081BB
:101880008F7B8C930F90CF91DF910895DF93CF934F
:1018900000D0CDB7DEB79A838983ECE4F0E089818C
:1018A0009A81918380830F900F90CF91DF9108955B
:1018B000DF93CF9300D0CDB7DEB79A838983EAE474
:1018C000F0E089819A81918380830F900F90CF916E
:1018D000DF910895DF93CF9300D0CDB7DEB79A8321
:1018E0008983E8E4F0E089819A81918380830F9075
:1018F0000F90CF91DF910895DF93CF9300D0CDB7B4
:10190000DEB79A838983E6E4F0E089819A81918346
:1019100080830F900F90CF91DF910895DF93CF9345
:10192000CDB7DEB7ECE4F0E080819181CF91DF911B
:101930000895DF93CF93CDB7DEB7AEE4B0E0EEE429
:10194000F0E08081887F8C93CF91DF910895DF93C1
:10195000CF93CDB7DEB70E94990CAEE4B0E0EEE4D1
:10196000F0E090818091CF01892B8C93CF91DF9112
:101970000895DF93CF93CDB7DEB7A9E5B0E0E9E5F1
:10198000F0E0808180628C93CF91DF910895DF93A6
:10199000CF93CDB7DEB7A9E5B0E0E9E5F0E080810F
:1019A0008F7D8C93CF91DF910895DF93CF93CDB747
:1019B000DEB7A9E5B0E0E9E5F0E0808184608C93D2
:1019C000CF91DF910895DF93CF93CDB7DEB7A9E52F
:1019D000B0E0E9E5F0E080818B7F8C93CF91DF91DF
:1019E0000895DF93CF93CDB7DEB7A9E5B0E0E9E581
:1019F000F0E0808180618C93CF91DF910895DF9337
:101A0000CF93CDB7DEB7A9E5B0E0E9E5F0E080819E
:101A10008F7E8C93CF91DF910895DF93CF93CDB7D5
:101A2000DEB7A9E5B0E0E9E5F0E0808188608C935D
:101A3000CF91DF910895DF93CF93CDB7DEB7A9E5BE
:101A4000B0E0E9E5F0E08081877F8C93CF91DF9172
:101A50000895DF93CF9300D0CDB7DEB79A83898303
:101A600089819A819093D5018093D4010F900F9032
:101A7000CF91DF910895DF93CF9300D0CDB7DEB73C
:101A80009A83898389819A819093D7018093D60123
:101A90000F900F90CF91DF910895DF93CF9300D0F7
:101AA000CDB7DEB79A83898389819A819093D901D2
:101AB0008093D8010F900F90CF91DF910895DF931D
:101AC000CF9300D0CDB7DEB79A83898389819A817D
:101AD0009093DB018093DA010F900F90CF91DF910B
:101AE00008951F920F920FB60F9211242F933F93D8
:101AF0004F935F936F937F938F939F93AF93BF9316
:101B0000EF93FF93DF93CF93CDB7DEB78091D001F2
:101B10009091D101009729F0E091D001F091D1018D
:101B20000995CF91DF91FF91EF91BF91AF919F9177
:101B30008F917F916F915F914F913F912F910F9076
:101B40000FBE0F901F9018951F920F920FB60F9215
:101B500011242F933F934F935F936F937F938F93B2
:101B60009F93AF93BF93EF93FF93DF93CF93CDB743
:101B7000DEB78091D2019091D301009729F0E091D6
:101B8000D201F091D3010995CF91DF91FF91EF91AF
:101B9000BF91AF919F918F917F916F915F914F9185
:101BA0003F912F910F900FBE0F901F9018951F928D
:101BB0000F920FB60F9211242F933F934F935F9381
:101BC0006F937F938F939F93AF93BF93EF93FF9305
:101BD000DF93CF93CDB7DEB78091D4019091D5013B
:101BE000009729F0E091D401F091D5010995CF91AA
:101BF000DF91FF91EF91BF91AF919F918F917F9175
:101C00006F915F914F913F912F910F900FBE0F9069
:101C10001F9018951F920F920FB60F9211242F93B9
:101C20003F934F935F936F937F938F939F93AF9364
:101C3000BF93EF93FF93DF93CF93CDB7DEB7809140
:101C4000D6019091D701009729F0E091D601F0914B
:101C5000D7010995CF91DF91FF91EF91BF91AF919E
:101C60009F918F917F916F915F914F913F912F91B4
:101C70000F900FBE0F901F9018951F920F920FB6E6
:101C80000F9211242F933F934F935F936F937F9302
:101C90008F939F93AF93BF93EF93FF93DF93CF9374
:101CA000CDB7DEB78091D8019091D901009729F086
:101CB000E091D801F091D9010995CF91DF91FF9181
:101CC000EF91BF91AF919F918F917F916F915F91B4
:101CD0004F913F912F910F900FBE0F901F9018952D
:101CE0001F920F920FB60F9211242F933F934F9391
:101CF0005F936F937F938F939F93AF93BF93EF9374
:101D0000FF93DF93CF93CDB7DEB78091DA01909147
:101D1000DB01009729F0E091DA01F091DB010995F0
:101D2000CF91DF91FF91EF91BF91AF919F918F91F3
:101D30007F916F915F914F913F912F910F900FBEC7
:101D40000F901F901895DF93CF93CDB7DEB783E048
:101D500062E042E020E00E94930ACF91DF91089573
:101D6000DF93CF9300D000D0CDB7DEB79C838B83B9
:101D70008B819C810097D1F488EE93E02B813C818C
:101D8000B9010E940E28CB019A83898389819A81A7
:101D9000009741F0E6E4F0E089819A810197918310
:101DA000808304C0E6E4F0E0118210820F900F906F
:101DB0000F900F90CF91DF910895DF93CF9300D0D4
:101DC00000D0CDB7DEB79C838B838B819C8100973D
:101DD00009F58B819C819C0140E050E080E492E415
:101DE000AFE0B0E0BC01CD010E943528DA01C901A5
:101DF0009A83898389819A81009741F0E6E4F0E033
:101E000089819A8101979183808304C0E6E4F0E0A0
:101E1000118210820F900F900F900F90CF91DF9151
:101E20000895EF92FF920F931F93DF93CF9300D00B
:101E300000D0CDB7DEB79C838B838B819C818536A8
:101E4000910580F58B819C817C0100E010E0E6E447
:101E5000F0E08081918101969C0140E050E0C80152
:101E6000B7010E94EF27DC01CB0124E630E040E01F
:101E700050E0BC01CD010E943528DA01C9019A83E6
:101E8000898389819A818230910540F0EAE4F0E00B
:101E900089819A8101979183808304C0EAE4F0E00C
:101EA000118210820F900F900F900F90CF91DF91C1
:101EB0001F910F91FF90EF900895DF93CF9300D083
:101EC00000D000D0CDB7DEB769837A838B839C8343
:101ED0005E834D8380E090E00E94460C82E062E0E9
:101EE00040E020E00E94930AEAE4F0E089819A81D0
:101EF0000197918380838D819E810E943B0D0E947A
:101F0000F10C26960FB6F894DEBF0FBECDBFCF9171
:101F1000DF910895EF92FF920F931F93DF93CF937A
:101F2000CDB7DEB72C970FB6F894DEBF0FBECDBF8E
:101F30009A8789877C876B871092CD011092CC019C
:101F4000ECE4F0E011821082E0E3F0E08081829521
:101F5000869586958370882F90E081709070882395
:101F600099F7E0E3F0E0808182958695869583700D
:101F7000882F90E081709070009799F3ECE4F0E086
:101F800011821082E0E3F0E080818295869586954B
:101F90008370882F90E081709070882399F7ECE42B
:101FA000F0E080819181CC01A0E0B0E08D839E8340
:101FB000AF83B887ECE4F0E011821082E0E3F0E058
:101FC00080818295869586958370882F90E08170B8
:101FD0009070009799F3ECE4F0E080819181CC015E
:101FE000A0E0B0E089839A83AB83BC838D819E811E
:101FF000AF81B88524E630E040E050E0BC01CD017F
:102000000E94EF277B018C012D813E814F815885F5
:1020100089819A81AB81BC81280F391F4A1F5B1FC0
:10202000C801B7010E943528DA01C901EB85FC859A
:1020300080839183A283B38329813A814B815C8120
:102040008D819E81AF81B885280F391F4A1F5B1F84
:1020500080E492E4AFE0B0E0BC01CD010E943528FD
:10206000DA01C901E985FA8580839183A283B3836C
:102070002C960FB6F894DEBF0FBECDBFCF91DF9187
:102080001F910F91FF90EF900895EF92FF920F93A1
:102090001F93DF93CF93CDB7DEB72C970FB6F8948D
:1020A000DEBF0FBECDBF9A8789877C876B87ECE444
:1020B000F0E01182108284EE90E10E945F0D80E0DA
:1020C0000E94270C0E94B90C1092CD011092CC01F5
:1020D0008091CC019091CD0183309105C8F320917E
:1020E0005202309153028091540290915502A901FD
:1020F000481B590BCA01CC01A0E0B0E08D839E8340
:10210000AF83B887209150023091510280915202E2
:1021100090915302A901481B590BCA01CC01A0E0C0
:10212000B0E089839A83AB83BC838D819E81AF812C
:10213000B88524E630E040E050E0BC01CD010E94CB
:10214000EF277B018C012D813E814F81588589814C
:102150009A81AB81BC81280F391F4A1F5B1FC801C0
:10216000B7010E943528DA01C901EB85FC8580831F
:102170009183A283B38329813A814B815C818D81D4
:102180009E81AF81B885280F391F4A1F5B1F80E4ED
:1021900092E4AFE0B0E0BC01CD010E943528DA0145
:1021A000C901E985FA8580839183A283B3832C9644
:1021B0000FB6F894DEBF0FBECDBFCF91DF911F9158
:1021C0000F91FF90EF900895DF93CF93CDB7DEB7D7
:1021D0008091CC019091CD01009791F4E6E4F0E07C
:1021E00080819181909355028093540281E00E94F6
:1021F000270C81E090E09093CD018093CC0130C01A
:102200008091CC019091CD018130910591F4E6E46B
:10221000F0E080819181909353028093520280E09C
:102220000E94270C82E090E09093CD018093CC0136
:1022300017C08091CC019091CD018230910581F43D
:10224000E6E4F0E080819181909351028093500206
:102250000E94C70C83E090E09093CD018093CC0165
:10226000CF91DF910895DF93CF9300D000D0CDB709
:10227000DEB78A836B834C8381E089838C818130D4
:1022800019F08C818823C9F58B818830B0F58A815B
:10229000843098F58A81882F90E0880F991FFC017F
:1022A000E05AFE4FA081B1818A81882F90E0880F8B
:1022B000991FFC01E05AFE4F0190F081E02D8081D2
:1022C000482F8B81282F30E081E090E002C0880FFA
:1022D000991F2A95E2F7809548238C81282F30E0BA
:1022E0008B81882F90E0B90102C0660F771F8A9515
:1022F000E2F7CB01842B8C9302C082E08983898131
:102300000F900F900F900F90CF91DF910895DF9372
:10231000CF9300D0CDB7DEB789836A838981882FB8
:1023200090E0880F991FFC01E05AFE4F0190F08168
:10233000E02D8A8180830F900F90CF91DF910895D7
:10234000DF93CF9300D0CDB7DEB789836A838981CD
:10235000882F90E0880F991FFC01E05AFE4FA08162
:10236000B1818981882F90E0880F991FFC01E05A84
:10237000FE4F0190F081E02D90818A81892B8C9312
:102380000F900F90CF91DF910895DF93CF9300D0FE
:1023900000D0CDB7DEB78A836B834C8381E089831D
:1023A0008C81813019F08C818823B1F58B81883044
:1023B00098F58A81882F90E0880F991FFC01E859D1
:1023C000FE4FA081B1818A81882F90E0880F991FEC
:1023D000FC01E859FE4F0190F081E02D8081482FEB
:1023E0008B81282F30E081E090E002C0880F991F98
:1023F0002A95E2F7809548238C81282F30E08B8145
:10240000882F90E0B90102C0660F771F8A95E2F726
:10241000CB01842B8C9302C082E0898389810F9049
:102420000F900F900F90CF91DF910895DF93CF938E
:1024300000D0CDB7DEB789836A838981882F90E089
:10244000880F991FFC01E859FE4F0190F081E02DA3
:102450008A8180830F900F90CF91DF910895DF9351
:10246000CF9300D0CDB7DEB789836A838981882F67
:1024700090E0880F991FFC01E859FE4FA081B181BF
:102480008981882F90E0880F991FFC01E859FE4F41
:102490000190F081E02D90818A81892B8C930F909F
:1024A0000F90CF91DF910895DF93CF9300D0CDB7F8
:1024B000DEB789836A838981882F90E0880F991F0E
:1024C000FC01E859FE4FA081B1818981882F90E0FD
:1024D000880F991FFC01E859FE4F0190F081E02D13
:1024E0008081982F8A81809589238C930F900F90FB
:1024F000CF91DF910895DF93CF9300D00F92CDB7A6
:10250000DEB789836A834B838981882F90E0880FA7
:10251000991FFC01E859FE4FA081B1818981882F64
:1025200090E0880F991FFC01E859FE4F0190F0815F
:10253000E02D8081982F8B81809598238A81892B2B
:102540008C930F900F900F90CF91DF910895DF93B0
:10255000CF9300D000D00F92CDB7DEB78A836B83C4
:102560005D834C8381E089838B818830E8F48A81A4
:10257000882F90E0880F991FFC01E059FE4F0190D1
:10258000F081E02D8081282F30E08B81882F90E032
:10259000A90102C0559547958A95E2F7CA01817055
:1025A000EC81FD81808302C082E0898389810F9064
:1025B0000F900F900F900F90CF91DF910895DF93C0
:1025C000CF9300D0CDB7DEB789836A838981882F06
:1025D00090E0880F991FFC01E059FE4F0190F081B7
:1025E000E02D8081282F30E08A81882F90E0A9019A
:1025F00002C0559547958A95E2F7CA0181700F9000
:102600000F90CF91DF910895DF93CF9300D000D04A
:10261000CDB7DEB78A837C836B8381E089838A812F
:10262000843080F48A81882F90E0880F991FFC0104
:10263000E059FE4F0190F081E02D8081EB81FC811B
:10264000808302C082E0898389810F900F900F9070
:102650000F90CF91DF910895DF93CF930F92CDB775
:10266000DEB789838981882F90E0880F991FFC014C
:10267000E059FE4F0190F081E02D80810F90CF91C5
:10268000DF910895DF93CF9300D00F92CDB7DEB7DF
:102690008A836B8381E089838B81883088F58A8186
:1026A000882F90E0880F991FFC01E859FE4FA08108
:1026B000B1818A81882F90E0880F991FFC01E85929
:1026C000FE4F0190F081E02D8081482F8B81282FD3
:1026D00030E081E090E002C0880F991F2A95E2F770
:1026E000809548238B81282F30E081E090E0022EF6
:1026F00002C0880F991F0A94E2F7842B8C9302C0C2
:1027000082E0898389810F900F900F90CF91DF91A4
:102710000895DF93CF9300D00F92CDB7DEB78A83B1
:102720006B8381E089838B81883030F58A81882FA3
:1027300090E0880F991FFC01E859FE4FA081B181FC
:102740008A81882F90E0880F991FFC01E859FE4F7D
:102750000190F081E02D8081482F8B81282F30E07F
:1027600081E090E0022E02C0880F991F0A94E2F7E0
:10277000809584238C9302C082E0898389810F90A5
:102780000F900F90CF91DF910895DF93CF930F9229
:10279000CDB7DEB7198231C08981282F30E0CE0154
:1027A0000796FC01E20FF31F8081813019F54E81FD
:1027B0008981282F30E0CE010F96FC01E20FF31F34
:1027C0009081842F6981492F0E9433118981282F9C
:1027D00030E0CE014796FC01E20FF31F808181308B
:1027E00029F48E8169810E94421304C08E8169811F
:1027F0000E94891389818F5F89838981883060F283
:102800000F90CF91DF910895DF93CF9300D0CDB794
:10281000DEB79A838983E981FA81828193819093DB
:10282000DD018093DC01ABE5B0E0EBE5F0E0808119
:1028300080648C93E981FA818181813079F4A5E506
:10284000B0E0E5E5F0E080818E7F8C93A5E5B0E017
:10285000E5E5F0E080818D7F8C933BC0E981FA81D2
:102860008181823079F4A5E5B0E0E5E5F0E0808192
:1028700081608C93A5E5B0E0E5E5F0E080818D7F97
:102880008C9327C0E981FA818181833079F4A5E5B1
:10289000B0E0E5E5F0E080818E7F8C93A5E5B0E0C7
:1028A000E5E5F0E0808182608C9313C0E981FA81D4
:1028B0008181843071F4A5E5B0E0E5E5F0E0808148
:1028C00081608C93A5E5B0E0E5E5F0E08081826071
:1028D0008C930F900F90CF91DF910895DF93CF935A
:1028E00000D0CDB7DEB79A838983E981FA818281EE
:1028F00093819093DF018093DE01ABE5B0E0EBE5DF
:10290000F0E0808180688C93E981FA818181813057
:1029100079F4A5E5B0E0E5E5F0E080818B7F8C936C
:10292000A5E5B0E0E5E5F0E08081877F8C933BC0D2
:10293000E981FA818181823079F4A5E5B0E0E5E5AD
:10294000F0E0808184608C93A5E5B0E0E5E5F0E0FF
:102950008081877F8C9327C0E981FA8181818330D0
:1029600079F4A5E5B0E0E5E5F0E080818B7F8C931C
:10297000A5E5B0E0E5E5F0E0808188608C9313C0C8
:10298000E981FA818181843071F4A5E5B0E0E5E563
:10299000F0E0808184608C93A5E5B0E0E5E5F0E0AF
:1029A000808188608C930F900F90CF91DF91089574
:1029B000DF93CF9300D0CDB7DEB79A838983E981C7
:1029C000FA81828193819093E1018093E001ABE5EC
:1029D000B0E0EBE5F0E0808180628C93E981FA81E0
:1029E0008181833041F4A4E5B0E0E4E5F0E080814A
:1029F0008F7B8C930CC0E981FA818181843039F41A
:102A0000A4E5B0E0E4E5F0E0808180648C930F9071
:102A10000F90CF91DF910895DF93CF9300D0CDB782
:102A2000DEB79A838983E981FA818081813029F434
:102A300089819A810E94041413C0E981FA818081FE
:102A4000823029F489819A810E946E1409C0E9813B
:102A5000FA818081833021F489819A810E94D8147F
:102A60000F900F90CF91DF9108951F920F920FB6A4
:102A70000F9211242F933F934F935F936F937F9304
:102A80008F939F93AF93BF93EF93FF93DF93CF9376
:102A9000CDB7DEB7E091DC01F091DD010995CF9172
:102AA000DF91FF91EF91BF91AF919F918F917F91B6
:102AB0006F915F914F913F912F910F900FBE0F90AB
:102AC0001F9018951F920F920FB60F9211242F93FB
:102AD0003F934F935F936F937F938F939F93AF93A6
:102AE000BF93EF93FF93DF93CF93CDB7DEB7E09122
:102AF000DE01F091DF010995CF91DF91FF91EF9118
:102B0000BF91AF919F918F917F916F915F914F9105
:102B10003F912F910F900FBE0F901F9018951F920D
:102B20000F920FB60F9211242F933F934F935F9301
:102B30006F937F938F939F93AF93BF93EF93FF9385
:102B4000DF93CF93CDB7DEB7E091E001F091E101E3
:102B50000995CF91DF91FF91EF91BF91AF919F9137
:102B60008F917F916F915F914F913F912F910F9036
:102B70000FBE0F901F901895DF93CF93CDB7DEB7A0
:102B80002E970FB6F894DEBF0FBECDBF0E94A507EB
:102B900080E690E00E94A30580E090E0AAEFB3E415
:102BA0008B879C87AD87BE876B857C858D859E8551
:102BB00020E030E04AEF54E40E941F02DC01CB0128
:102BC0008F839887A987BA876F81788589859A8549
:102BD00020E030E040E85FE30E94790388232CF492
:102BE00081E090E09E838D833FC06F8178858985E9
:102BF0009A8520E03FEF4FE757E40E94190318162B
:102C00004CF56B857C858D859E8520E030E040E22B
:102C100051E40E941F02DC01CB01BC01CD010E94E6
:102C20004900DC01CB019E838D830FC088EC90E0CE
:102C30009C838B838B819C810197F1F79C838B8391
:102C40008D819E8101979E838D838D819E810097CA
:102C500069F714C06F81788589859A850E9449003B
:102C6000DC01CB019E838D838D819E819A83898334
:102C700089819A810197F1F79A8389832E960FB6FD
:102C8000F894DEBF0FBECDBFCF91DF910895DF93E3
:102C9000CF93CDB7DEB7EE970FB6F894DEBF0FBE79
:102CA000CDBF9CAF8BAF7EAF6DAFF8948EE1FE01D0
:102CB0007D96DF01982F1D929A95E9F786E690E0C0
:102CC0000E94A30580E090E0A8E4B3E4898F9A8F86
:102CD000AB8FBC8F698D7A8D8B8D9C8D20E030E021
:102CE0004AEF54E40E941F02DC01CB018D8B9E8BC6
:102CF000AF8BB88F6D897E898F89988D20E030E009
:102D000040E85FE30E94790388232CF481E090E09F
:102D10009C8B8B8B3FC06D897E898F89988D20E03D
:102D20003FEF4FE757E40E94190318164CF5698DE1
:102D30007A8D8B8D9C8D20E030E040E251E40E9442
:102D40001F02DC01CB01BC01CD010E944900DC0166
:102D5000CB019C8B8B8B0FC088EC90E09A8B898B7E
:102D600089899A890197F1F79A8B898B8B899C893C
:102D700001979C8B8B8B8B899C89009769F714C07A
:102D80006D897E898F89988D0E944900DC01CB0175
:102D90009C8B8B8B8B899C89988B8F878F8598894F
:102DA0000197F1F7988B8F8700D000D000D0EDB756
:102DB000FEB73196CE014D969183808381E790E0F6
:102DC000938382838BAD9CAD958384830E94A728D7
:102DD000ADB7BEB716960FB6F894BEBF0FBEADBF67
:102DE000CE014D960E94A30580E090E0AAE7B4E4EE
:102DF0008B879C87AD87BE876B857C858D859E85FF
:102E000020E030E04AEF54E40E941F02DC01CB01D5
:102E10008F839887A987BA876F81788589859A85F6
:102E200020E030E040E85FE30E94790388232CF43F
:102E300081E090E09E838D833FC06F817885898596
:102E40009A8520E03FEF4FE757E40E9419031816D8
:102E50004CF56B857C858D859E8520E030E040E2D9
:102E600051E40E941F02DC01CB01BC01CD010E9494
:102E70004900DC01CB019E838D830FC088EC90E07C
:102E80009C838B838B819C810197F1F79C838B833F
:102E90008D819E8101979E838D838D819E81009778
:102EA00069F714C06F81788589859A850E944900E9
:102EB000DC01CB019E838D838D819E819A838983E2
:102EC00089819A810197F1F79A8389838DAD9EADAF
:102ED0000E94A3058AE190E00E94D4087894EE96BF
:102EE0000FB6F894DEBF0FBECDBFCF91DF9108952E
:102EF000DF93CF93CDB7DEB7A0970FB6F894DEBFC0
:102F00000FBECDBF98A38F8FF8948EE1FE0131964E
:102F1000DF01982F1D929A95E9F700D000D000D0DC
:102F2000EDB7FEB73196CE0101969183808381E89B
:102F300090E0938382838F8D98A1958384830E94F0
:102F4000A728ADB7BEB716960FB6F894BEBF0FBE92
:102F5000ADBFCE0101960E94A3057894A0960FB64E
:102F6000F894DEBF0FBECDBFCF91DF9108950F93D0
:102F70001F93DF93CF93CDB7DEB7CC57D0400FB6BA
:102F8000F894DEBF0FBECDBFCE018B5A9F4F28E213
:102F9000FC01DF01822F1D928A95E9F789E890E014
:102FA0000E94A305FE01EF5AFF4F80E090E0AAEFD8
:102FB000B4E480839183A283B3838E01035B1F4FAC
:102FC000FE01EF5AFF4F608171818281938120E081
:102FD00030E04AEF54E40E941F02DC01CB01F8010B
:102FE00080839183A283B383FE01E35BFF4F608103
:102FF00071818281938120E030E040E85FE30E94AC
:103000007903882344F4FE01E55BFF4F81E090E003
:103010009183808364C0FE01E35BFF4F6081718117
:103020008281938120E03FEF4FE757E40E9419032C
:1030300018160CF043C0FE01EF5AFF4F60817181FA
:103040008281938120E030E040E251E40E941F023F
:10305000DC01CB018E01055B1F4FBC01CD010E943D
:103060004900DC01CB01F801918380831FC0FE0180
:10307000E75BFF4F88EC90E091838083FE01E75B84
:10308000FF4F808191810197F1F7FE01E75BFF4FD0
:1030900091838083DE01A55BBF4FFE01E55BFF4F9F
:1030A00080819181019711969C938E93FE01E55B3F
:1030B000FF4F808191810097D1F627C08E01055B7B
:1030C0001F4FFE01E35BFF4F60817181828193811D
:1030D0000E944900DC01CB01F80191838083DE016D
:1030E000A95BBF4FFE01E55BFF4F808191818D930E
:1030F0009C93FE01E95BFF4F808191810197F1F77D
:10310000FE01E95BFF4F9183808385E990E00E9497
:10311000A305FE01ED5BFF4F80E090E0AAEFB4E471
:1031200080839183A283B3838E01015C1F4FFE01D4
:10313000ED5BFF4F608171818281938120E030E0FF
:103140004AEF54E40E941F02DC01CB01F8018083A6
:103150009183A283B383FE01FF9660817181828196
:10316000938120E030E040E85FE30E947903882308
:103170002CF481E090E09EAF8DAF46C0FE01FF963B
:10318000608171818281938120E03FEF4FE757E4B6
:103190000E941903181664F5FE01ED5BFF4F608174
:1031A00071818281938120E030E040E251E40E940D
:1031B0001F02DC01CB01BC01CD010E944900DC01F2
:1031C000CB019EAF8DAF0FC088EC90E09CAF8BAF72
:1031D0008BAD9CAD0197F1F79CAF8BAF8DAD9EADE4
:1031E00001979EAF8DAF8DAD9EAD009769F716C06C
:1031F000FE01FF9660817181828193810E94490066
:10320000DC01CB019EAF8DAF8DAD9EAD9AAF89AF86
:1032100089AD9AAD0197F1F79AAF89AFCE018B5A7C
:103220009F4F22EA30E0B90141E250E00E948E282F
:10323000CE018B5A9F4F0E94A30580E090E0AAEF39
:10324000B4E48DAB9EABAFABB8AF6DA97EA98FA92F
:1032500098AD20E030E04AEF54E40E941F02DC0108
:10326000CB0189AB9AABABABBCAB69A97AA98BA9F3
:103270009CA920E030E040E85FE30E9479038823C6
:103280002CF481E090E098AB8FA73FC069A97AA9A0
:103290008BA99CA920E03FEF4FE757E40E94190358
:1032A00018164CF56DA97EA98FA998AD20E030E0E5
:1032B00040E251E40E941F02DC01CB01BC01CD01C0
:1032C0000E944900DC01CB0198AB8FA70FC088ECAE
:1032D00090E09EA78DA78DA59EA50197F1F79EA7CB
:1032E0008DA78FA598A9019798AB8FA78FA598A9AF
:1032F000009769F714C069A97AA98BA99CA90E94B3
:103300004900DC01CB0198AB8FA78FA598A99CA79A
:103310008BA78BA59CA50197F1F79CA78BA783ECA6
:1033200090E00E94A30580E090E0AAEFB4E48FA3B0
:1033300098A7A9A7BAA76FA178A589A59AA520E003
:1033400030E04AEF54E40E941F02DC01CB018BA362
:103350009CA3ADA3BEA36BA17CA18DA19EA120E0E7
:1033600030E040E85FE30E94790388232CF481E099
:1033700090E09AA389A33FC06BA17CA18DA19EA1DF
:1033800020E03FEF4FE757E40E94190318164CF571
:103390006FA178A589A59AA520E030E040E251E42C
:1033A0000E941F02DC01CB01BC01CD010E9449003B
:1033B000DC01CB019AA389A30FC088EC90E098A30D
:1033C0008F8F8F8D98A10197F1F798A38F8F89A187
:1033D0009AA101979AA389A389A19AA1009769F755
:1033E00014C06BA17CA18DA19EA10E944900DC01AB
:1033F000CB019AA389A389A19AA19E8F8D8F8D8DD0
:103400009E8D0197F1F79E8F8D8F8DEC90E00E943D
:10341000A30580E090E0A8E4B3E4898F9A8FAB8F96
:10342000BC8F698D7A8D8B8D9C8D20E030E04AEFCA
:1034300054E40E941F02DC01CB018D8B9E8BAF8B6D
:10344000B88F6D897E898F89988D20E030E040E8C3
:103450005FE30E94790388232CF481E090E09C8B49
:103460008B8B3FC06D897E898F89988D20E03FEFDF
:103470004FE757E40E94190318164CF5698D7A8DB1
:103480008B8D9C8D20E030E040E251E40E941F02D1
:10349000DC01CB01BC01CD010E944900DC01CB0164
:1034A0009C8B8B8B0FC088EC90E09A8B898B8989E1
:1034B0009A890197F1F79A8B898B8B899C8901975F
:1034C0009C8B8B8B8B899C89009769F714C06D89C5
:1034D0007E898F89988D0E944900DC01CB019C8BED
:1034E0008B8B8B899C89988B8F878F859889019787
:1034F000F1F7988B8F8789ED90E00E94A3058CEE01
:1035000091E00E949C06789480E090E0AAEFB5E4F8
:103510008B879C87AD87BE876B857C858D859E85D7
:1035200020E030E04AEF54E40E941F02DC01CB01AE
:103530008F839887A987BA876F81788589859A85CF
:1035400020E030E040E85FE30E94790388232CF418
:1035500081E090E09E838D833FC06F81788589856F
:103560009A8520E03FEF4FE757E40E9419031816B1
:103570004CF56B857C858D859E8520E030E040E2B2
:1035800051E40E941F02DC01CB01BC01CD010E946D
:103590004900DC01CB019E838D830FC088EC90E055
:1035A0009C838B838B819C810197F1F79C838B8318
:1035B0008D819E8101979E838D838D819E81009751
:1035C00069F714C06F81788589859A850E944900C2
:1035D000DC01CB019E838D838D819E819A838983BB
:1035E00089819A810197F1F79A8389838CEE91E022
:1035F000C458DF4F0FB6F894DEBF0FBECDBFCF91DA
:10360000DF911F910F910895DF93CF93CDB7DEB770
:103610002E970FB6F894DEBF0FBECDBF89ED90E0B8
:103620000E94A3058CEE91E00E949C06789480E0B5
:1036300090E0AAE7B5E48B879C87AD87BE876B8552
:103640007C858D859E8520E030E04AEF54E40E9421
:103650001F02DC01CB018F839887A987BA876F810E
:10366000788589859A8520E030E040E85FE30E9414
:10367000790388232CF481E090E09E838D833FC002
:103680006F81788589859A8520E03FEF4FE757E481
:103690000E94190318164CF56B857C858D859E85D7
:1036A00020E030E040E251E40E941F02DC01CB0147
:1036B000BC01CD010E944900DC01CB019E838D83BA
:1036C0000FC088EC90E09C838B838B819C81019759
:1036D000F1F79C838B838D819E8101979E838D83DF
:1036E0008D819E81009769F714C06F8178858985E7
:1036F0009A850E944900DC01CB019E838D838D81D8
:103700009E819A83898389819A810197F1F79A83AF
:1037100089838CEE91E02E960FB6F894DEBF0FBE33
:10372000CDBFCF91DF910895DF93CF93CDB7DEB7B3
:103730006C970FB6F894DEBF0FBECDBFF89483EE42
:1037400090E00E94A30580E090E4ACE9B5E4898FA5
:103750009A8FAB8FBC8F698D7A8D8B8D9C8D20E07D
:1037600030E04AEF54E40E941F02DC01CB018D8B54
:103770009E8BAF8BB88F6D897E898F89988D20E065
:1037800030E040E85FE30E94790388232CF481E075
:1037900090E09C8B8B8B3FC06D897E898F89988D43
:1037A00020E03FEF4FE757E40E94190318164CF54D
:1037B000698D7A8D8B8D9C8D20E030E040E251E464
:1037C0000E941F02DC01CB01BC01CD010E94490017
:1037D000DC01CB019C8B8B8B0FC088EC90E09A8B2B
:1037E000898B89899A890197F1F79A8B898B8B89C3
:1037F0009C8901979C8B8B8B8B899C89009769F79F
:1038000014C06D897E898F89988D0E944900DC01E2
:10381000CB019C8B8B8B8B899C89988B8F878F8519
:1038200098890197F1F7988B8F8783EE90E00E943B
:10383000A30580E090E4ACE9B5E48B879C87AD8775
:10384000BE876B857C858D859E8520E030E04AEFC4
:1038500054E40E941F02DC01CB018F839887A98763
:10386000BA876F81788589859A8520E030E040E8C5
:103870005FE30E94790388232CF481E090E09E832B
:103880008D833FC06F81788589859A8520E03FEFE1
:103890004FE757E40E94190318164CF56B857C8599
:1038A0008D859E8520E030E040E251E40E941F02B9
:1038B000DC01CB01BC01CD010E944900DC01CB0140
:1038C0009E838D830FC088EC90E09C838B838B81DB
:1038D0009C810197F1F79C838B838D819E81019759
:1038E0009E838D838D819E81009769F714C06F81BF
:1038F000788589859A850E944900DC01CB019E83E9
:103900008D838D819E819A83898389819A81019794
:10391000F1F79A83898378946C960FB6F894DEBF9A
:103920000FBECDBFCF91DF910895DF93CF93CDB779
:10393000DEB7C85ED0400FB6F894DEBF0FBECDBF75
:10394000FE01EB51FF4F91838083FE01E951FF4F50
:10395000718360838CEE91E060E070E044E650E0BB
:103960000E94972888ECFE017D96DF01982F1D921A
:103970009A95E9F70E94941BF894ADB7BEB71897D3
:103980000FB6F894BEBF0FBEADBFADB7BEB71196B0
:10399000CE014D9611969C938E938EE091E01396F6
:1039A0009C938E931297FE01EB51FF4F8081918182
:1039B00015969C938E931497FE01E951FF4F8081D9
:1039C000918117969C938E9316970E94A7288DB786
:1039D0009EB708960FB6F8949EBF0FBE8DBF8BE3BF
:1039E00091E0882F90E00E94A30580E090E0AAEF8C
:1039F000B4E4898F9A8FAB8FBC8F698D7A8D8B8D54
:103A00009C8D20E030E04AEF54E40E941F02DC016C
:103A1000CB018D8B9E8BAF8BB88F6D897E898F8903
:103A2000988D20E030E040E85FE30E94790388232E
:103A30002CF481E090E09C8B8B8B3FC06D897E895C
:103A40008F89988D20E03FEF4FE757E40E941903DC
:103A500018164CF5698D7A8D8B8D9C8D20E030E0A9
:103A600040E251E40E941F02DC01CB01BC01CD0108
:103A70000E944900DC01CB019C8B8B8B0FC088EC32
:103A800090E09A8B898B89899A890197F1F79A8BB3
:103A9000898B8B899C8901979C8B8B8B8B899C89CB
:103AA000009769F714C06D897E898F89988D0E946F
:103AB0004900DC01CB019C8B8B8B8B899C89988B7B
:103AC0008F878F8598890197F1F7988B8F878AE187
:103AD00090E00E94D4088CEE91E00E949C067894BD
:103AE00080E090E4ACE9B5E48B879C87AD87BE8726
:103AF0006B857C858D859E8520E030E04AEF54E41F
:103B00000E941F02DC01CB018F839887A987BA87A7
:103B10006F81788589859A8520E030E040E85FE311
:103B20000E94790388232CF481E090E09E838D83AA
:103B30003FC06F81788589859A8520E03FEF4FE708
:103B400057E40E94190318164CF56B857C858D850A
:103B50009E8520E030E040E251E40E941F02DC013B
:103B6000CB01BC01CD010E944900DC01CB019E8349
:103B70008D830FC088EC90E09C838B838B819C812C
:103B80000197F1F79C838B838D819E8101979E83A2
:103B90008D838D819E81009769F714C06F81788530
:103BA00089859A850E944900DC01CB019E838D8323
:103BB0008D819E819A83898389819A810197F1F70A
:103BC0009A8389830E94EE1DC851DF4F0FB6F89487
:103BD000DEBF0FBECDBFCF91DF910895DF93CF93AE
:103BE000CDB7DEB72E970FB6F894DEBF0FBECDBFB0
:103BF00087E491E00E94A3058AE090E00E94D40847
:103C000080E090E0AAE7B5E48B879C87AD87BE870C
:103C10006B857C858D859E8520E030E04AEF54E4FD
:103C20000E941F02DC01CB018F839887A987BA8786
:103C30006F81788589859A8520E030E040E85FE3F0
:103C40000E94790388232CF481E090E09E838D8389
:103C50003FC06F81788589859A8520E03FEF4FE7E7
:103C600057E40E94190318164CF56B857C858D85E9
:103C70009E8520E030E040E251E40E941F02DC011A
:103C8000CB01BC01CD010E944900DC01CB019E8328
:103C90008D830FC088EC90E09C838B838B819C810B
:103CA0000197F1F79C838B838D819E8101979E8381
:103CB0008D838D819E81009769F714C06F8178850F
:103CC00089859A850E944900DC01CB019E838D8302
:103CD0008D819E819A83898389819A810197F1F7E9
:103CE0009A8389832E960FB6F894DEBF0FBECDBFA0
:103CF000CF91DF910895DF93CF93CDB7DEB7E997EA
:103D00000FB6F894DEBF0FBECDBF89AF81E061E092
:103D100040E00E94C51181E062E040E00E94C511D0
:103D200089AD82958F70982F917080E064E0492F63
:103D30000E94C51189AD829586958770982F9170E4
:103D400080E065E0492F0E94C51189AD8295869576
:103D500086958370982F917080E066E0492F0E94CD
:103D6000C51189AD982F991F9927991F80E067E0A9
:103D7000492F0E94C51181E063E041E00E94C51116
:103D800080E090E0A0E0B0E48DAB9EABAFABB8AF0D
:103D90006DA97EA98FA998AD20E030E04AEF54E4E8
:103DA0000E941F02DC01CB0189AB9AABABABBCAB71
:103DB00069A97AA98BA99CA920E030E040E85FE3DB
:103DC0000E94790388232CF481E090E098AB8FA7C0
:103DD0003FC069A97AA98BA99CA920E03FEF4FE7D2
:103DE00057E40E94190318164CF56DA97EA98FA9F6
:103DF00098AD20E030E040E251E40E941F02DC0177
:103E0000CB01BC01CD010E944900DC01CB0198AB84
:103E10008FA70FC088EC90E09EA78DA78DA59EA5CB
:103E20000197F1F79EA78DA78FA598A9019798AB49
:103E30008FA78FA598A9009769F714C069A97AA9D7
:103E40008BA99CA90E944900DC01CB0198AB8FA7EC
:103E50008FA598A99CA78BA78BA59CA50197F1F787
:103E60009CA78BA781E063E040E00E94C51180E041
:103E700090E0A0E0B0E48FA398A7A9A7BAA76FA18C
:103E800078A589A59AA520E030E04AEF54E40E9485
:103E90001F02DC01CB018BA39CA3ADA3BEA36BA12E
:103EA0007CA18DA19EA120E030E040E85FE30E946C
:103EB000790388232CF481E090E09AA389A33FC082
:103EC0006BA17CA18DA19EA120E03FEF4FE757E4BD
:103ED0000E94190318164CF56FA178A589A59AA51B
:103EE00020E030E040E251E40E941F02DC01CB01FF
:103EF000BC01CD010E944900DC01CB019AA389A33A
:103F00000FC088EC90E098A38F8F8F8D98A10197B8
:103F1000F1F798A38F8F89A19AA101979AA389A3FA
:103F200089A19AA1009769F714C06BA17CA18DA10A
:103F30009EA10E944900DC01CB019AA389A389A11B
:103F40009AA19E8F8D8F8D8D9E8D0197F1F79E8FFB
:103F50008D8F89AD982F917080E064E0492F0E9489
:103F6000C51189AD8695982F917080E065E0492F45
:103F70000E94C51189AD86958695982F917080E035
:103F800066E0492F0E94C51189AD86958695869574
:103F9000982F917080E067E0492F0E94C51181E061
:103FA00063E041E00E94C51180E090E0A0E0B0E451
:103FB000898F9A8FAB8FBC8F698D7A8D8B8D9C8DFD
:103FC00020E030E04AEF54E40E941F02DC01CB0104
:103FD0008D8B9E8BAF8BB88F6D897E898F89988DE5
:103FE00020E030E040E85FE30E94790388232CF46E
:103FF00081E090E09C8B8B8B3FC06D897E898F899F
:10400000988D20E03FEF4FE757E40E941903181600
:104010004CF5698D7A8D8B8D9C8D20E030E040E2EF
:1040200051E40E941F02DC01CB01BC01CD010E94C2
:104030004900DC01CB019C8B8B8B0FC088EC90E09E
:104040009A8B898B89899A890197F1F79A8B898B49
:104050008B899C8901979C8B8B8B8B899C89009782
:1040600069F714C06D897E898F89988D0E944900F7
:10407000DC01CB019C8B8B8B8B899C89988B8F87E8
:104080008F8598890197F1F7988B8F8781E063E09E
:1040900040E00E94C51180E090E0A0E0B0E48B8792
:1040A0009C87AD87BE876B857C858D859E8520E04E
:1040B00030E04AEF54E40E941F02DC01CB018F8301
:1040C0009887A987BA876F81788589859A8520E046
:1040D00030E040E85FE30E94790388232CF481E01C
:1040E00090E09E838D833FC06F81788589859A8516
:1040F00020E03FEF4FE757E40E94190318164CF5F4
:104100006B857C858D859E8520E030E040E251E422
:104110000E941F02DC01CB01BC01CD010E944900BD
:10412000DC01CB019E838D830FC088EC90E09C83E3
:104130008B838B819C810197F1F79C838B838D818D
:104140009E8101979E838D838D819E81009769F763
:1041500014C06F81788589859A850E944900DC01A9
:10416000CB019E838D838D819E819A8389838981F2
:104170009A810197F1F79A838983E9960FB6F894AB
:10418000DEBF0FBECDBFCF91DF910895DF93CF93F8
:10419000CDB7DEB7E9970FB6F894DEBF0FBECDBF3F
:1041A00089AF81E061E041E00E94C51181E062E0F9
:1041B00040E00E94C51189AD82958F70982F917053
:1041C00080E064E0492F0E94C51189AD82958695F3
:1041D0008770982F917080E065E0492F0E94C5118B
:1041E00089AD8295869586958370982F917080E031
:1041F00066E0492F0E94C51189AD982F991F992714
:10420000991F80E067E0492F0E94C51181E063E0BB
:1042100041E00E94C51180E090E0A0E0B0E48DABE9
:104220009EABAFABB8AF6DA97EA98FA998AD20E0CA
:1042300030E04AEF54E40E941F02DC01CB0189AB5D
:104240009AABABABBCAB69A97AA98BA99CA920E0BE
:1042500030E040E85FE30E94790388232CF481E09A
:1042600090E098AB8FA73FC069A97AA98BA99CA9B8
:1042700020E03FEF4FE757E40E94190318164CF572
:104280006DA97EA98FA998AD20E030E040E251E40D
:104290000E941F02DC01CB01BC01CD010E9449003C
:1042A000DC01CB0198AB8FA70FC088EC90E09EA7F4
:1042B0008DA78DA59EA50197F1F79EA78DA78FA528
:1042C00098A9019798AB8FA78FA598A9009769F730
:1042D00014C069A97AA98BA99CA90E944900DC0194
:1042E000CB0198AB8FA78FA598A99CA78BA78BA56F
:1042F0009CA50197F1F79CA78BA781E063E040E0C4
:104300000E94C51180E090E0A0E0B0E48FA398A7E0
:10431000A9A7BAA76FA178A589A59AA520E030E042
:104320004AEF54E40E941F02DC01CB018BA39CA343
:10433000ADA3BEA36BA17CA18DA19EA120E030E026
:1043400040E85FE30E94790388232CF481E090E049
:104350009AA389A33FC06BA17CA18DA19EA120E05F
:104360003FEF4FE757E40E94190318164CF56FA171
:1043700078A589A59AA520E030E040E251E40E94AA
:104380001F02DC01CB01BC01CD010E944900DC0110
:10439000CB019AA389A30FC088EC90E098A38F8FDC
:1043A0008F8D98A10197F1F798A38F8F89A19AA17A
:1043B00001979AA389A389A19AA1009769F714C0CC
:1043C0006BA17CA18DA19EA10E944900DC01CB01C3
:1043D0009AA389A389A19AA19E8F8D8F8D8D9E8D81
:1043E0000197F1F79E8F8D8F89AD982F917080E0A6
:1043F00064E0492F0E94C51189AD8695982F917070
:1044000080E065E0492F0E94C51189AD86958695AB
:10441000982F917080E066E0492F0E94C51189AD08
:10442000869586958695982F917080E067E0492F54
:104430000E94C51181E063E041E00E94C51180E067
:1044400090E0A0E0B0E4898F9A8FAB8FBC8F698D2C
:104450007A8D8B8D9C8D20E030E04AEF54E40E94F1
:104460001F02DC01CB018D8B9E8BAF8BB88F6D89CA
:104470007E898F89988D20E030E040E85FE30E94DC
:10448000790388232CF481E090E09C8B8B8B3FC0D8
:104490006D897E898F89988D20E03FEF4FE757E443
:1044A0000E94190318164CF5698D7A8D8B8D9C8DA1
:1044B00020E030E040E251E40E941F02DC01CB0129
:1044C000BC01CD010E944900DC01CB019C8B8B8B90
:1044D0000FC088EC90E09A8B898B89899A89019723
:1044E000F1F79A8B898B8B899C8901979C8B8B8B9D
:1044F0008B899C89009769F714C06D897E898F89A3
:10450000988D0E944900DC01CB019C8B8B8B8B89A1
:104510009C89988B8F878F8598890197F1F7988B65
:104520008F8781E063E040E00E94C51180E090E069
:10453000A0E0B0E48B879C87AD87BE876B857C85C8
:104540008D859E8520E030E04AEF54E40E941F02F2
:10455000DC01CB018F839887A987BA876F81788523
:1045600089859A8520E030E040E85FE30E94790386
:1045700088232CF481E090E09E838D833FC06F817F
:10458000788589859A8520E03FEF4FE757E40E94C0
:10459000190318164CF56B857C858D859E8520E06A
:1045A00030E040E251E40E941F02DC01CB01BC017B
:1045B000CD010E944900DC01CB019E838D830FC099
:1045C00088EC90E09C838B838B819C810197F1F731
:1045D0009C838B838D819E8101979E838D838D81AA
:1045E0009E81009769F714C06F81788589859A85C7
:1045F0000E944900DC01CB019E838D838D819E81C9
:104600009A83898389819A810197F1F79A838983B3
:10461000E9960FB6F894DEBF0FBECDBFCF91DF9104
:1046200008950F931F93DF93CF93CDB7DEB7C65492
:10463000D0400FB6F894DEBF0FBECDBF80E064E07F
:1046400041E00E94331180E065E041E00E943311B7
:1046500080E066E041E00E94331180E067E041E0E5
:104660000E94331181E061E041E00E94331181E05A
:1046700062E041E00E94331181E063E041E00E948A
:104680003311FE01ED5BFF4F80E090E0A8E4B2E45F
:1046900080839183A283B3838E01015C1F4FFE014F
:1046A000ED5BFF4F608171818281938120E030E07A
:1046B0004AEF54E40E941F02DC01CB01F801808321
:1046C0009183A283B383FE01FF9660817181828111
:1046D000938120E030E040E85FE30E947903882383
:1046E0002CF481E090E09EAF8DAF46C0FE01FF96B6
:1046F000608171818281938120E03FEF4FE757E431
:104700000E941903181664F5FE01ED5BFF4F6081EE
:1047100071818281938120E030E040E251E40E9487
:104720001F02DC01CB01BC01CD010E944900DC016C
:10473000CB019EAF8DAF0FC088EC90E09CAF8BAFEC
:104740008BAD9CAD0197F1F79CAF8BAF8DAD9EAD5E
:1047500001979EAF8DAF8DAD9EAD009769F716C0E6
:10476000FE01FF9660817181828193810E944900E0
:10477000DC01CB019EAF8DAF8DAD9EAD9AAF89AF01
:1047800089AD9AAD0197F1F79AAF89AF82E00E94A7
:104790007B1E80E090E0A0E8BFE38DAB9EABAFABAB
:1047A000B8AF6DA97EA98FA998AD20E030E04AEF9F
:1047B00054E40E941F02DC01CB0189AB9AABABAB86
:1047C000BCAB69A97AA98BA99CA920E030E040E89C
:1047D0005FE30E94790388232CF481E090E098AB9A
:1047E0008FA73FC069A97AA98BA99CA920E03FEFB8
:1047F0004FE757E40E94190318164CF56DA97EA9DE
:104800008FA998AD20E030E040E251E40E941F0201
:10481000DC01CB01BC01CD010E944900DC01CB01D0
:1048200098AB8FA70FC088EC90E09EA78DA78DA5B1
:104830009EA50197F1F79EA78DA78FA598A901972F
:1048400098AB8FA78FA598A9009769F714C069A99D
:104850007AA98BA99CA90E944900DC01CB0198ABE5
:104860008FA78FA598A99CA78BA78BA59CA501971F
:10487000F1F79CA78BA788E20E947B1E80E090E066
:10488000A0E8BFE38FA398A7A9A7BAA76FA178A5AF
:1048900089A59AA520E030E04AEF54E40E941F0267
:1048A000DC01CB018BA39CA3ADA3BEA36BA17CA118
:1048B0008DA19EA120E030E040E85FE30E947903F3
:1048C00088232CF481E090E09AA389A33FC06BA1D8
:1048D0007CA18DA19EA120E03FEF4FE757E40E940D
:1048E000190318164CF56FA178A589A59AA520E0A3
:1048F00030E040E251E40E941F02DC01CB01BC0128
:10490000CD010E944900DC01CB019AA389A30FC00D
:1049100088EC90E098A38F8F8F8D98A10197F1F785
:1049200098A38F8F89A19AA101979AA389A389A19E
:104930009AA1009769F714C06BA17CA18DA19EA1DB
:104940000E944900DC01CB019AA389A389A19AA105
:104950009E8F8D8F8D8D9E8D0197F1F79E8F8D8F00
:104960008CE00E947B1E80E090E0A0E8BFE3898F8E
:104970009A8FAB8FBC8F698D7A8D8B8D9C8D20E04B
:1049800030E04AEF54E40E941F02DC01CB018D8B22
:104990009E8BAF8BB88F6D897E898F89988D20E033
:1049A00030E040E85FE30E94790388232CF481E043
:1049B00090E09C8B8B8B3FC06D897E898F89988D11
:1049C00020E03FEF4FE757E40E94190318164CF51B
:1049D000698D7A8D8B8D9C8D20E030E040E251E432
:1049E0000E941F02DC01CB01BC01CD010E944900E5
:1049F000DC01CB019C8B8B8B0FC088EC90E09A8BF9
:104A0000898B89899A890197F1F79A8B898B8B8990
:104A10009C8901979C8B8B8B8B899C89009769F76C
:104A200014C06D897E898F89988D0E944900DC01B0
:104A3000CB019C8B8B8B8B899C89988B8F878F85E7
:104A400098890197F1F7988B8F8781E00E947B1EF0
:104A500080E090E0A0EAB1E48B879C87AD87BE87B9
:104A60006B857C858D859E8520E030E04AEF54E49F
:104A70000E941F02DC01CB018F839887A987BA8728
:104A80006F81788589859A8520E030E040E85FE392
:104A90000E94790388232CF481E090E09E838D832B
:104AA0003FC06F81788589859A8520E03FEF4FE789
:104AB00057E40E94190318164CF56B857C858D858B
:104AC0009E8520E030E040E251E40E941F02DC01BC
:104AD000CB01BC01CD010E944900DC01CB019E83CA
:104AE0008D830FC088EC90E09C838B838B819C81AD
:104AF0000197F1F79C838B838D819E8101979E8323
:104B00008D838D819E81009769F714C06F817885B0
:104B100089859A850E944900DC01CB019E838D83A3
:104B20008D819E819A83898389819A810197F1F78A
:104B30009A83898386E00E947B1E80E80E947B1E08
:104B4000CA5BDF4F0FB6F894DEBF0FBECDBFCF916B
:104B5000DF911F910F910895DF93CF930F92CDB7FF
:104B6000DEB7898389810E94C6200F90CF91DF91A3
:104B70000895DF93CF9300D00F92CDB7DEB79B831C
:104B80008A8319820EC08981282F30E08A819B8117
:104B9000FC01E20FF31F80810E94C62089818F5F94
:104BA00089838981282F30E08A819B81FC01E20F73
:104BB000F31F8081882339F70F900F900F90CF91CA
:104BC000DF910895DF93CF9300D0CDB7DEB789830F
:104BD0006A838981882341F48A81803178F48A81CB
:104BE00080580E947B1E0AC08981813039F48A81F5
:104BF000803120F48A8180540E947B1E0F900F9098
:104C0000CF91DF9108950F931F93DF93CF93CDB78B
:104C1000DEB760970FB6F894DEBF0FBECDBF6D87CD
:104C20007E878F87988B1A828D859E85AF85B88900
:104C30000097A105B10591F580E30E94C6204DC003
:104C40008A81082F10E08D859E85AF85B8892AE07E
:104C500030E040E050E0BC01CD010E943528DC018D
:104C6000CB01282F205DCE010396FC01E00FF11F40
:104C700020838D859E85AF85B8892AE030E040E0AD
:104C800050E0BC01CD010E943528DA01C9018D87B1
:104C90009E87AF87B88B8A818F5F8A838D859E853B
:104CA000AF85B8890097A105B10551F68A8189833E
:104CB00011C08981882F90E09C0121503040CE01A5
:104CC0000396FC01E20FF31F80810E94C6208981B8
:104CD000815089838981882361F760960FB6F894A3
:104CE000DEBF0FBECDBFCF91DF911F910F91089511
:104CF000DF93CF9300D0CDB7DEB79A8389838981C4
:104D00009A8120E137E2B9010E940E2828EE33E0B3
:104D1000B9010E940E28CB01805D0E94C6208981C6
:104D20009A8128EE33E0B9010E940E2824E630E093
:104D3000B9010E940E28CB01805D0E94C6208981A6
:104D40009A8124E630E0B9010E940E282AE030E082
:104D5000B9010E940E28CB01805D0E94C620898186
:104D60009A812AE030E0B9010E940E28805D0E94FD
:104D7000C6200F900F90CF91DF9108950F931F934E
:104D8000DF93CF9300D000D00F92CDB7DEB76A8308
:104D90007B838C839D8319828A819B81AC81BD81B9
:104DA0000097A105B105C9F58981882F90E0FC0124
:104DB000EE51FE4F80E3808338C08981282F30E098
:104DC00088E090E08C01021B130B8A819B81AC81EF
:104DD000BD812AE030E040E050E0BC01CD010E94FE
:104DE0003528DC01CB01805DF801EE51FE4F808358
:104DF0008A819B81AC81BD812AE030E040E050E0B7
:104E0000BC01CD010E943528DA01C9018A839B8348
:104E1000AC83BD8389818F5F89838A819B81AC81CB
:104E2000BD810097A105B10541F68981282F30E0A9
:104E300089E090E0821B930B8E519E4F0F900F9054
:104E40000F900F900F90CF91DF911F910F910895C8
:104E5000EF92FF920F931F93DF93CF93CDB7DEB7FF
:104E600028970FB6F894DEBF0FBECDBF98878F830B
:104E70001B821C821D821E821A8219822BC02F81E6
:104E8000388589819A81F901E80FF91F8081882F7F
:104E900090E0C0977C010027F7FC0095102F8B81D4
:104EA0009C81AD81BE812AE030E040E050E0BC0151
:104EB000CD010E94EF27DC01CB018E0D9F1DA01FAD
:104EC000B11F8B839C83AD83BE8389819A810196B8
:104ED0009A8389838F8198850E949E289C0189816D
:104EE0009A818217930758F28B819C81AD81BE8194
:104EF000BC01CD0128960FB6F894DEBF0FBECDBF22
:104F0000CF91DF911F910F91FF90EF900895DF9364
:104F1000CF9300D000D0CDB7DEB79B838A836C835C
:104F200019828C81882F90E00896880F991F880F2E
:104F3000991F880F991F0E947B1E19820EC08981BC
:104F4000282F30E08A819B81FC01E20FF31F8081D2
:104F50000E94C62089818F5F89838981883078F398
:104F60000F900F900F900F90CF91DF910895DF93E6
:104F7000CF93CDB7DEB781E00E947B1ECF91DF914A
:104F80000895DF93CF9300D000D0CDB7DEB78983EB
:104F90006A835C834B8389816A810E94E2258B81CD
:104FA0009C810E94B9250F900F900F900F90CF9188
:104FB000DF910895DF93CF93CDB7DEB70E94BC1584
:104FC0000E9411230E94B7170E94B9251092C201B6
:104FD0001092C1011092C2011092C101FBCF629FD9
:104FE000D001739FF001829FE00DF11D649FE00DE1
:104FF000F11D929FF00D839FF00D749FF00D659F42
:10500000F00D9927729FB00DE11DF91F639FB00D40
:10501000E11DF91FBD01CF0111240895AA1BBB1B7F
:1050200051E107C0AA1FBB1FA617B70710F0A61BA8
:10503000B70B881F991F5A95A9F780959095BC01C9
:10504000CD01089597FB092E07260AD077FD04D0DD
:10505000E5DF06D000201AF4709561957F4F089522
:10506000F6F7909581959F4F0895A1E21A2EAA1BFD
:10507000BB1BFD010DC0AA1FBB1FEE1FFF1FA21708
:10508000B307E407F50720F0A21BB30BE40BF50B05
:10509000661F771F881F991F1A9469F7609570958E
:1050A000809590959B01AC01BD01CF0108952F9291
:1050B0003F924F925F926F927F928F929F92AF92A8
:1050C000BF92CF92DF92EF92FF920F931F93CF93F5
:1050D000DF93CDB7DEB7CA1BDB0B0FB6F894DEBF8C
:1050E0000FBECDBF09942A88398848885F846E84B2
:1050F0007D848C849B84AA84B984C884DF80EE80FC
:10510000FD800C811B81AA81B981CE0FD11D0FB604
:10511000F894DEBF0FBECDBFED010895FB01DC01A9
:1051200002C001900D9241505040D8F70895DC0123
:1051300001C06D9341505040E0F70895FC0101908B
:105140000020E9F7809590958E0F9F1F0895AEE09F
:10515000B0E0EDEAF8E20C9465280D891E8986E03E
:105160008C831A8309838FEF9FE79E838D839E0133
:10517000275E3F4FCE0101966F89788DA9010E946D
:10518000CB282F813885020F131FF80110822E962D
:10519000E4E00C948128ABE0B0E0E1EDF8E20C949F
:1051A00057283C012B015A01FC011782168283818A
:1051B00081FD03C06FEF7FEFC6C19AE0892E1E010B
:1051C0000894211C311CF3012381F20123FD8591F8
:1051D00023FF81912F01882309F4B2C1853239F46C
:1051E00023FD859123FF81912F01853229F490E0E1
:1051F000B3010E94BE2AE7CF982FFF24EE24992402
:10520000FFE1FF15D0F09B3269F09C3228F4903218
:1052100059F0933291F40EC09D3249F0903369F405
:1052200041E024C052E0F52A84E0F82A28C098E042
:10523000F92A25C0E0E1FE2A22C0F7FC29C0892F07
:1052400080538A3070F4F6FE05C0989C902C11248F
:10525000980E15C0E89CE02C1124E80EF0E2FF2A1D
:105260000EC09E3229F4F6FC6BC140E4F42A07C05C
:105270009C3619F450E8F52A02C0983649F4F20138
:1052800023FD959123FF91912F01992309F0B8CF28
:10529000892F8554833018F08052833038F444E0ED
:1052A00050E0A40EB51E5FE359830FC0933631F072
:1052B000933779F0933509F056C020C0F50180810D
:1052C000898342E050E0A40EB51E610101E010E0C8
:1052D00012C0F501C080D180F6FC03C06FEF7FEFF4
:1052E00002C0692D70E042E050E0A40EB51EC60178
:1052F0000E94B32A8C015FE7F52214C0F501C0803B
:10530000D180F6FC03C06FEF7FEF02C0692D70E023
:1053100042E050E0A40EB51EC6010E94A82A8C01EE
:1053200050E8F52AF3FE07C01AC080E290E0B3010E
:105330000E94BE2AEA948E2D90E008171907A8F360
:105340000EC0F601F7FC8591F7FE81916F0190E0A8
:10535000B3010E94BE2AE110EA94015010400115E9
:10536000110579F7EAC0943611F0993669F5F7FE20
:1053700008C0F501208131814281538184E090E0B1
:105380000AC0F501808191819C01442737FD409539
:10539000542F82E090E0A80EB91E9FE6F92257FF35
:1053A00009C050954095309521953F4F4F4F5F4F25
:1053B000E0E8FE2ACA01B901A1012AE030E00E941A
:1053C000EA2AD82ED21840C0953729F41F2D1F7E07
:1053D0002AE030E01DC01F2D197F9F3661F0903705
:1053E00020F4983509F0ACC00FC0903739F09837E9
:1053F00009F0A6C004C028E030E00AC0106114FD26
:10540000146020E130E004C014FD166020E132E0B9
:1054100017FF08C0F501608171818281938144E0AA
:1054200050E008C0F50180819181BC0180E090E0EE
:1054300042E050E0A40EB51EA1010E94EA2AD82E37
:10544000D2188FE7F82EF122F6FE0BC05EEFF522A0
:10545000D91438F4F4FE07C0F2FC05C08FEEF82230
:1054600002C01D2D01C0192DF4FE0DC0FE01ED0D71
:10547000F11D8081803319F499EEF92208C01F5F75
:10548000F2FE05C003C08F2D867809F01F5F0F2D37
:10549000F3FC14C0F0FE0FC01E1510F09D2C0BC0C5
:1054A0009D2C9E0C911A1E2D06C080E290E0B30147
:1054B0000E94BE2A1F5F1E15C0F304C01E1510F403
:1054C000E11A01C0EE2404FF0FC080E390E0B301B5
:1054D0000E94BE2A02FF1DC001FD03C088E790E0C4
:1054E0000EC088E590E00BC0802F867891F001FF18
:1054F00002C08BE201C080E2F7FC8DE290E0B301D4
:105500000E94BE2A06C080E390E0B3010E94BE2A3A
:105510009A94D914C0F3DA94F101ED0DF11D808154
:1055200090E0B3010E94BE2ADD20A9F706C080E208
:1055300090E0B3010E94BE2AEA94EE20C1F743CE68
:10554000F30166817781CB012B96E2E10C947328FD
:10555000FC010590615070400110D8F7809590953E
:105560008E0F9F1F0895FC01615070400190011043
:10557000D8F7809590958E0F9F1F08950F931F93D6
:10558000CF93DF938C01EB018B8181FF1BC082FFE6
:105590000DC02E813F818C819D812817390764F4CD
:1055A000E881F9810193F983E88306C0E885F985EC
:1055B000802F0995892B31F48E819F8101969F83DD
:1055C0008E8302C00FEF1FEFC801DF91CF911F91B3
:1055D0000F910895FA01AA27283051F1203181F165
:1055E000E8946F936E7F6E5F7F4F8F4F9F4FAF4FEB
:1055F000B1E03ED0B4E03CD0670F781F891F9A1FFE
:10560000A11D680F791F8A1F911DA11D6A0F711DB1
:10561000811D911DA11D20D009F468943F912AE0BD
:10562000269F11243019305D3193DEF6CF010895A5
:10563000462F4770405D4193B3E00FD0C9F7F6CFD6
:10564000462F4F70405D4A3318F0495D31FD40529E
:10565000419302D0A9F7EACFB4E0A6959795879534
:1056600077956795BA95C9F7009761057105089513
:105670009B01AC010A2E06945795479537952795BF
:10568000BA95C9F7620F731F841F951FA01D089557
:04569000F894FFCFBC
:10569400415445300D0041542B434D47463D310D97
:1056A4000041542B434D47533D222B322573220D89
:1056B4000041544425733B0D0041542B434950533E
:1056C4004855540D0041542B4349504D55583D30D5
:1056D4000D0041542B435354543D22696E7465723A
:1056E4006E65742E766F6461666F6E652E6E65747A
:1056F400220D0041542B43494943520D0041542B80
:1057040043474154543D310D0041542B43494653C2
:10571400520D0041542B43495053544152543D229D
:10572400544350222C226170692E7468696E677329
:105734007065616B2E636F6D222C38300D00474508
:1057440054202F7570646174653F6170695F6B6587
:10575400793D4C453136444F3856325936574B46CD
:1057640030302625733D25640D0A0041542B4349EE
:105774005053454E440D0041542B434950434C4F24
:1057840053453D310D000000000000000000010100
:105794003A003700340031003B0038003500320055
:1057A4003900360033003000670033001900100060
:1057B4000C000800CF00670033002200190010001D
:1057C400A001CF006700440033002200CF0067002F
:1057D4003300220019001000A001CF00670044002C
:1057E400330022004003A001CF008A006700440078
:00000001FF
